:020000040000FA
:2000000000000420591F0000811F0000831F0000851F0000871F0000891F00000000000010
:200020000000000000000000000000008B1F00008D1F0000000000008F1F0000911F00000C
:20004000911C0000931F0000A1080000931F0000931F0000931F000095180000931F000023
:20006000931F000031060000931F000095140000931F00007D1A0000931F0000931F00008F
:20008000A91A000055070000931F0000931F0000931F0000931F0000931F0000931F000015
:2000A000931F0000931F0000931F0000931F0000931F0000931F0000000000000000000014
:2000C000931F0000931F0000931F0000931F000065AF0000931F0000931F0000931F00002E
:2000E000931F0000931F0000931F00000000000000000000931F000000000000931F000086
:200100000000000000000000000000000000000000000000000000000000000000000000DF
:200120000000000000000000000000000000000000000000000000000000000000000000BF
:2001400000000000000000000000000000000000000000000000000000000000000000009F
:2001600000000000000000000000000000000000000000000000000000000000000000007F
:2001800000000000000000000000000000000000000000000000000000000000000000005F
:2001A00000000000000000000000000000000000000000000000000000000000000000003F
:2001C00000000000000000000000000000000000000000000000000000000000000000001F
:2001E0000000000000000000000000000000000000000000000000000000000000000000FF
:200200000348044B834202D0034B03B11847704784030020840300200000000005480649AB
:20022000091A891001EBD171491002D0034B03B11847704784030020840300200000000043
:2002400010B5064C237843B9FFF7DAFF044B13B10448AFF300800123237010BDF4210020E7
:200260000000000050CD000008B5054B1BB105490548AFF30080BDE80840FFF7CFBF00BF9B
:2002800000000000A003002050CD0000154B002B08BF134B9D46A3F5803A00218B460F4652
:2002A0001348144A121A0CF005F90F4B002B00D098470E4B002B00D09847002000210400B3
:2002C0000D000D48002802D00C48AFF3008000F02BF82000290001F05DFE00F011F800BFEC
:2002E0000000080000000420000000000000000088030020E02B00200000000000000000FC
:2003000008B5074B044613B10021AFF30080054B1868836A03B19847204600F029F800BFF7
:200320000000000058C5000070B50D4E0D4CA41BA4100025A54209D10B4E0C4C0CF0F8F8D1
:20034000A41BA4100025A54205D170BD56F8253098470135EEE756F8253098470135F2E7FD
:200360007C0300207C0300207C03002080030020FEE700BF08B502F045FFBDE8084002F087
:20038000FDBE00BF00B585B002F0E8FD002002F0F1FC00F053FA02F0ABFE4CF6F46136225C
:2003A0004FF08053ADF808108DF80A20D3F8A8208DF80B2004A9D3F8A43041F80C3D042288
:2003C00003A80CF08EF802A9082203480CF089F805B05DF804FB00BF80220020002101485F
:2003E00002F0BCB91002002010B500F0B1FA0446BFF35F8F02F040FA00B930BFBFF35F8FA6
:200400002046BDE8104000F0A7BA00BF802802D1024B00221A600120704700BF04C500406D
:200420000120704730B5134C012383B0236000F0BDF86FF003052D1A03E000F0B7F8C542EA
:2004400003D5D4F80031002BF7D00A4B0022C3F80021D3F80825D3F80835920544BF6FEA8F
:2004600083536FEA9353034A019301235360019803B030BD00C0004070B5064690B100784C
:2004800090B169B14D1C3544741C04E014F8010B30B1AC4204D000F0BDF9A11B002CF5D19C
:2004A000084670BD0146FBE70146F9E700B5134B83B000221A6001F0F7FC08B100F0C6FE3E
:2004C000002001F00BFD0E4B0E4A93E803000023ADF80410009069460B488DF8043000F0BD
:2004E00071FF08B100F0B2FE0121074800F0BCFF054800F0ADFF03B05DF804FBB80300204C
:20050000B4C5000039050000BCC50000014B1868704700BFB803002008B5064A13680133CA
:20052000136002F035F800B908BDBDE8084002F00FB800BFB8030020042800D07047FFF7C2
:20054000EBBF00BF014B1868C0097047B803002030B44FF08041D1F80C3413F4803308D18B
:200560000120C1F800310A460860D2F80031002BFBD00C4B0C48002201210324D9604FF435
:200580000025C3F80425C3F81025C3F808456024C3F84021C3F8045380F80843196030BC80
:2005A000704700BF0080004000E100E0024B0122DA64D3F84C057047008000402DE9F008F5
:2005C000174B184E184A4FF480310127C3F808133760D3F84805116883B0F9B1002013497E
:2005E0001060D1E9004514F1010B45F1000C12680192C1E900BC019A3760D3F848050B6809
:20060000074C002242EA00064FF4803530461946C4F8045303B0BDE8F00870470349EEE72B
:20062000009000404890004040910040880300202DE93048254A264B4FF40071C2F88011A9
:200640001C6882B02CB9234B1A6892B902B0BDE83088214A00211960D2E900011B680093DE
:20066000441C009B41F10005C2E9004502B0BDE830881C601B68194D0193019BFFF79EFF21
:20068000D5E90023994208BF9042DFD302232B7528462B699847D5E902BC5BEA0C030DD000
:2006A000D5E900010E4C1BEB00024CEB01030121C5E900232975C4F84425C7E7084B2C7586
:2006C0004FF40032C3F80823C0E700BF00E100E04091004044910040880300202022002065
:2006E000009000402DE97008174B184A0221C3F80813D3F80405116882B009B30020144927
:200700001060D1E9004514F1010B45F1000C12680192C1E900BC019AD3F804050A4E4FEAA4
:200720000C634FEA0B6243EA1B2342EA000B022458461946C6F8044302B0BDE87008704754
:20074000034BD3E900BCE9E70010014004110140900300202DE93048274A284B4FF40031C3
:20076000C2F880111C6882B02CB9254B1A6892B902B0BDE83088234A00211960D2E9000184
:200780001B680093441C009B41F10005C2E9004502B0BDE830881C601B681B4D0193019B7B
:2007A000FFF7A0FFD5E90623994208BF9042DFD3022385F82C3005F11800AB6A9847D5E9D9
:2007C00008BC5BEA0C030ED0D5E906010F4C1BEB00024CEB01030121C5E90623C4F84025A6
:2007E00085F82C10C4E70A4B85F82C404FF48032C3F80823BCE700BF00E100E00411014003
:200800004011014090030020202200200010014000900040074B084AC3F81C0582B01368E3
:20082000002BFCD00023136013680193019B02B0704700BF002000401C21004030B4144B38
:200840001448154D4FF0A04100220324C3F80025C1F818474024C1F80845C1F820270824E3
:200860000621C3F8245582B0C3F86C25C3F81445C3F80C15026001680191019C074A042040
:200880000121C3F80005116002B030BC704700BF002000401C21004000E0D70108200040F4
:2008A000074B0849084A0020186082B01B680193019BD1F818051368C0B202B0184700BF23
:2008C0000821004000200040BC0300204FF0A0434FF4F0310022C3F80815C3F80C2570474D
:2008E00000B50D4B93E8070085B001AB83E8070018460A4901F0ECF858B9094801F022F922
:2009000008B100F0A3FC074B01221A7005B05DF804FB00F09BFCF0E7C4C50000CD080000CB
:20092000F5210020F6210020024B1B7803B9704701F0FAB8F6210020034B1B7803B97047C9
:20094000024B187801F022B9F6210020F5210020EFF3108072B6704780F31088704700BFAF
:2009600000F01F030121C0F34710994002F02EBC08B500F033FE00B108BDBDE8084000F053
:20098000E3BD00BF30B583B01446022301F01F0100228DF8063014F00C0341EA4015ADF83B
:2009A000042008D0042B25D0082B27D00C2B04BF03238DF8043014F0030306D0022B15D022
:2009C000012B04BF03238DF8053001A90D4A284600F00EFE2306284604D5012100F0A4FEB9
:2009E00003B030BD00F01CFF03B030BD01238DF80530EAE701238DF80430DCE702238DF8B3
:200A00000430D8E76109000001F01F0141EA40101F28CABF054B4FF0A04300F01F00D3F8D1
:200A2000101521FA00F000F00100704700030050024B0022C3F8FC2F01207047001000400E
:200A400099B1182800F28380DFE800F00D118181736A7C654F4944818181403C383481308A
:200A60002C2824211D000020704702207047394B394AD3F80835A2FB03239B080A33DBB2D1
:200A80000B60002070477D230B600020704700200860704710230B60002070470A230B60E6
:200AA0000020704720230B600020704703230B600020704708230B6000207047D8230B609F
:200AC000002070471A230B60002070470B230B6000207047214B1B780B6000207047204BA4
:200AE00093F900300B60002070471E4B1E4A012082B018601368002BFCD0002010601268E0
:200B0000144B0192019AD3F8483503F07F035B420B6002B07047154B5B790B6000207047A4
:200B2000124BDB7800200860002B9CD001230B6070470E4B1B7800200860002B93D0042377
:200B40000B607047094B5B780B60002070470120704700BF00100040CDCCCCCCF7210020BA
:200B6000F8210020141000401C110040D00100200120704770B582B0FFF7EAFEBFF35F8FCD
:200B80001C4B1B78ABB11C4B1C4902224FF0FF34C1F80843C3F88021C3F88020BFF34F8F52
:200BA000BFF36F8FBFF35F8F02B0BDE87040FFF7D3BE134903F0FF020A600968114B01913E
:200BC00001991A601A680D490B4B00924FF0FF3502224FF44054009EC1F80853C3F88021C5
:200BE000C1F804431A60BFF35F8F02B0BDE87040FFF7B2BED001002000E100E0001000406C
:200C00003011004034110040134BD3F8FC0F28B1D3F85035DBB2032B01D0002070470F49B6
:200C20000F4A0B781278053BDBB202F0FF005AB17A2BF2D80B4B1B68002BEED10A4B18687E
:200C4000B0FA80F0400970477A2BE7D891F8800080F00100704700BF00100040C0030020F3
:200C6000D001002030110040341100400C2801D001207047042A05D121B1034B1B680B608E
:200C800000207047022070474404002070B51B4CD4F85055EDB2032D82B028D0184B194882
:200CA000194AC4F804051949C3F8102501264FF00062C3F81415C3F80465C3F80425FFF710
:200CC00059FFD4F8003243F01003C4F80032D4F80032022D43F40023C4F8003209D00C4BE5
:200CE0000C4A002119601B680193019B166002B070BD094B1E6002B070BD00BF001000403C
:200D000000F00140C0030020381100404C80004058110040041000400810004070B52E4D35
:200D20002E492F4A2F4B00242C6084B02D680095009D0C6009680191019914601268029213
:200D4000294D029A1C602A781B680393531F7A2B039937D8941E2246691C0BF0C2FB2B19ED
:200D6000224E5B78224A3F2B9ABF9B00DBB2FF233370D2F848351F4A03F07F035B425BB245
:200D800099B20420137002F019FE3178032002F015FE194B2A7819491A74D1F84C055860BF
:200DA000D1F8481599605200DA605D680E4881220021023D1D600BF07DFBFFF767FF2046B8
:200DC00004B070BD8122214628460BF073FBFFF75DFF204604B070BD381100400C110040D2
:200DE0003411004030110040C0030020F721002000100040F8210020440400200080004021
:200E000010B50388044623B340F2C932934203D1822905D0012010BD00230380032010BD88
:200E2000114A1378053B7A2B13D8104B1B68ABB1FFF782FD02F06EFD02F026FD8021FFF744
:200E40006DFF002805DD80B202F018FD084BDB68984740F2C9332380012010BD92F8803075
:200E6000002BF6D0E4E700BFC0030020301100409CC800007D2910B50C4609D801460A48F8
:200E8000A31C00F8013B22460BF02BFB002010BD064A0749074803F079FF21467D2206483B
:200EA00003F074FF012010BD5804002008C6000018C600001CC600002CC6000030B5264C8B
:200EC000264A27480F23C4F8103593780A3B03EB8303C4F808351179D579937952791B0673
:200EE00043EA05230B4385B043EA0243002540F20222C4F86C362946C4F83425C4F8380552
:200F00000D226846C4F83C550BF0D4FA9DF802209DF801309DF804009DF80710120442EADA
:200F2000032242F0C06343F0080343EA805343EA4173C4F814359DF80A309DF809201B0467
:200F400043EA022343F07F0340F20122C4F81835C4F8502605B030BD00100040D001002017
:200F60002110010008B5064BD3F8FC2F22B90122C3F8FC2FFFF7A2FFFFF788FE012008BD5E
:200F80000010004030B585B0FFF7ECFF104A11491148124C0023136015680395039D0B60E5
:200FA0000D680295029D03600368019301230198236001E00B6813B91368002BFAD0044A06
:200FC000044B10681B68B0FA80F0400905B030BD48110040441100404C1100402C1000407B
:200FE00010B507284CD8DFE800F019214B4B402E35042D4A2D48C9B25171D0F8FC3F03B3C9
:201000001179D479937952791B0643EA04230B4343EA0243C0F86C36002010BD01293FD06D
:2010200081BB224BC3F8FC1F084610BDA1F10B030F2B27D81C4A1D4BC8B29070D3F8FC2FFF
:2010400012BB002010BD31F001001BD1164BC9B2D97010BD144A154BC9B25170D3F8FC2FE6
:20106000002AEED0C3F80C15EBE731F0070409D10D4BC1F380011970FFF77CFD204610BD1C
:20108000012010BD022010BD0A3901EB81010024C3F8FC4FC3F80815FFF764FF204610BD34
:2010A000FFF760FF002010BDD00100200010004010B57D2884B03FD8294CFFF753FFE378E0
:2010C000002B46D16378274A2749DBB20120C2F80C350860D2F85035DBB2022BFAD12349C1
:2010E000234BC2F8043500230B600868019001980B66086E029002988B648B6C0393039B3A
:20110000D2F80032012143F48023C2F800321160FFF74CFA6FF00204241AFFF747FAE04242
:20112000FBD4104AD2F85035DBB20B2BFAD0FFF7ADFD002004B010BD04460E4A0E490F4819
:2011400003F024FE21460E4803F020FE012004B010BDFFF717FF0028B4D10220EAE700BF9F
:20116000D0010020001000400C1000400C1100405804002008C6000018C600001CC600006B
:2011800060C6000010B50C46FFF774FE2046BDE81040FFF78DBF00BF10B51A491A481B4B5E
:2011A0001B4C00220A6002704A6022708A6082B0CA600A741A601A6800924FF08042012119
:2011C000009811601A68002AFCD000241C601B68019321460F48019B01F0C0FA21468122C8
:2011E0000D480BF067F90D4B0122C3F8FC2FFFF765FE0B4A1378DBB21370FFF7BBFC204682
:2012000002B010BD44040020F721002000010040F8210020C0010020C00300200010004021
:20122000D0010020074A1378053B7A2B07D8064B1B6813B992F880007047012070470020C4
:20124000704700BFC00300203011004000B585B000230390194601AA44F20100CDE90133E9
:2012600000F004F805B05DF804FB00BF72B6094B1B68DB0700D500BEBFF34F8F0649074B15
:20128000CA6802F4E0621343CB60BFF34F8F00BFFDE700BFF0ED00E000ED00E00400FA05E4
:2012A00072B6024A1368013313607047D8040020034A1368013B136003B962B6704700BF24
:2012C000D8040020054A13792BB90121106053711846117170478520704700BFDC0400204B
:2012E000084B1A68D20704D4C02283F8002301221A604FF08041044A0123C1F81835137050
:20130000704700BF00E100E0D82B002010B4094B094A0021196083B01B680193019C4FF048
:20132000804102200123C1F80403136003B05DF8044B70470401004008000040074B002264
:201340001A6082B01B68019301994FF080430122C3F804231A6002B0704700BF0001004046
:2013600010B5154B1A6882B07AB10021134A19601B68507900934FF080410123009CC1F81A
:20138000083310B91168537188470D4B1A6882B100221A601B6801934FF080420221074B07
:2013A0000198C2F808131B68012002B0BDE81040184702B010BD00BF00010040DC04002096
:2013C0000401004070B41E4D43791E4C45F8232003EB4303E35C7BBB8A7890F904305201D8
:2013E000002BD2B222DB03F1604303F5614383F8002390F90430002B07DB134D03F01F062E
:2014000001225B09B24045F8232003680A88C3F8082543790879C97803EB4303E21801251C
:2014200050709170E554002070BC7047074D03F00F031D442A76DCE7082070BC704700BFC8
:20144000E8040020E404002000E100E0FCEC00E00368044A01211960437903EB4303022188
:20146000D1547047E404002010B403680022C3F8002183B0D3F80031026801930123019C6D
:20148000C2F8443311B10268C2F8043303B05DF8044B70472DE9F041284E294FDFF8A480C0
:2014A00084B000244FF48035D6F80423E3192A42E0B24FEA83034FF0000104F101040CD018
:2014C0001A6852B1C6F84853C6F8085319601B680393D8F80030039A9847032C4FEA450555
:2014E000E2D1164BD3F80423D1070DD5D3F8002152B10022C3F80021124AD3F80031029352
:2015000004201368029A98470C4BD3F80423920710D5D3F804216AB10022C3F80421D3F812
:201520000421084B0192019A1B68052004B0BDE8F041184704B0BDE8F08100BF00B00040FB
:20154000502C0010E804002030B51F4C94F86A3083B0002B34D104F12F03204604F15F0138
:20156000FF2203F8012F8B42FBD14FF0FF3222600123072B88BFE11803F1010340F8042F9B
:2015800088BF81F858200C2BF3D1062200210F480AF090FF0E4BC02283F8062340221A6034
:2015A0000C4B0D4A002018601B680193019D01214FF0004384F86A10C2F8043303B030BD05
:2015C000082003B030BD00BFEC0400205005002000E100E07C61004000600040034B93F8A8
:2015E0006A00003018BF0120704700BFEC040020F0B44A4C231893F93050002D19DA8F782B
:20160000C7F340077FB9256A013566D00C26082303E054F8235001350ED00133B342F8D38F
:201620000420F0BC70472568013571D008260023F3E70820F0BC704726185DB244F823209D
:2016400086F83050002F4ED08B785A071AD4DE074DD41F284B7887BF314E00F01F020246BF
:201660004FF0A04602F5E0729B0046F822302D4EC20800F0070CB75C012303FA0CF33B43D8
:20168000B3548B780A7813F002030AD1083D2C44184694F8603043EA821284F86020F0BC43
:2016A0007047AB0003F1804303F5C0430002D3F8101521F44F3121F44071C3F810151204D3
:2016C00000F47C50D3F8101502F4403202430A43C3F810250020F0BC7047082683F83060B4
:2016E000226235463346234483F85800ACE71F2887BF0B4B00F01F0202464FF0A04303EB59
:201700008203D3F8002722F00202C3F80027AEE70025226083F8305096E700BFEC040020D7
:20172000000300505005002070B43A4D2E1883B096F93030072B20DD2B4493F858309B0979
:20174000032B45D0012B14BF4FF440314FF400311F284DD900F01F002F4B03EB8000D0F8F3
:20176000002722F44032C0F80027D0F800370B43C0F8003703B070BC7047DAB2072AF9D87B
:20178000980000F1804000F5C04003F14002D0F81045920092B244F0010402F18042C0F83C
:2017A000104502F5C04200200190019C10600029E0D096F9302055F82220002ADAD00122DF
:2017C000164902FA03F3C1F8043303B070BC70471F2810D9104BD3F8103500F01F00C34085
:2017E00013F0010F0CBF4FF400314FF44031B3E74FF0A043B1E74FF0A0421346D2F8102516
:20180000C24012F0010F14BF4FF440314FF40031A3E700BFEC04002000030050006000406D
:20182000194B034493F93030072B13DD1F288ABF164B4FF0A04300F01F0003EB8000D0F897
:20184000003723F44033C0F80037D0F80037C0F800377047DAB2072A14D810B49A0002F139
:20186000804202F5C0420A4CD2F81005012120F0010001FA03F3C2F81005C4F808335DF839
:20188000044B7047704700BFEC04002000030050006000402DE9F04F002289B01646CDE907
:2018A000022215466D4B6E4C6E48012204E0043383424FEA420211D019680129F7D1D4F8E1
:2018C00004130A42F3D01D60196800910433834246EA020600994FEA4202EDD1624B1A681C
:2018E000012A0FD100221A601B6801934FF0A042019BD2F810255D4B0292D3F8103503938C
:2019000046F0004616F0FF0F1AD0594F01250024A30003F180432E4203F5C0434FEA450513
:201920000BD0D3F8100557F82420D3F81015C0F30520C1F3014102B190470134082CE7D1F0
:20194000002E02DB09B0BDE8F08F00224FF0FF33484DCDE90422CDE90633A5F16408464C18
:201960000027012614F9013B5A1C32D0DBB223F0C00008AA4FEAD00E02EB0E0C03F007022C
:201980001CF8081C06FA02F2114222D008EB0009990999F9309058F82990B9F1000F3AD01A
:2019A00003293AD01F288BBFDFF8C0E04FF0A04E03F01F0303460EEB83031CF818ECD3F8FC
:2019C00000C71EEA020FCCF3014C1AD1BCF1030F2ED0A542C6D1002FB4D04FF0A043029985
:2019E000D3F81035214A9942D2F8102502D103999142A7D0DDE90401CDE90232CDE9060167
:201A0000ADE7BCF1020FE4D1032924D0B9F1000FDFD0C847DDE70329DBD10DF1100B0DF175
:201A2000100A1BF80EB04BEA020B0AF80EB0B9E70329EBD14FF4003CD3F8002722F4403238
:201A4000C3F80027D3F8002701374CEA0202FFB2C3F80027DAE74FF4403CEDE700610040B8
:201A600000600040206100407C61004000030050EC040020500500204C050020074B0849FC
:201A8000084A0020186082B01B680193019BD1F808051368C0B202B0184700BF00D10040D3
:201AA00000D000405805002010B5074C236882B03BB1064B1B689847002323602368019360
:201AC000019B02B010BD00BF000101405C05002070B5114B114A1C781160DCB9104E02781B
:201AE00001211970C6F80C25416805464FF47A720023C803490C0AF093FAC6F804052B7AF3
:201B0000084A5B01DBB282F810334FF480331360204670BD082070BDFA2100205C050020C0
:201B20000000014000E100E0044B054901220220C3F804231A600870704700BF0000014036
:201B4000FA21002010B504460020FFF7A9FB0D4B1A78072A10D8501C0B4922701870D1F8DB
:201B60000805012393400343C1F8083500240020FFF79EFB204610BD04240020FFF798FB4E
:201B8000204610BDF92100200000014000F5C070024B034A43F82020704700BF00000140A6
:201BA0003546526E10B54FF0804386B0D3F80443620705D5D3F8082103F58473002A4ED16C
:201BC000A30603D52A4B1A68002A3FD1600603D5284B1A68002A2FD1210602D5264B1A6805
:201BE0000ABBE20502D5254B1A6892B9A3050ED5234B1A685AB100221A601A68214B05927E
:201C0000059A1B68022006B0BDE81040184706B010BD00221A601B4A1B680493012013683C
:201C2000049A9847E2E700201860164A1B6803931368039A9847D4E700221A60124A1B6820
:201C4000029301201368029A9847C5E7002018600D4A1B6801931368019A9847B6E7002272
:201C60001A600A4A1B6800931368009A9847A7E714010040180100401C0100402001004092
:201C80002401004068050020640500206005002008B5FFF787FFBDE80840FFF761BB00BF4D
:201CA00010B44FF080414FF080520020C1F80C015E4BC1F81001C1F83805D2F80414C3F863
:201CC0002015D2F80814C3F82415D2F80C14C3F82815D2F81014C3F82C15D2F81414C3F87C
:201CE0003015D2F81814C3F83415D2F81C14C3F84015D2F82014C3F84415D2F82414C3F8CC
:201D00004815D2F82814C3F84C15D2F82C14C3F85015D2F83014C3F85415D2F83414C3F81B
:201D20006015D2F83814C3F86415D2F83C04C3F86805D2F840043E49C3F86C050968D2F8B6
:201D40004424C3F87025082924D04FF08043D3F80024D20744BF6FF00102C3F80024354A19
:201D6000D2F8883043F47003C2F88830BFF34F8FBFF36F8F4FF01023D3F80022002A23DBFE
:201D8000D3F80432002B1FDB2B4B2C4A1A605DF8044B70472A4B1B68002BD6D129482A4AAD
:201DA0002A4C04602A492B4BFB20C2F818050A681B68294822F00F0203F00F0313434FF447
:201DC00000720B600260C0E7244B0122C3F80425D3F80024002AFBD04FF0102312221F49B5
:201DE000C3F80022D1F80034002BFBD04FF0102212211A4BC2F80412D3F80024002AFBD056
:201E000000221649C3F80425D1F80034002BFBD0BFF34F8F0749124BCA6802F4E06213436D
:201E2000CB60BFF34F8F00BFFDE700BF00C000403001001000ED00E0D80100200090D0031B
:201E4000340100108C56004000F0004048810300E40E0040580200104096024000E001404A
:201E60000400FA0510B570B101280BD10D4C2369A0703BB1D3E900230120226198472369A5
:201E8000002BF7D110BD074CA36801226270002BF8D0D3E900230020A2609847A368002B26
:201EA000F7D1EFE76C05002038B50A4C23786BB909486360A3602361E360FFF703FA0546D5
:201EC000FFF70EFA01232370284638BD8525284638BD00BF6C050020651E000038B5154CBC
:201EE000A378054673B110B14368012098470020FFF7D6F9E3680133E3600020BDE8384008
:201F0000FFF7D6B903F0FF00FFF7CAF965B1226942B1954208D0134601E09D4204D01B68DE
:201F2000002BFAD12A602561E368002BE2D1FFF7EDF9DFE76C05002050B138B5054D0446B5
:201F400045F001054FF47A40A847013CFAD138BD704700BF50C500000649074A074B9B1A2B
:201F600003DD043BC858D050FBDCFFF799FEFEF78DF900005CCD000000000020880300202F
:201F8000FEE7FEE7FEE7FEE7FEE7FEE7FEE7FEE7FEE7FEE738B5664CFEF7ECF9FEF786FA61
:201FA00000F0AEFC00F0FCFB0021624800F0D6FB00F042F9FEF794FC00F012FA00F0C6FCB6
:201FC000FEF7E0F901F028F901F042FD00F010FB2368022B39DC0822574958480AF081FA4A
:201FE0000021574800F0BAFB4FF0FF3003F024FE2368022B054611DCFEF7F0F9514800F0A2
:20200000C5F8FEF791FC00F0E5FB0446FEF794FC14F0FF0FF7D1FEF7E7F9F4E74A4A4B4930
:202020004B4802F0B3FE4B4802F0B0FE2368022BE2DD002D7AD0A81C00F098F92368022B4C
:20204000DADD454802F0A2FED6E73F4A3F49404802F09CFE414802F099FE2368022BBADD67
:20206000394A3A493A4802F091FE3D4B3D48196802F08CFE2368022BADDD334A3349344896
:2020800002F084FE384B3948196802F07FFE2368022BA0DD2C4A2D492D4802F077FE344B5C
:2020A0003448196802F072FE2368022B93DD264A2649274802F06AFE4AF6CD312E4802F04B
:2020C00065FE2368022B86DD1F4A2049204802F05DFE1A21294802F059FE2368022B7FF7D8
:2020E0007AAF194A19491A4802F050FE244B2548198802F04BFE2368022B7FF76CAF124AF3
:202100001249134802F042FE1F4802F03FFE2368022B7FF760AF084800F038F92368022BDB
:202120007FF759AF0C4802F031FE54E7284683E7EC010020F001002080220020482400202D
:20214000C802002030CA00007CC6000084C600001CC600003CC70000CCC700008CC6000045
:20216000D0C90000B0C6000008C90000C0C600009CC80000CCC60000D8C60000F4C60000AB
:20218000C821002014C7000024C7000010B50446006830B1002100F0E1FA54F8040F0028A5
:2021A000F8D110BDF0B5038883B005465BB14A2B04D188291BD0012003B0F0BD00230380C2
:2021C000032003B0F0BD194800F0F0FC044630B1A168201D00F0C2F92468002CF8D1144B43
:2021E00001221A704A2301202B8003B0F0BD0F48019200F0DBFC04460028F3D0019A031DF8
:202200009A4205D02468231D002CEBD09A42F9D121460648074E00F013FDD4E90523376826
:2022200032600BB1E06998473760DBE780050020FB2100200C07002010B5064B0648002433
:202240001C7000F0AFFC21460448BDE8104000F085BA00BFFB21002080050020DC010020E3
:2022600070B50E4C049E257846610446C0E9062335B9A1600A482146BDE8704000F098BC9C
:20228000084D094B2E682B60043000F067F92E6021460348BDE8704000F08ABCFB210020E9
:2022A000800500200C070020DC01002010B5044C82B024680094FFF7D3FF02B010BD00BFDC
:2022C0000C07002070B5094B1B7804463BB1084D084B2E682B60043000F04AF92E60214664
:2022E0000548BDE8704000F063BC00BFFB2100200C070020DC0100208005002010B50A4B43
:202300001B7804463BB9C0E9033321460748BDE8104000F095BC043000F042F92146034810
:20232000BDE8104000F08CBCFB2100208005002038B50C4B1D7875B904460B4800F036FCC9
:2023400038B1A04202D10BE0844209D000680028FAD1012038BD0430BDE8384000F012B9D8
:20236000002038BDFB2100208005002000B58BB002462821684603F0ADFE6946024802F0AF
:2023800005FD0BB05DF804FB70C70000F8B1F8B5002405460F4E104F54B1E3070DD5295D1D
:2023A000304602F0F3FC072C10D00134002CF4D12978304602F0EAFCF7E7384602F0E6FC6E
:2023C000295D304602F0E2FC072CEED1F8BD034802F0DCBC88C7000084C7000074C70000E0
:2023E000704700BF10B5FEF791F80B4B1B68D3E900149A682144091A4AB1D2E900342344A0
:202400001B1A9268994228BF1946002AF5D1034B0844186010BD00BF880500208405002088
:202420002DE9F8430388054673B3592B27D1872930D082291ED12E4FDFF8BC803C684FF016
:202440000009BCB1002603E0A368264693B11C46204600F06DFA0028F6D022468821E068DC
:2024600000F014FA30B3404600F03CFAA3682646002BECD159232B800120BDE8F8830023E5
:2024800003800320BDE8F883194A136059232B800120F2E7164F39680029EBD0CB689A4286
:2024A00003D014E0CB68934210D189680029F9D13960DFE7E060A368BEB1B3603B68C4F8FD
:2024C00008907BB1FFF78EFF3C68BAE739608B68002BCFD0D3E90204944214BF1946886068
:2024E0000346F5E7034A1360C4E73B60E7E700BF8805002084050020F001002010B50446AE
:20250000104800F0EFF91049E3680A684BB142B194420FD0134601E09C420BD09B68002BB0
:20252000FAD10A4BA2601B68E3600C60BDE81040FFF758BF054B1B68E360BDE81040FFF744
:2025400051BF00BFF0010020880500200C070020014800F0C7B900BFF001002010B5044623
:2025600000F0D0F92046BDE81040FFF7C7BF00BF10B5044600F0CEF92046BDE81040FFF7F5
:20258000BDBF00BFC068B0FA80F04009704700BF024B1868003018BF0120704788050020A6
:2025A00010B5114B1A688242044613D072B19368984208BF134605D043B19A68A24201D0EF
:2025C0001346F9E7A2689A60FFF70CFF0023C4E9023310BD82681A60002AF5D1034B1A60CF
:2025E0000023C4E9023310BD8805002084050020034A04499079D37903EB00230B80704771
:2026000080220020C821002010B541600446FDF799FF206010BD00BF10B50446FDF792FF13
:20262000D4E90031034A0B44C01A90428CBF0020012010BDFEFFFF7F2DE9F843254F3D6826
:20264000854208D0002D3BD02B4601E0002B37D01B689842FAD1002832D01F4E837BD6F894
:20266000008089460446E3B10023837375B1AC4209D0AB7B13F0010F284622464FF0870151
:2026800001D000F02BF82D68002DF0D1A3683BB14C4505D034600022832104F10C0098473C
:2026A0003D68A54212D04DB12B68A3420AD02BB11A68A24207D01346002BF9D1C6F80080B7
:2026C000BDE8F8832B4622681A60F7E72B683B60F4E700BF100700200C07002070B5866842
:2026E0007EB104460A4802230460A37304F10C000D46B0470238012804D9832D02D001233F
:20270000A37370BD21462046BDE87040FFF794BF0C07002038B50B4A0B4B146800221A7018
:202720007CB1012501E024685CB1E37B002BFAD0E581204600228221FFF7D0FF2468002C6B
:20274000F3D138BD10070020FF210020024B1878421C1A70704700BFFD21002070B50E4D50
:202760002C68844206D034B1234600E01BB11B689842FBD170BD0028FCD0084E04600A46DB
:202780000023012181733468838181212860FFF7A5FF346070BD00BF100700200C070020B2
:2027A00030B4074B07480849084A094C8A251D70002303700B601360237030BC704700BFF7
:2027C000FD210020FE210020100700200C070020FC2100202DE9F041224D2B780BB1FFF7CA
:2027E00099FF214E3378BBB12048214F027802EB420189007C18013202F01F02013B027028
:20280000A0687F5CD4F80480DBB2337040B1812F1DD0827BD2071CD428781844BDE8F081EF
:20282000144A14682CB9F7E7A37BD90709D424689CB12B78002BF7D0FFF76CFFA37BD90753
:20284000F5D5424639462046FFF748FFEFE70123837342463946FFF741FF33782878184430
:20286000BDE8F081FF210020FE210020FC2100208C05002010070020024A034B10781B78E9
:2028800018447047FE210020FF21002070B40C4D2C78202C11D00B4B0B4E1B78234403F0BC
:2028A0001F0303EB43039B0001342C70F418C4E90120F154002070BC7047012070BC704730
:2028C000FE210020FC2100208C05002038B5837B034CDB07256801D5FFF700FF256038BDDD
:2028E0000C07002018B1837B013B012B00D97047024A01231370C373704700BFFF21002007
:20290000FDF726BE10B541600446FDF7FFFD206010BD00BF10B50446FDF7F8FDD4E900215D
:20292000C2F101031844884284BF5218226010BD10B50446FDF7EAFDD4E90032C3F101032D
:20294000184482422CBF0020012010BD82B002AA074B42F8043D9A4204D9CD2103F8011BF5
:202960009342FBD10348002102B0FFF7F7BE00BFE02B00200002002038B5124C124DFDF743
:20298000DBFF2378CD2B08D0AC4202D315E0AC4213D014F8013FCD2BF9D1AC4202D30CE0AC
:2029A000AC420AD014F8013FCD2BF9D0FDF7C4FFAC4238BF281B02D238BDFDF7BDFF4FF0AB
:2029C000FF3038BDE02B00200000042070B5038804465BB1912B05D11F48FFF7D3FD70B996
:2029E000012070BD00230380032070BD4FF4A0611948FFF7B3FD91232380012070BDFFF7AD
:202A0000BBFF164D164B061EA5EB030515DB002D13DBAE420DDD134B1B68002B09DD124A49
:202A20001249134802F0B2F92A463146114802F0ADF90948FFF79CFDDDE70A4B1B68002BC4
:202A4000F7DD094A09490A4802F0A0F92A463146094802F09BF9ECE7140700200000042030
:202A6000E02B0020EC0100209CC7000018C600001CC60000D0C70000A4C700000023013A9B
:202A80000160027143718371704700BF10B4817942790479521A224208D003464A1C00688F
:202AA0002240405C9A715DF8044B70474FF0FF30F9E700BF2DE9F0410488772C06462FD0E4
:202AC0007E2C26D024B1002303800320BDE8F0812E4F2F4DFFF73AFE2E4B3A6818702C604C
:202AE00082B123462C4C984604F8038000219368802098472B6801332B6057F82320002ABC
:202B0000F2D1DAB2254B1A70772333800120BDE8F081204B1B788B421CD00120BDE8F081FA
:202B2000DFF878801A4D98F800201D4F00233B602B60002AE8D0184CE256002A18DB2B68CC
:202B400098F80020013393422B60F5DB3B68002BECD1D9E70E4D104CDFF84080104F2B68D6
:202B60003A68E15C013201F07F01E1543A60E7E7064A084952F8232009780020FFF786FEEC
:202B80000028ECD17E23338001209FE7B801002028070020D92B0020502200200022002035
:202BA0002407002000230360704700BF0068704710B404685CB1A1421ED023680BB906E06C
:202BC0001346994214D01A681C46002AF8D100230B6002680AB907E01A461368002BFBD192
:202BE00011605DF8044B704701605DF8044B70470B6814B12360EAE70B680360E7E700BF5E
:202C000030B4046864B1A14217D0236825460BB906E01346994207D01A681D46002AF8D102
:202C20000C60016030BC70470B682B6000230B6004680C60016030BC70470B680360F5E70A
:202C400010B404685CB18C4213D023680BB906E013468B421A6805D01C46002AF8D15DF82A
:202C6000044B70473CB1226000221A605DF8044B7047226823460260F6E700BF03682BB1B0
:202C800000201B680130002BFBD170471846704700B10068704700BF10B50446428840688D
:202CA000002109F007FC23886288A06802FB03F20021BDE8104009F0FDBB00BF30B4458831
:202CC000BDB141680B7863B14A1C002302E00C78013234B10133AB421146F8D1002030BCF2
:202CE000704701220A700588806803FB050030BC70472846F3E700BF30B44488826854B1BF
:202D00008A420CD00588002301E0914208D00133A3422A44F9D14FF0FF3030BC704700234A
:202D20004268D15C0029F6D00020D05430BC704783688B4208D84288008800FB023081420C
:202D40002CBF00200120704700207047418849B143680020194413F8012B02B901308B42DE
:202D6000F9D170470846704708B509F0FDFA80B208BD00BF0F4B0121002219601946C3F839
:202D80000021D1F80031002BFBD0D1F80805094A0023C0B2C1F80031D2F80031002BFBD089
:202DA000D2F80815012340EA012080B2536009F0B7BA00BF00D0004010B590F84C10094AA3
:202DC000013180F84C100446034680212030FFF76DFA054B224619780020BDE81040FFF7B8
:202DE00055BD00BFB92D0000DB2B00202DE9F0410388044663B1B3F5867F04D182290DD0BC
:202E00000120BDE8F081002303800320BDE8F0814FF4867323800120BDE8F081FDF798FDFD
:202E2000BFF35F8F1649174B0E6800220A601F781A70FFB2BFF35F8F134DFDF78DFD28684F
:202E40000028E5D0DFF8448003E055F8040F0028DED090F8463026FA03F3DA07F5D590F89A
:202E6000453047FA03F3DB07EFD5FFF761FA0028EBD02B68424618460221FFF717FAE4E75E
:202E80003C07002001220020A4010020E92E000010B4084A084C1368194311602178012242
:202EA00002FA00F30B43DBB2237004485DF8044BFFF718BD3C070020012200202002002012
:202EC00010B5044690F8461090F84500FDF79CFD10B994F8440010BD01280ABF94F8440083
:202EE000002080F0010010BD70B50446FFF720FA00B970BD04F120052846FFF719FA064632
:202F00002046FFF7DDFF01280ED00028F1D1002EEFD12846FFF7F2F90D4B22463046197884
:202F2000BDE87040FFF7B2BC002EE2D000262846234684F84C60074A7E21FFF7B7F9064BEC
:202F4000304622461978BDE87040FFF79FBC00BFDA2B0020B92D0000DC2B0020F8B5FFF7C8
:202F6000F5FB314B314C1870FFF7F0FB304B314F1870FFF7EBFB30492268304B0870002585
:202F8000FF2139727B60FD60002A43D02C4E05E0FF2834D054F8042F002A3BD092F84630B3
:202FA00092F84510926C03F01F0343EA41131F2BC6BF03F01F0331464FF0A04103F5E073D8
:202FC00042F08C0241F82350236893F8461093F84500FDF7D7FC226892F8463092F8450029
:202FE00003F01F0343EA40100121FEF79DFB2168387A91F8452082424FF00103C8D191F83E
:203000004600F9683A72834054F8042F0B43FB60002AC3D10B480021FFF7A0FB0548BDE8BD
:20302000F84000F0CDB800BFDC2B0020A4010020DA2B00202C070020DB2B0020912E0000DB
:203040000003005020020020F8B50488672C07460BD0792C04D0E4B1002303800320F8BD5B
:20306000852934D11D4E002333601D4D1B4C06E00A28236814D00D2812D07E2B29DD2846F0
:20308000FFF704FD431C2646F2D167233B800120F8BDFFF75BFB134A104B10701C60E4E7C5
:2030A0001148104900250246C5540978013328462360FFF7EBFB0D4B2A4618688521FFF772
:2030C000E5FB0028CFD179233B800120F8BD0120F8BD05495A1CC8542260D0E7C007002045
:2030E000C4070020DD2B0020400700200C07002008B5054905488022FFF7C0FC002104480A
:20310000BDE80840FFF72ABBCC070020C407002030020020F0B41749174F0022012640FACA
:2031200002F3DB0712D50B784D788C7803F01F0343EA45138CB11F2BC6BF03F01F033C4648
:203140004FF0A04406FA03F3C4F808350132042A01F10301E3D1F0BC70471F2BC6BF03F02D
:203160001F033C464FF0A04406FA03F3C4F80C35ECE700BF5CC50000000300500E4A30B453
:203180000E4D02F10C0403201378517803F01F0343EA41131F2BC6BF03F01F0329464FF032
:2031A000A04103F5E0730332944241F82300EBD10F2030BCFFF7AEBF5CC5000000030050CE
:2031C00001460148FFF7F4BC4C08002070B505460B480E46FFF7EAFC88B1044601E0246862
:2031E0006CB1237AAB42FAD1E16831402846F6D06368002BF3D098472468002CF1D170BD30
:203200004C08002008B50348FFF7CCFCBDE80840FDF7AEBB4C08002008B50448FFF73CFD7E
:203220000348BDE80840FFF737BD00BF4C020020400200200148FFF789BD00BF4002002037
:2032400038B50E48FFF73AFD044678B10C48FFF735FD0546206058B100F0A4FA05F19C011A
:20326000A5F8800005F1820000F084FB204638BD214602482C46FFF73FFDF7E7400200205A
:203280004C020020006800F19C01823000F072BB10B5014604460748FFF74AFD00B910BD93
:2032A00021680548FFF728FD21460248BDE81040FFF722BD400200204C02002010B50146C6
:2032C00004460948FFF734FD00B910BD2468B4F88010204600F02EFB04F19C0104F1820056
:2032E000BDE8104000F058BB4002002038B50F4D002818BF05460E48FFF758FC58B10446EE
:20330000211D284600F0BAFB40B92046FFF7C0FC04460028F4D14FF0FF3038BD054A064B11
:203320009068241AA01003FB00F038BD24C80000100E002058020020ABAAAAAA2DE9F0472A
:20334000224CDFF89C80DFF88C90214E05460F4604F1200A54F8043FCBB19A68BAB1B5B10D
:20336000D9F80810691A4FEAA10C0C3106FB0CFC0DD0D868596801FB0C01084639B118F886
:203380000C101B6841FA03F3DB0700D590475445E0D1C5B10F4A0E4B9268AA1A921003FBFF
:2033A00002F30D490D480022CA54294608F80320FFF746FC0FB9BDE8F08729460548BDE81E
:2033C000F047FFF799BC4FF0FF33EAE7DC0D0020ABAAAAAA58020020000E0020100E002091
:2033E000E80E002010B10368072B0ED90C4A1368072B12D830B40B4C03605D1C8160156018
:2034000044F82300012030BC7047064A52F823309842EBD18160012070470020704700BFB7
:20342000E40E0020E00D0020F8B5184F184D194C064626B309B3F3687068C91A91FBF0F12B
:203440004A1C01EB410118D0B86800EB8100FFF71FFC88B1B968401A83100C3005FB03F3DA
:2034600012D07168F06801FB030121B1E35C32681341DB07DDD50846F8BD0020E7E730463F
:20348000FFF706FC3046F8BD0020F5E758020020ABAAAAAAE80E002010B504461048FFF777
:2034A00085FBB8B1B4B10F4B9968401A10F10C0F10D00D4B6268E168801003FB00F002FB27
:2034C000001141B1094B22681B5C1341DB0702D5084610BD00212046BDE81040FFF7A4BF97
:2034E000100E002058020020ABAAAAAAE80E002010B504460846FFF7F9FE84B1431C0ED099
:203500006368E26803FB002353B1064A2168125C0A4112F0010F08BF0023184610BD002395
:20352000184610BDE80E00202DE9F84315460E46FFF7DEFF28B10024012005B12C60BDE872
:20354000F88304463046FFF7D1FE0130F3D11748FFF7FCFB0028EEDC1548FFF727FB064677
:2035600010B3DFF85490DFF84480124F07E005F0FDF804463046FFF78BFB064680B1D8F877
:203580000830F31A9B1007FB03F3321D19F80330002BEFD111462046002CE8D11446E9E7F9
:2035A000201C18BF0120C8E70446C6E758020020100E0020ABAAAAAA000E00202DE9F0415B
:2035C00082B0002845D0344B0D46002908BF1D46294601AA0646FFF7A7FF002839D02846B6
:2035E000FFF784FE441C1AD07268F46800FB02442046002108F05EFF5CB3F3687268E31A75
:2036000093FBF2F35A1C06D024493568C85C0122AA400243CA54204602B0BDE8F081204FB0
:20362000DDF804803846FFF749FB0446B0B121461C48FFF7BDFABB682946201DE51A00F098
:2036400019FA15F10C0F22D100217268084608F031FF0024204602B0BDE8F081B8F1000FC8
:20366000F7D04046FFF742FE411C0BD0BC6800EB400004EB800420460021FFF75FFE002CC7
:20368000D5D1E6E721462046FFF758FEC3E70648AC1000FB04F0A7E724C80000E80E00206B
:2036A00058020020100E0020ABAAAAAA28B311B3C26843688A1A92FBF3F2531C1BD070B4A1
:2036C0000F4E0568B45C012303FA05F524EA0504B454C2684468891A91FBF4F14A1C0DD0A9
:2036E000084C0068625C03FA00F022EA00026254184670BC70470020704770471846F8E793
:20370000E80E0020000E0020A8B191B1C2684368891A91FBF3F14B1C0BD010B4064A036821
:20372000545C012000FA03F3234353545DF8044B7047002070477047000E0020B0B199B1F9
:20374000C2684368891A91FBF3F14B1C0CD010B4074C0268635C012000FA02F223EA0203DD
:2037600063545DF8044B704700207047704700BF000E002088B179B1C3684068C91A91FB17
:20378000F0F14B1C0AD0064B986801EB410110EB810101D0081D7047084670470020704782
:2037A00058020020F8B50E4D0E4C2A7823881344802B01DD0020F8BD0B4F3946064608F00E
:2037C00090FE0A4B287819782288014457FA81F1304408F086FE287823881844F8BD00BF18
:2037E00002220020CA210020F80E0020CC21002070B4134B134C144A21781B7812880B44F3
:2038000052FA83F39BB21A18802A16DC013B1BB2002B0DDB0D4D1A1801325E1C2A4435448F
:20382000013B15F8016D02F8016D1BB25E1CF7D108442070012070BC7047002070BC704777
:20384000CC21002002220020CA210020F80E0020084A138883420BDB10B407490C8880B274
:203860001B1A20440880138001205DF8044B704700207047CA210020CC210020014B188045
:20388000704700BFCA210020044A054B12781B780448134450FA83F0704700BFCC21002009
:2038A00002220020F80E002000487047F80E0020014B1888704700BFCA2100200549064A6E
:2038C000064B127808781B88104453FA80F080B2704700BF02220020CC210020CA210020D5
:2038E00038B5094D094C0A481A22002108F0E2FD2946204600F0BEF8294604F10800BDE81E
:20390000384000F0B7B800BF24C80000542200206422002004480549054A002303800B80CF
:203920001370FFF7DDBF00BFCC210020CA21002002220020F8B5802928BF8021094A0A4DCF
:203940000A4F0C460023064613703B802B80FFF7C7FF31462246064808F0C3FD2C802046B1
:20396000F8BD00BF02220020CA210020CC210020F80E002010B51A220C46054908F0B1FD0A
:20398000204610220349BDE8104008F0AABD00BF642200205422002010B51A220C4601465A
:2039A000044808F09EFD214610220348BDE8104008F097BD6422002054220020024B23F85F
:2039C00010100120704700BF64220020014B33F8100070476422002008B5044B0D3803EB67
:2039E000C00000F047F8012008BD00BF54220020024B0D3803EBC000704700BF5422002051
:203A00000149024800F03AB824C800005C22002070B505460D480E46FFF7C8F868B1044674
:203A2000012D0CD01DB963680BB1984730B92046FFF72EF904460028F2D1002070BDA36847
:203A40003046002BF3D09847F0E700BF780F0020054B10B51B689847044B5B689847044B2F
:203A6000BDE810405B681847D0C500009CC8000008C90000082208F034BD00BF08B50822AC
:203A800008F020FDB0FA80F0400908BD10B50948FEF718FC0848FFF7FFFC48B1064C037AC1
:203AA0005B08037201462046FFF7BEFC0028F6D110BD00BF88220020640200200146014876
:203AC000FFF716BD6402002080B110B50446FCF71DFD2368C01AB0F5963F05D2207A0328CF
:203AE00094BF0020012010BD002010BD0020704770B506461546B1B1022902D006293CD03B
:203B000070BD01463448FFF7F3FC04460028F7D0FCF7FCFC237A20602B44102BA8BF10234B
:203B200023720C350EE001462B48FFF7E1FC044660B3FCF7EBFC237A20602B44102BA8BFCF
:203B400010232372FCF7E2FC2368C01AED01B0F5963FADB217D2237A042B35BF19220A2290
:203B60004B205A20A3881D4902FB05F500FB0353A1FB03235B09A38070BD0146BDE8704075
:203B80001548FFF7B5BC19224B20EBE72346314608221148FFF712FD04460028B0D0B0F9E6
:203BA0000630B3B16FF03B029342A8BF13466FF058029342B8BF13465A334FF4706292FBAD
:203BC000F3F39BB2B3F5C07F28BF4FF4C073A380AFE74FF48073FAE7640200201F85EB5138
:203BE00038B505460420FFF7F1FE294604B21B48FFF77EFC70B1C188194B04EB84046200E5
:203C00005A2411FB042283FB0213D217C2EB6312C28038BD0346294608221048FFF7CEFC25
:203C20000028F6D0C480B4B16FF03B0294426FF05803A8BF14469C42B8BF1C465A344FF478
:203C4000706393FBF4F4A4B2B4F5C07F28BF4FF4C074848038BD4FF48074FAE764020020E8
:203C60001F85EB5138B50948FFF716FC60B1074D044621462846FFF719FD21462846FFF7C3
:203C8000D3FB04460028F4D138BD00BF6402002010B500210548FFF7A5FB0023044A05485E
:203CA0004FF4E131BDE81040FEF700BB640200208D3A000088220020F8B5FCF727FC114ED1
:203CC00007463446002502E00135102D10D00D20FFF78EFE2146FFF7D1FE10340028F3D0B9
:203CE000072006EB0515FFF771FE2B7B834201D00020F8BDA868381AB0F5206F8CBF00201B
:203D00000120F8BD3C100020F8B5184E00243746354602E0102B1C4625D00D20FFF768FE35
:203D20002946FFF7ABFE1035631C0028F2D054B107EB0410A0F110042146102208F0D1FBBA
:203D4000B4422046F6D10720FFF740FE3873FCF7DDFBB8600D20FFF74BFEBDE8F8400146C7
:203D60000248FFF787BE0F24E2E700BF3C10002040B130B40D460446114628461A46234697
:203D800030BC1847704700BF30B591B0FFF77CFD0446FFF78DFD6A460146204600F08CFA30
:203DA00000283ED00446FFF753FDD0B39DF810100C20FFF703FE9DF813100820FFF7FEFD11
:203DC0009DF817308BB1BDF81C5000F0E1F8854205D0BDF81C204FF6FF739A4221D1694620
:203DE0009DF8170000F088F9B0B102A90D20FFF7F3FD9DF815303BB14FF6FF710720FFF7EF
:203E0000DDFD204611B030BD9DF81A100720FFF7D5FD204611B030BD69460E20FFF7DCFD46
:203E2000E3E74FF0FF34ECE7F8B505460C2014460E46A84700232074A37486BB0820A8478C
:203E40006675E0740920A847002701232376A07567740720A847A07600F09AF8E0830A200C
:203E6000A847012816BF03236776637600F090F8A0830B20A84701280DD03EB90323E37549
:203E8000637E022B04D000232375F8BD0223E37501232375F8BD0023E375637EF1E7E37457
:203EA0006375CFE730B591B0044600F071F84FF6FF7398425BD040226846002108F0FAFAD2
:203EC0002C4B1A7822B35CBBFFF79AFD6A46C1B22948FFF7A9FFFFF793FD00283CD04FF62F
:203EE000FF73ADF800300D20FFF782FD014602A8FFF7C0FDFFF7C8FC0E90FFF7D9FC0F9073
:203F0000684600F009F90546D4B9284611B030BD01221A70FEF728FF184B1870002CD3D08A
:203F20000720FFF753FD0028CED1144D2978D9B189B20720FFF742FD2B7801332B70C3E70E
:203F4000FFF756FC98B1FFF7AFFC0146684600F02FF9284611B030BD0E20FFF749FD014655
:203F60006846FFF787FDBEE701212970E1E74FF0FF35CAE703220020CD390000042200203C
:203F80000120FFF78FBF00BF0020FFF78BBF00BF014B1888704700BF7803002010B3037AA1
:203FA000022B30B410D00378022B1CD00379EBB10024C37913F0030318BF012301B10C60E2
:203FC00002B1136030BC7047C579447A03799DB90CB9012BF2D033B9023C012C8CBF0024D1
:203FE0000124EBE7704700231C46E7E7447A14F0030418BF0124DCE784B9DBB1032DF2D07D
:20400000022DF0D0002BEED1022D17D0032D1FD1A4F10204B4FA84F46409CFE7032D13D199
:20402000032C17D0022CEDD18BB9022D16D101231C46C3E7022D08BF01230FD1A4F103045E
:20404000B4FA84F46409B9E7022DEBD143B101230024B3E7002BC6D10123D9E70123D5E7E6
:20406000022C4FF00103E9D11C46A7E730B504460D46084683B00021062208F01BFA637DEC
:20408000D9075CBF01232B70237E012B23D901AA694604F11000FFF781FF009B0BB102234C
:2040A000EB70019B0BB102236B70E37D03F00303022B03D0032B0CBF08230023AB70637EB1
:2040C00003F00303022B03D0032B0CBF082300232B7103B030BDE37D9A0706D0637E9B070A
:2040E00003D0E28BA38B9A4202D000232375CEE701232375CBE700BF02280CBF02230823C2
:204100000B4403E013F8012DFF2A03D18B42F9D1012070470020704730B583B06946FFF734
:20412000A5FF9DF800309DF801509DF802409DF803109DF804209DF8050002332B44234453
:204140000B441344184403B030BD00BF70B4437882780578C478DB00120102F0100203F087
:2041600008031343027905F0070564012B4304F020049201234302F0400213430B704379BD
:204180008579467AC479027A03F001036D0043EA861305F00205A0002B4300F00C00120165
:2041A000034302F0300213434B7070BC704700BF70B582B00C4606466946FFF757FF21468B
:2041C00006F11000FFF7C2FF9DF800309DF80120012B05BFB37EA37002230323022A08D122
:2041E000B28BE2545A1CB18BD2B2090A0233A154DBB29DF8025045B36A1E1D443244EDB26F
:2042000012F80119E1540133DBB2AB42F8D19DF80330022B08D1F38B63556B1CF28BDBB239
:20422000120A0235E254EDB29DF804207AB1D31D2A443344D2B2681CC0B213F80119615548
:2042400082420546F7D102B070BD1D46DFE7284602B070BD70B50278437884B002F00704A7
:204260000846C2F30011C2F3C0058DF804408DF80610C2F34014C3F34001C2F380128DF880
:20428000055003F001068DF80740C3F381058DF80820C3F301148DF80A109B090A2201A936
:2042A0008DF809608DF80B508DF80C408DF80D3008F017F904B070BD01294BDD2DE9F0411B
:2042C00086B014460F4603A90546FFF7C3FF03A90A2204F1100008F004F99DF81130002B77
:2042E00034D0AE1C03A802AA01A9FFF757FE9DF81380B8F1000F39D0029B6BBBA383B8F129
:20430000020F5FD0B8F1030F43D09DF81580B8F1000F36D0019B33B3717816F8023B029A55
:2043200003EB01239BB2E38302B9A383B8F1020F52D0B8F1030F38D0701B3B1A8742C4E9E2
:204340000E6300DA002006B0BDE8F081AB78A376EE1CC7E700207047727816F8023B03EB38
:204360000223A383CBE7A38BE383DFE720492046FFF780FBA4F81C809DF81580B8F1000F8C
:20438000C8D11B4904F10800FFF774FBA4F81E80D2E706F108000346621E13F8011D02F8E0
:2043A000011F9E42F9D10646AFE706F10800034604F1080213F8011D02F8011B9E42F9D121
:2043C0000646B9E70A492046FFF754FB7378237016F8023B637098E7054904F10800FFF797
:2043E00049FB7378237216F8023B6372A4E700BF24C80000074A084913681844884202D886
:20440000106018467047054B0C221A604FF0FF33184670477402002000000420D42B0020C0
:20442000102970B50C46054613D90C4E01E0102C08D9D5E90030102231469847103C002853
:20444000F5D070BD2246D5E900300449BDE8704018470029F6D1084670BD00BF38C80000E9
:204460002DE9F04F82468FB0894690464FF0000B99F80030002B00F0E180252B08BF4D460A
:204480001BD04C4603E0252B00F0DC802C466378651C002BF7D14D4500F0D080A5EB0906EE
:2044A00049463246DAE900309847002840F056816378B344002B00F0C1806A7805F10109E4
:2044C000002A00F0BB800021A2F12003102B1BD8DFE803F0171A1A141A1A1A1A1A1A1A11A2
:2044E0001A0E1A1A090041F0100119F8012FEBE741F00101F9E741F00601F6E741F00801A0
:20450000F3E741F00201F0E7A2F13103082B40F2B3802A2A00F0C88000242E2A00F09F8040
:204520004FF0FF336C2A00F09180682A00F0B2807A2A05D199F8012041F0600109F10109FD
:20454000782A00F29A81DFE812F07900980198019801980198019801980198019801980170
:204560009801980198019801980198019801980198019801980198019801980198019801AB
:2045800098019801980198019801980198019801980198016E0198019801980198019801B5
:2045A00098019801980198019801980198019801980198019801980198019801980198016B
:2045C000980198019801980198019801670198019801980160015901520198019801980139
:2045E00098019801980198019801980198019801980198019801980198014B019801980178
:20460000980198019801980198019801440198013D0136012F010E01DB009801360198012E
:20462000980198019801D20091018A0198019801830198017C0198019801750158460FB0EF
:20464000BDE8F08F4D457FF429AF36E799F801206C2A36D009F1010941F0600170E799F870
:204660000120A2F13003092B09F1010030D92A2A00F0B081814653E7002404EB840402EB1D
:20468000440419F8012FA2F13003092BA4F13004F3D942E799F80120682A00F0948109F196
:2046A000010941F040014BE7D8F8004099F80120002C08F10408B8BF41F0010109F10109AB
:2046C0002BE799F8022041F0800109F1020937E7002303EB830302EB430310F8012FA2F1AB
:2046E0003005092DA3F13003F3D981461AE709F10109D8F8003008F10408C3F800B0B7E6E3
:2047000001F4E06242F4007241F48137B2F5806F09F1010932D040F2B480B2F5C06F00F005
:204720004781B2F5E06FE4D0B2F5A06F7FF4A0AE012CD8F800308DF8203038BF0124FB0770
:2047400004F1FF3408F1040840F1F982DAE90030012208A99847002800F0F5814FF0FF30DE
:204760000FB0BDE8F08F01F4E06242F40072B2F5806F41F4007709F10109CCD1D8F8006064
:2047800008F10408002E00F0DB8135782DB1354615F8012F002AFBD1AD1B002BC0F2A88094
:2047A0009D4228BF1D46A3E001F4E06242F4007241F40247AAE701F4E06242F4807241F4CB
:2047C0002457A3E701F4E06242F4A06241F4A0679CE701F4E06242F4007241F4C13795E71E
:2047E00001F4E06242F4807241F4B2478EE701F4E06242F4007241F4A13787E701F4E06226
:2048000042F4007241F4844780E701F4E06242F4007241F4424779E701F4E06242F40072AD
:2048200041F4E13772E701F4E06242F4C06241F4C0676BE701F4E06242F4807241F4C857E2
:2048400064E701F4E06242F4807241F410675DE701F4E06242F4806241F4806756E701F421
:20486000E06242F4407241F440774FE701F4E06242F4807241F4885748E701F4E0620F46BE
:2048800044E7B2F5807F4CD0B2F5407F7FF4F0ADC34BD8F80010C34E17F4804F18BF1E46A1
:2048A00008F104080A4600230DF1330E002900F09A807146100902F00F0C40EA03701D096E
:2048C00002462B4616F80C0001F8010D52EA0300F0D1BEEB010500F0878003357823302233
:2048E00001F8013C232301F8022C01F8033CCE1EAC428CBF641B0024FA0740F1EC813146FF
:20490000DAE900302A46984700287FF427AF21465046AB44FFF784FD00287FF41FAFA34431
:20492000A6E5002BACBF27F01007012317F400520393069207F0E0035CD0402B00F0ED81AA
:2049400000F20C81002B00F0B481202B40F0EB8198F9002008F10408D317002A73F1000172
:20496000C0F2B181CDE904230023079307F4C053B3F5805F57D10DF136030193DDE9042344
:20498000134300F0BB81DDE90423019DD00840EA437002F00701DE0830310246334605F856
:2049A000011D52EA0301F1D1019B5B1B019346E0DAE9003001227C49984700287FF4CEAE3A
:2049C0000BF1010B54E599F8022041F0200109F10209B5E599F80220D8F8003009F102093A
:2049E00008F104089EE57146302301F8013C0425013973E7402B00F0998100F2BE80002B62
:204A000000F04C81202B40F0818198F800200023CDE90423069B079308F1040807F4C0535E
:204A2000B3F5805FA7D0B3F5C05F00F00781B3F5006F00F0DC8000230DF13605019301994C
:204A4000039841F60803814203EA070341F20802C0F0B980934200F01681002203910292F3
:204A600041F60802934240F0AB80DDE90423134300F0A6804D4A4E4B17F4804F08BF134642
:204A800004930226069B7BB1079B002B40F0F78007F00603022B00F03581464A062B049BE3
:204AA00004BF134601260493039B33449C428CBFE41A002417F00103039306D1F90640F114
:204AC000E580029A224402921C46DAE900303EB104993246984700287FF440AEDAE9003027
:204AE000029F019A102F934440F22381102232499847103F00287FF431AE102FDAE9003007
:204B0000F4D83A462C49984700287FF427AEDAE90030019A2946B344984700287FF41EAE4B
:204B2000029B5B449B46039B002B3FF4F8AE21465046FFF775FC00287FF410AEA34497E497
:204B40001E4E062529E6214650460BF1010BFFF767FC00287FF402AEA34489E4602B00F037
:204B6000A880802B40F0DF8008F1070828F00708D8E9002308F10808EFE6602B00F08E8059
:204B8000802B40F0C38008F1070323F0070303F10808D3E90023CDE90423069B07933DE7B8
:204BA00058C800006CC8000098C8000084C8000080C800008CC8000048C8000090C80000F1
:204BC000002604965EE7039901989342A1EB000102917FF445AF00290B4608BF0123029345
:204BE000DDE9013200261344049603934AE7DDE904230DF1360552EA030101957ED0CDF8CF
:204C000008B01646BB461F46304639460A22002307F006FA30323046394605F8012D00233A
:204C20000A2207F0FDF906460F4656EA0703EBD15F46DDE9013B5B1B019300E74A4B4B4EEE
:204C400017F4804F18BF1E46DDE904230DF1360552EA0301019551D0110902F00F0C41EAD0
:204C6000037118090A46034616F80C1005F8011D52EA0301F0D1019B5B1B0193DFE63C4BCE
:204C80000493012610E701230293A9E721465046FFF7C6FB00283FF418AF5FE5069A0792C3
:204CA000D8F800300022194608F10408CDE90412B4E6D8F80020D317002A73F1000108F1A6
:204CC0000408BFF64FAE524263EB4303CDE9042301230793A2E621465046FFF7A1FB002814
:204CE0007FF43CAD3146DAE900302A46984700287FF434ADAB44A344FFF7BABB0023019D21
:204D000001939CE61B4B04930126CDE60023079300220023CDE9042380E6B8F9002008F197
:204D20000408D31719E6002200231BE6B8F800206DE6029A002A3FF4ECAE1746E1E62146F7
:204D40005046FFF76DFB00287FF408AD0122DAE9003008A99344984700287FF4FFACA34465
:204D6000A344FFF785BB00BF58C800006CC8000088C80000B4CA00000AB90020704708B5DE
:204D800008461146FBF778FB002008BD0FB400B583B004AA054852F8041B0192FFF760FB31
:204DA00003B05DF804EB04B0704700BF7802002038B54368934294BF03F1FF3515460446AB
:204DC0002A46006807F08DFBD4E900232A445D1BC4E90025002038BD0CB410B586B008AB61
:204DE000029053F8040B094C03911A460146019304A802ABCDE90443FFF732FB029B00226B
:204E00001A7006B0BDE8104002B07047B14D000010B501210C20FEF7D1FD024BBDE81040DE
:204E20005B6818472CC80000014B9B68184700BF2CC80000014B1B6A184700BFD0C5000077
:204E4000014B5B6A184700BFD0C5000010B50D4B82B01B6898470C4B044601A99B6A182055
:204E6000984701280BD0002C0198B8BF15248028D4BFC4EB0000C4F1800002B010BD00201C
:204E800002B010BD2CC80000D0C5000000F0AAB930B50C4C83B06946A56A1820A84770B939
:204EA00001A90420A84730B90199E36A21F0020101910420984700F03FFA236A984703B074
:204EC00030BD00BFD0C5000000B583B0FEF7F0FC032814D0FFF7A8FF002810DB0E20FEF7E6
:204EE00087FD1F49FEF7CAFD10B9FEF789FD30B10D20FEF77DFD1A49FEF7C0FD10B103B0C0
:204F00005DF804FBFEF7D8FE90B10820FEF75EFD0028F4D00223ADF80430FEF7C5FC114BBD
:204F200082788DF80620DB68032101A89847E6E7FEF7EAFE0820FEF749FD18B90A4B9B68A7
:204F40009847DCE70223ADF80430FEF7ADFC054B82788DF80620DB68032101A89847EDE75B
:204F600080220020D0C5000008C9000070B590F82D40012C05460ED91F24FDF7F5FE2B46F5
:204F8000B0FBF4F1064A01FB140105F10C00BDE87040FDF78BB9E11C01248C40013CECE793
:204FA000315000002DE9F0470D468B6892F82C908046506B1446D3E90067FDF741FE686896
:204FC000FEF766F9A9681648FDF796FE29461548FDF792FE606BFDF7E9FD60B10023A38535
:204FE0002046FFF7C3FF4B46424639463046BDE8F047FEF7BDBE04F10C00FDF77FF9214665
:205000000948FDF71DFE21460848FDF775FE4B46424639463046BDE8F047FEF7A9BE00BF0D
:205020008002002098020020A41100208C02002000284ED02DE9F043044685B0406BFDF7E4
:20504000B5FD0546002841D04068FEF737F963490D20FEF7C1FC01210820FEF7AFFCFFF7E2
:20506000D7FE00282BDBFEF71FFCDFF8748190F80290D8F80460FEF717FC0746FEF71EFC9F
:2050800001463846B047FEF7BBFCD8F8183001930746984700284FD1002F72D1D8F81C60CA
:2050A000B047002848D1D8F80870FEF707FCB84780B1022840D0AB6843B1042002E0AB68EE
:2050C00023B1052022462946FFF76CFF05B0BDE8F0837047FBF76AFA6FF018073F1A03E00B
:2050E000FBF764FAC74202D5B0470028F8D0019B984730B9B04720B9D8F81430984700284A
:2051000056D1FBF753FA6FF028031F1A03E0FBF74DFAC74202D5B0470028F8D0B047002864
:2051200046D0D8F81030032103A89847032803D19DF80E304B452BD0AA68002AC6D094F8E0
:205140002D3094F82C100133DBB2052B84F82D3009D8137A8B420ED92046FFF707FF68680C
:20516000FEF790F8B2E70131C9B2002384F82C1084F82D30EDE7224629460120FFF712FFE5
:20518000A4E7D8F80860FEF799FBB047002890D1AB68002B9AD094F82C30002001332946F0
:2051A00084F82C3084F82D002246FFF7FBFE8DE7A96800298AD094F82C300133DBB2002244
:2051C00084F82C3084F82D200A7A9A42C4D8224629460220FFF7E6FE78E700BF802200207F
:2051E000D0C500002DE9F04106460E200F46FEF7FFFB4B4B1A780546002A46D0494A117846
:2052000000293FD04B1CDBB289B207201370FEF7D5FB01210C20FEF7D1FB4348FDF7C6FC68
:20522000044628B917E02046FDF732FD044690B12946201DFEF722FC0028F4D0606BFDF7CE
:205240001DFD072829DD3946304601230622BDE8F041FEF78DBD3548FDF730FD0446002899
:20526000F1D02946201DFEF705FC002304F13000C4E90C30A385FDF795FC21462A48FDF720
:2052800097FCDBE701210223BFE701221A70FDF76BFD244AC1B21170B2E72548FDF70EFD5C
:2052A000054630B32348FDF709FDA860E8B1FDF7C7FF6860A8B10620D5F80880FEF786FBEE
:2052C000C0B220B388F80800C8E900672946606BFDF76EFC606BFDF769FC85421BD0BDE8D6
:2052E000F081A9681348FDF707FD29461048FDF703FD606BFDF7C2FC0028A4D121460A484B
:20530000FDF79EFC21460948FDF7F6FC9BE7082388F80830D8E72046BDE8F041FFF726BE27
:205320000522002006220020A41100208C020020980200208002002008B50548FDF7ACFC59
:205340000448FDF7A9FC0448BDE80840FDF7A4BC98020020800200208C02002030B4064A9D
:20536000064D074C07490848002313802B802370102230BC07F0B5B840240020D0210020DC
:205380000822002094120020841200200C4A13881918B1F5A06F0DD810B40A4C2188C142C5
:2053A0000AD480B2014418441080218001205DF8044B70470020704700205DF8044B70473D
:2053C00040240020D0210020B0F5A06F98BF034A03469ABF1380012000207047402400202F
:2053E0000B0A4171037170470379407900EB032080B27047A3B1837913702823994227DB94
:205400001278062A184417D0112A0FD03A2A19D04278D200083213449942B8BF00207047E2
:20542000037813704378DB000833E7E7082213449942B8BF00207047142213449942B8BF46
:2054400000207047042213449942B8BF002070470020704770B5012305461446FFF7CAFF4B
:20546000B0B12378062B12D0112B10D00E460CE0411B711A89B200232246FFF7BBFF38B17B
:205480002378062B03D0112B01D03A2BF0D170BD002070BD70B582B0012314460DF10702E4
:2054A0000546FFF7A7FF9DF80730D0B19C421BD0062B16D0112B14D00E4610E0411B711A8D
:2054C000002389B20DF10702FFF794FF9DF8073038B1A34208D0062B03D0112B01D03A2BF6
:2054E000ECD19C4218BF002002B070BD07289ABF024B33F810000020704700BF84120020DF
:20550000072803469DBF034A012022F813100020704700BF8412002010B5064C1022204611
:20552000002106F0C7FF00224FF6FF732281238010BD00BF941200202DE9F047164F07F173
:2055400008030FCB84B06E4686E80F0097F8078001F0F2F81148FDF729FBB8B1DFF840A07F
:20556000DFF84090044665684146304645B1BAF80030B9F800202C3B2C329BB23A44A84748
:205580002046FDF785FB04460028ECD1FFF7E6FE04B0BDE8F08700BF50240020A41200202F
:2055A00040240020D0210020F8B51B4F1B4A3B7E1279FA71FF2B22D007F1080696E80F007C
:2055C000174D07F1180485E80F0094E80F0086E80F0095E80F0084E80F00124C01F0ACF8D5
:2055E00023882833FA1881200021F852518001F07DF823880C4A1344C0435880F8BD07F170
:20560000080494E80F0007F1180585E80F002946204600F023FCE0E750240020B022002031
:20562000AC120020D02100207824002038B504460D480D46FDF7BAFA034668B11A79A2425F
:20564000184604D15A79954208D0FF2A06D0FDF71FFB03460028F1D1012038BD9B68002B11
:20566000FAD09847002038BDA812002001460148FDF79EBAA81200202DE9F04F4B4B1B785E
:205680003A2B83B000F08680494D2B8973B96B8963B9AB8953B9EB8943B92B8A33B96B8AB0
:2056A00023B9AB8A13B9EB8A002B42D02B7AFF2B3FD0404B404CDFF814A11B6B3F4EDFF8F0
:2056C0000491934688460746984794E80F00BAF800C00CF1300C1FFA8CFCBCF5A06F86E85D
:2056E0000F0028BF4FF4A06CA4F11801ACF13002002301F13000AAF800C0A9F8003006F07A
:20570000FBFE14E90F00DFF8C8C036789CF804C085F807C084E80F004FF0600C3A23FF2E2B
:20572000C5F800C0AB7109D1042F02D1B8F1020F04D003B0BDE8F04FFFF710BE20481F4937
:2057400000F1240600F08AFBB9F80030019303F128025846AF541544341F85F8018001F0EA
:20576000B3FABAF80010019B2839F05089B2A6F12C00FFF735FEB9F80030234400225A8012
:2057800000F0B4FFB9F800302344C043588003B0BDE8F08F0B4C0C4B2488E356002BFFF6B9
:2057A00073AF03B0BDE8F04FFFF7D8BD0822002050240020D0C9000068240020AC120020A4
:2057C00058240020D02100207824002040240020B02200202DE9F0419DB21A4B1A4C1B79F5
:2057E000E3712B1D06468846602099B23A232060A37120461746FFF7F3FD0EB33146102224
:20580000124E04F1180006F06CFE04F1180104F1080000F023FB338828331A19002103F83D
:2058200004805770518000F061FF3288084B14442C35C04360851D80BDE8F04100F0FEBC31
:20584000BDE8F081B022002050240020D02100204024002010B5054C05492046FDF7A8F9B8
:2058600020460449BDE81040FDF7A2B9A8120020B0020020A402002010B5084B84B00C4621
:205880009B6901466846984721466846102206F019FEB0FA80F0400904B010BDD0C900005F
:2058A00070B506460D480D46FDF780F950B1044615B1A3689E4208D02046FDF7E9F9044608
:2058C0000028F5D10024204670BD29462046FFF7D3FF0028F0D0204670BD00BFBC1200205E
:2058E00030B5114B85B005460C465B696846984721462846FFF7D4FF694604462846FFF749
:20590000CFFF5CB184420CD01023646934B1A04207D0013BF9D1184605B030BD204605B04B
:2059200030BD012005B030BDD0C9000070B515460646FFF7B5FF30B10446406918B115B145
:2059400083689E4200D070BD2946FFF795FF0028F9D03C23636070BD2DE9F843174605464D
:2059600099460E46FFF79CFF394604462846FFF797FF804607B178B3F4B10822B118C4E9B2
:20598000019504F10C0006F0ACFD31462846FFF7A7FF20B9C4F814802046BDE8F883284633
:2059A00031466569C4F81480FFF79AFF0028F3D165612046BDE8F8830D48FDF77FF9044680
:2059C000A0B10023436101460A48FDF7F1F80A4A136801331360D0E7024639464FF0FF33D4
:2059E0002846FFF7B9FF80460028C5D10024D3E7BC020020BC1200205014002008B5054BCC
:205A0000054800221A60FDF747F90448BDE80840FDF7C8B850140020BC020020BC1200206C
:205A20002DE9F84306461B48FDF7C0F878B30446DFF86080DFF86490174F08E05A1C04D02B
:205A4000B3428CBF9B1B002363602C46FDB12046FDF71EF963680546002BEFD14046FDF75E
:205A6000A5F818B905E0FDF713F910B14369A342F9D121464046FDF7E3F821464846FDF712
:205A80003BF93B68013B3B602C46002DDFD1BDE8F88300BFBC12002050140020BC020020DA
:205AA0002DE9F0410E48FDF781F8B0B10D4DDFF830800D4F04462046FDF7EAF82146064605
:205AC0004046FDF7BDF821463846FDF715F92B68013B2B603446002EEDD1BDE8F08100BF1B
:205AE000BC12002050140020BC0200202DE9F843099F9DF8208001FB02051646A8424FF0A0
:205B000000023A601AD2044699464FEAD80803E03C603444AC420CD22378002BF8D04246E2
:205B20004946A01C06F0CEFC0028F2D13C60BDE8F8833B6801200BB1BDE8F8830220BDE84C
:205B4000F88300BF004870475414002088B32DE9F043194E83B0CDE900160446984691469B
:205B600003460F46202203211448FFF7BFFF01281BD13368187035682068E3686168A26896
:205B8000C5F802003068C5F80E300A9BC5F80610C5F80A2043610B9B877480F8139080F87C
:205BA0001C80836103B0BDE8F083002003B0BDE8F0830020704700BF7C140020D023002056
:205BC00070B50E4A0E4C13460646226002F1600504E023682033AB4223600CD21A78002AA3
:205BE000F7D09A7C981CD208314606F06BFC0028EFD1012070BD002070BD00BFD023002011
:205C00007C14002090B110B582B08022084C009203460194202203210648FFF767FF10B95D
:205C2000206802B010BD002002B010BD0020704774140020C8220020F0B4114B114F194676
:205C40003B6003F16005002448F2FE0608E09A7C82420AD02033AB4219464FF001040AD293
:205C60001A78002AF6D0421CF1D15A88B242F1D11CB1396001E03B6000231846F0BC704724
:205C8000C82200207414002018B370B582B08023114D0093044603460195122207210F48C0
:205CA000FFF724FF012811D12B6818702B6820686668A168E268C3F802002868C3F80660FB
:205CC000C3F80A10C3F80E2002B070BD002002B070BD0020704700BF781400204C23002057
:205CE000002848D0F0B583B08023244D00930446034617460E460195202203212048FFF747
:205D0000F5FE012834D12B6818702B682268D4F804E0D4F808C0E168C3F802202A68C3F873
:205D200006E0C3F80AC0C3F80E10D774BEB910750121144B9174627B5A73E289DA814FF0A3
:205D40008071FF2240F2FF2000241860C3E9014118461A73FFF798FF286803B0F0BD0023CB
:205D6000137502F118003146FCF74EFC2A68DFE7002003B0F0BD0020704700BF74140020C6
:205D8000C82200206414002090B110B582B08022084C009203460194122207210648FFF723
:205DA000A5FE10B9206802B010BD002002B010BD00207047781400204C23002038B50D4B7A
:205DC000C27B5A7304464FF080759D6040F2FF20FF2100251860228A197318465D60DA8182
:205DE000FFF7D2FF044B186000B105700023237038BD00BF641400207814002008B1FFF792
:205E0000DDBF704738B5124B124C1846236003F1600504E020682030A842206010D20378CA
:205E2000002BF7D0037D002BF4D11830FCF7F4FB0028EFD020680028EDD0FFF7BFFFE9E7FE
:205E400000F09CFB0448BDE83840FCF791BB00BFC822002074140020302400202DE9F04FD9
:205E60000B8848F2FE07BB4253D00B78FF2B50D03C4C3D4E00232246346004F160099A46F3
:205E800003E020324A45326037D21478002CF8D0947C012CF5D15488BC42F2D001F1FF3E55
:205EA00002F1010C002403E05FFA88F4802C1AD01EF801BF1CF8015FAB4504F10808F3D06E
:205EC00004F108088BEA05055FFA88F84FEA450C15F0800F04F1010E5FFA8CF503D15FFA3C
:205EE0008EF44445F2D1A24598BF134602F1200298BFA2464A453260C7D343B353F8024F9C
:205F000059689A68DB68C360046041608260BDE8F08F144B144E1946336003F1600500241D
:205F200048F2FE0705E02033AB4219464FF001040CD21A78002AF6D09A7C012AF3D15A8813
:205F4000BA42F0D1002CD9D03160D7E733600023038043808380C380038143818381C3818E
:205F6000BDE8F08FC82200207414002010B504460822083006F0B5FA237A83F0020323728B
:205F800010BD00BF10B504460831082206F0A9FA237883F00203237010BD00BF70B5094EBC
:205FA000B0684508FCF7E0FE0446FCF7DDFE2402B268A4B22044B0FBF2F302FB130028448D
:205FC00070BD00BFB0220020F0B53A4B1A8883B092B95A8882B99A8872B9DA8862B91A890F
:205FE00052B95A8942B99A8932B9DA8922B9C3E90122FD21DA6019602F4E304C00F084FE61
:2060000000F028FA602200212D4806F053FA30464FF48E72002106F04DFA2A492A4B4FF4D1
:20602000A0604EF6602240273060B2602020182237711A700870FFF7B1FF0025F0604FF40F
:206040007A70CDE900552B4639462A463061357548F2FE072046C4E90075FFF777FD04F18A
:2060600008000822194906F03CFA237A2946012283F002032046237240F2FF26FFF730FE43
:206080004FF080732046E360C4E901552660FFF7FBFD4FF000732046C4E90065C4E9025382
:2060A000FFF7F2FD0A484FF4F05103B0BDE8F040FCF754BA54140020B0220020641400208A
:2060C000D0230020CD230020CC23002048240020302400202DE9F04F0C4687B001B3002AD2
:2060E0006AD0148881460F461646ECB95388002B5FD19488C4B9D388002B5AD114899CB93B
:2061000052894FF6FF739A4253D1B47BF57B727B337B0092CDE901452E4AFEF75DFE044613
:20612000204607B0BDE8F08F0024A0462546DFF8B0A0DFF8B0B008E0B8F1000F1DDB2CD0B7
:2061400008F101080235102DEAD07319725D5B7803EB02239BB2002BEED0B8F1000F09EBEC
:206160000400A7EB04010BDD4FF0FF385246FEF733FE0444A742E5D8D2E709EB0400391B75
:2061800005B35A460593FEF727FE0444A742C7D909EB0400391B059BE8E7391B09EB04001D
:2061A0000D4AFEF719FE0444A742B9D94FF00108C8E7A0462546BAE7084A07B0BDE8F04FE3
:2061C000FEF70ABE5246FEF707FE0444A742A7D90225BAE7D0C80000E4C80000C0C800002B
:2061E000ECC80000E8C8000010B5014682B004460120FDF70DFC38B9064BDB680193204616
:2062000002B0BDE810401847FFF7A8F8002002B010BD00BF08C90000002108B50846FDF793
:20622000F7FB20B9024602210348FCF74FFBBDE80840FFF793B800BFC802002070B53D4C1B
:20624000238888B0A3B1B3F5A06F23D83A4D2B8B002B37D0394E736B9847D8B12B7EFF2B46
:206260001CD03748FFF7CEFCF0B12388002B3FD108B070BD324800F0FDF80546002852D093
:2062800000F0F6F80446A0B92846F36C9847284600F0F2F8FFF762F808B070BD0020FFF73E
:2062A000A3FFFFF75BF8F7E704A8336C984710B304AC204600F08EFD054618B3284600F023
:2062C00083FDECE76B8B002BC4D1AB8B002BC1D1EB8B002BBED12B8C002BBBD16B8C002B02
:2062E000B8D1AB8C002BB5D1EB8C002BD2D0B1E700F028F8BCE71248FFF762FC0028B9D03F
:206300000F4CD6E702A82146FFF73CFE092301952A46009302A92046012300F003FD0546EF
:206320000028CBD1B6E700F00FF904460028B1D0BFE700BF4024002050240020D0C90000FB
:206340006824002008B5012000F02CFA034B1B8803B908BDBDE80840FFF770BF4024002095
:2063600038B503880446E3B1B3F5507F15D1022935D028D9872939D088291FD1234B9A4295
:2063800040D0234B9A4219D11046FCF7FBF8A8B1FFF738FDFFF752FF10E0002303800320F9
:2063A00038BDFCF7D3F91B4B402118701748FCF7D5F800F09FF9184B5B6898474FF4507328
:2063C0002380012038BD0129F8D1002AF6D0134B05201A6000F0E6F9FFF730FFEEE7104B00
:2063E0001B88002BEAD0FFF7ADFFE7E70D4B002503F5807099698A4208BF1D8220338342F4
:20640000F8D3DBE71046FCF7BDF8D7E78014002030240020DE2B0020D0C9000054290020AC
:206420004024002064290020074B1B6843B12833186820B105495A680978FCF747BA70477A
:20644000034B1B681833F3E75C290020DE2B00205429002008B50448FCF71EFC0348BDE8D5
:206460000840FCF79FBB00BFD8020020901400200020704700207047704700BF10B50446D7
:206480000B48FCF793FB40B1A04202D106E0844204D0FCF7FDFB0028F9D110BD21460448A5
:2064A000FCF7CEFB21460348BDE81040FCF724BC90140020D802002038B5A0B105460B480C
:2064C000FCF774FB044628B90DE02046FCF7E0FB044640B110222946201D05F0F3FF0028E6
:2064E000F3D1204638BD0024204638BD9014002070B518B304460E46FFF7DEFF054698B145
:2065000020686168A268E3682C1D0FC41EB901232B77284670BD05F114003146FCF774F8A1
:2065200000232B77284670BD0548FCF7C7FB054620B101460348FCF763FBE1E70025E8E73E
:20654000D80200209014002038B50B48FCF72EFB044670B1251D284600F03CFC08B1437C66
:206560002BB92046FCF794FB04460028F2D1284638BD0546FBE700BF9014002038B50F48C3
:20658000FCF714FB70B10D4D0446237F04F1140013B9FCF741F830B92046FCF779FB044691
:2065A000002CF2D138BD2046FFF768FF2846FCF7FDFA0446002CE8D1F4E700BF901400204F
:2065C000F0B4571E0F44B9421BD2023A22F001030E1D1E448C1C14F8025C14F8013C03EB3F
:2065E00005239BB2184480B2834288BF013004F1020488BF80B2B442EDD122F001030233E8
:2066000019448F4207D13B781B02184480B2834284BF013080B2F0BC704700BF70B5124D05
:2066200082B006462846FEF7DFFE104B1C88001B80B2ADF80600BDF80600304405F1080177
:20664000202280B2FFF7BCFF04F12801BDF806202944FFF7B5FF18B140BA80B202B070BD31
:206660004FF6FF7002B070BD50240020D0210020F8B545781B4FED00064602210835481C11
:20668000A8422ADA7218547802340C44AC421ADC735C012B1FD002D3632B02D006E081B214
:2066A000EDE7BB6B30469847A8B918E003F0C003802B08D0C02B02D0402B0CD10FE00A4BB0
:2066C0001B7EFF2B0BD0084B04200221D21AFEF7D3FF022004E0A1B2D1E7002000E001209D
:2066E000F8BD00BFD0C90000502400203A20FFF795BF00BF08B5FEF70FFFFFF765FCFFF789
:20670000A9F800F0D1FC0A4B0A4900224FF4806008801A821A86A3F85020A3F87020A3F899
:206720009020A3F8B020A3F8D020A3F8F02008BD64290020CE21002070B5164C238833B36F
:20674000154E328803F1270191421BDA1349144D0978A971283A03F12801D21A294405F112
:20676000280005F0C9FE2088404200B2FEF70EFE044650B131882839284689B2FEF730FE27
:20678000204670BDFEF7EAFD0024204670BD0124204670BDD021002040240020082200203C
:2067A000502400202DE9F04F042885B039D09D4E9D4D9E4B336005282B6019D09C4F3A88E7
:2067C000272A07D913F83C2C02F0F002602AA3F13C0473D0DFF87482DFF87492FEF7BEFD36
:2067E000002389F8003088F8003005B0BDE8F08F904A1268128A002AECD00C3B8E488C4974
:20680000DFF85092DFF8448233602B600822002303600B80A9F8003088F80020FFF704FE60
:2068200003E0DFF83092DFF82482B9F80030002BD2D0824C7E4A824E03F108012046303385
:2068400089B21380FEF7CCFD7A4B31881B68B9F800201D7DE57128316018083252BA11279B
:206860000025A771C58082801A8A6025258062525A8A42800FCB04F1180585E80F00294695
:2068800004F10800FFF7EAFA664B04F13C0238461A60FFF7C3FE3388C043283380B22344DC
:2068A00040B1D88000236380002388F8003005B0BDE8F08F4FF6FF72DA80F3E720460193F9
:2068C000FEF792FD3A88019B824283D320460193FEF78AFD00F1280189B2B1F5A06F398083
:2068E000019B3FF677AF574801934FF0000C024680F800C02046FEF7ADFD019B00283FF4A7
:2069000069AFA3F1140A237ADFF83481A0EB0A00FF2BA8F800003FF45DAF0DF10F020123B3
