:1000000000000420593A0000AD3A0000AF3A000069
:10001000B13A0000B33A0000B53A00000000000019
:10002000000000000000000000000000B73A0000DF
:10003000B93A000000000000BB3A0000BD3A0000E1
:10004000BF3A0000B9390000B9330000BF3A0000E0
:10005000BF3A0000BF3A0000BF3A0000BF3A0000BC
:10006000BF3A0000BF3A0000BF3A0000BF3A0000AC
:10007000BF3A0000BF3A0000BF3A0000BF3A00009C
:10008000BF3A0000312B0000BF3A0000BF3A000029
:10009000BF3A0000BF3A0000BF3A0000BF3A00007C
:1000A000BF3A0000BF3A0000BF3A0000BF3A00006C
:1000B000BF3A0000BF3A000000000000000000004E
:1000C000BF3A0000BF3A0000BF3A0000BF3A00004C
:1000D000BF3A0000BF3A0000BF3A0000BF3A00003C
:1000E000BF3A0000BF3A0000BF3A0000BF3A00002C
:1000F00000000000BF3A0000154B002B08BF134B57
:100100009D46A3F5803A00218B460F461348144ABA
:10011000121A00F063F80F4B002B00D098470E4BDB
:10012000002B00D098470020002104000D000D484E
:10013000002802D00C48AFF3008000F02BF820001C
:10014000290003F061F800F011F800BF000008007A
:100150000000042000000000000000003803002020
:10016000140C0020000000000000000008B5074B40
:10017000044613B10021AFF30080054B1868836A71
:1001800003B19847204605F0A3FE00BF0000000021
:10019000EC5E000070B50D4E0D4CA41BA4100025A4
:1001A000A54209D10B4E0C4C05F094FEA41BA410E3
:1001B0000025A54205D170BD56F825309847013578
:1001C000EEE756F8253098470135F2E7380300206E
:1001D000380300203803002038030020024403467F
:1001E000934200D1704703F8011BF9E72DE9FF475F
:1001F00055EC104B0D9FDDF830A0002D0E469146BA
:100200001946B8BF22462B4627F02007BBBF05F191
:1002100000431D4600232D23B8BF1446462F0B7004
:1002200004D0452F00D10136022100E0032103ABA9
:10023000019302AB00933246534645EC104B00F05D
:10024000C7FC472F804602D119F0010F26D0462F58
:1002500008EB060911D198F80030302B0AD10022A2
:1002600000232046294604F0E5FF18B9C6F101062F
:10027000CAF80060DAF800309944002200232046D2
:10028000294604F0D7FF38B93022039B4B4505D2ED
:10029000591C03911A70F8E7CDF80C90039B0E9A45
:1002A000A3EB08034046136004B0BDE8F087F7B540
:1002B00000290446BABF49422D232B23092904F8FB
:1002C000022B437020DD0DF107031F460A2691FB28
:1002D000F6F506FB15113031092D03F8011C03F169
:1002E000FF32294609DC3031023B02F8011CBB42D7
:1002F000224604D3101A03B0F0BD1346E7E713F803
:10030000012B04F8012BF2E7302319448370021DFE
:10031000C170EFE72DE9F04F8DB00C46DDF8588045
:1003200016461F46054601F00BFA0368049318466B
:1003300000F0B8FB00230A93D8F80030059007338B
:1003400023F0070303F1080294F818A0D4F800B0D2
:10035000C8F80020D3E90023C4E91223D4E91289A4
:1003600029F000430793CDF818804FF0FF32A74BD8
:10037000DDE9060104F090FF70BB4FF0FF32A34BA4
:10038000DDE9060104F06AFF30BB0022002340468D
:10039000494604F059FF10B12D2384F843309C4A9C
:1003A0009C4BBAF1470F8CBF9046984603232BF025
:1003B0000402236122604FF00009009733460BAA24
:1003C0002146284600F0E6F9013040F08D804FF0DC
:1003D000FF300DB0BDE8F08F42464B4640464946DF
:1003E00004F05AFF10B18C4A8C4BDAE761684B1C61
:1003F0004BF480620AA83ED1062363600023CDE956
:10040000020309AB009349EC108B0DF1230322602A
:10041000CDF804A061682846FFF7E8FE0AF0DF0384
:10042000472B804609D1099BD81C02DB62689342A6
:1004300047DDAAF1020A5FFA8AFABAF1650F099953
:1004400024D80139524604F150000991FFF72FFFDB
:100450000A9A1318012A8146236102DC2268D10717
:1004600001D5013323619DF82330002BA5D02D2326
:1004700084F84330A1E7BAF1670F00F07781BAF151
:10048000470FBBD10029B9D10123B6E7BAF1660FF6
:1004900019D1002963680CDD216113B92268D207E4
:1004A00002D501330B442361099BA3654FF000097A
:1004B000D9E713B92268D00701D50233F3E7012346
:1004C000F1E74FF0670ADDE90932934205DB226864
:1004D0002361D107E8D50133E5E7002BD4BFC3F191
:1004E000020301231344DEE723685A0507D4236976
:1004F000424631462846B84701302BD167E7BAF16A
:10050000650F40F2DC8000220023D4E9120104F0E0
:1005100091FE002833D00123414A31462846B8478E
:1005200001303FF454AFDDE909239A4202DB23682E
:10053000D8070FD5DDE9042331462846B8470130F6
:100540003FF445AF4FF0000804F11A090A9B013B44
:10055000434509DC23689B0700F10381E0680B9B9E
:100560009842B8BF184634E701234A463146284628
:10057000B84701303FF42BAF08F10108E6E7099BCB
:10058000002B2BDC0123264A31462846B847013090
:100590003FF41DAF099B23B90A9B13B92368D90700
:1005A000D8D5DDE9042331462846B84701303FF469
:1005B0000EAF4FF0000904F11A0A099B5B424B454C
:1005C00001DC0A9B94E70123524631462846B8478E
:1005D00001303FF4FCAE09F10109EEE70A9AA36D80
:1005E0009A42A8BF1A46002A914607DD13463146B3
:1005F00042462846B84701303FF4E9AE04F11A03F9
:100600004FF0000B29EAE979069315E0FFFFEF7F31
:10061000F45E0000F05E0000FC5E0000F85E00008A
:10062000005F00000123069A31462846B847013092
:100630003FF4CDAE0BF1010BD4F858A0AAEB09039F
:100640005B45EFDCDDE909239A42D04415DB2368E2
:10065000DA0712D40A9B0999A3EB0A02A3EB010A59
:100660009245A8BF9246BAF1000F0EDC4FF0000889
:100670002AEAEA7A04F11A0919E0DDE9042331468D
:100680002846B8470130E5D1A1E6534642463146F7
:100690002846B8470130E9D199E601234A46314658
:1006A0002846B84701303FF492AE08F10108DDE971
:1006B00009239B1AA3EB0A034345EEDC4AE70A9A97
:1006C000012A01DCDB073AD50123424631462846A0
:1006D000B84701303FF47BAEDDE9042331462846BC
:1006E000B847013008F101083FF471AE0A9B0022BF
:1006F00003F1FF3AD4E91201002304F09BFDC8B9CD
:100700005346424631462846B84701300ED15EE690
:100710000123524631462846B84701303FF457AED0
:1007200008F101080A9B013B4345F1DC4B4604F10B
:100730005002DEE64FF0000804F11A0AF2E7012346
:10074000DFE701234A4631462846B84701303FF4E7
:100750003EAE08F10108E3680B9A9B1A4345F0DCB2
:10076000FCE64FF0000804F11909F4E700293FF412
:100770008BAE0023CDE9020309AB009349EC108B4B
:100780002260CDF804A00DF123032846FFF72EFDCB
:10079000804648E62DE9F04791461F468A680B6976
:1007A000DDF820809342B8BF1346C9F8003091F8B5
:1007B000432006460C4612B10133C9F800302368C5
:1007C000990642BFD9F800300233C9F800302568D5
:1007D00015F0060507D104F1190AE368D9F80020DD
:1007E0009B1AAB4228DC94F843302268003318BFD0
:1007F000012392062DD404F1430239463046C04706
:10080000013020D02368E568D9F8002003F0060302
:10081000042B08BFAD1AA36822690CBF25EAE57551
:1008200000259342C4BF9B1AED184FF000091A34FB
:100830004D451AD1002008E0012352463946304682
:10084000C047013003D14FF0FF30BDE8F0870135DC
:10085000C3E7E1185A1C302081F84300224494F881
:10086000451082F843100233C5E70123224639467A
:100870003046C0470130E6D009F10109D8E7000051
:100880002DE9F04301F1430C0C46097E85B06E2939
:100890001746064698460C9A00F0B38022D8632982
:1008A00036D00AD8002900F0B980582900F083809A
:1008B00004F1420584F8421032E0642901D069292C
:1008C000F6D120681368050603F104012AD51B68D8
:1008D0001160002B03DA2D225B4284F843206F481D
:1008E0000A2239E0732900F09D8008D86F2920D0B2
:1008F0007029DDD1236843F02003236003E07529CC
:1009000017D07829D4D1782384F84530644855E04D
:100910001368191D1B68116004F1420584F8423008
:1009200001238CE01B68116010F0400F18BF1BB250
:10093000CFE713682568181D1060280601D51B68CD
:1009400002E06806FBD51B8854486F2914BF0A22B1
:100950000822002184F843106568A560002DC0F2CC
:100960009580216821F004012160002B3DD1002DEC
:1009700040F08E806546082A0BD12368DB0708D536
:10098000236962689A42DEBF302305F8013C05F115
:10099000FF35ACEB05032361CDF800803B4603AA8D
:1009A00021463046FFF7F6FE01304DD14FF0FF30C3
:1009B00005B0BDE8F083394884F845101368216814
:1009C0001D1D1B6815600A060BD5CA0744BF41F000
:1009D000200121601BB9226822F02002226010222F
:1009E000B7E74D0648BF9BB2EFE76546B3FBF2F1B0
:1009F00002FB1133C35C05F8013D0B460029F5D11C
:100A0000B9E7136825686169181D106028061B681E
:100A100001D5196002E06A06FBD519800023236125
:100A20006546B9E71368191D11601D6862680021E9
:100A3000284600F09DFE08B1401B6060636823619A
:100A4000002384F84330A7E723692A463946304615
:100A5000C0470130AAD023689B0713D4E068039BEA
:100A60009842B8BF1846A3E701234A4639463046A4
:100A7000C04701309AD00135E368039A9B1AAB4214
:100A8000F2DCEBE7002504F11909F5E7002BACD106
:100A9000037884F8423004F142056CE7025F0000FD
:100AA000135F0000034613F8012B002AFBD1181A2C
:100AB000013870472DE9F74F03690C69A34280465E
:100AC000C0F28280013C01F114074FEA840C00F16E
:100AD000140657F8245056F8240006EB0C03013591
:100AE00007EB0C090193B0FBF5F595B34FF0000A45
:100AF0003846B646D34650F8042B93B205FB03A301
:100B00004FEA134A9BB2ABEB0303120CDEF800B0C2
:100B100005FB02A213FA8BF34FEA124A1FFA82FB7B
:100B2000DEF80020CBEB124202EB23429BB243EAF9
:100B3000024381454FEA224B4EF8043BDBD256F884
:100B40000C3033B9019B043B9E421A4630D3C8F89F
:100B50001040404601F07CF8002825DB0135304686
:100B60004FF0000C57F8042BD0F800E093B2ACEB38
:100B70000303120C13FA8EF3C2EB1E4202EB234264
:100B80009BB243EA0243B9454FEA224C40F8043B8A
:100B9000E8D256F8242006EB84032AB9043B9E428F
:100BA0001A460BD3C8F81040284603B0BDE8F08FB2
:100BB0001268043B002ACAD1013CC5E71268043B15
:100BC000002AEFD1013CEAE70020EEE70000000038
:100BD0002DE9F04F57EC106B97B0456A069104462B
:100BE0000B921293DDF88080CDE900673DB91020AB
:100BF00000F0B4FD6062C0E901550560C560636A3C
:100C0000196851B15A684A60012393408B602046AD
:100C100000F03DFE636A00221A603B1EBBBF23F05A
:100C20000043019300230122ACBFC8F80030C8F88C
:100C30000020AF4BDDF8048033EA080314D1129A88
:100C400042F20F731360009B23B9C8F3130000280E
:100C500000F04285219BDFF8ACB2002B00F0448508
:100C60000BF1030300F03EBDDDE900670022002325
:100C70003046394604F0DEFA814668B1129A012303
:100C80001360219B002B00F024859A4B219A03F1DD
:100C9000FF3B136000F028BD14AA15A947EC106BA8
:100CA000204601F04CF8C8F30A550490002D7CD082
:100CB000C7F3130343F07F5BB2464BF4401BA5F22E
:100CC000FF35CDF84C9000228B4B5046594603F02F
:100CD00091FE81A3D3E9002304F044F880A3D3E973
:100CE000002303F089FE064628460F4603F0D0FF96
:100CF0007DA3D3E9002304F035F802460B463046C5
:100D0000394603F079FE06460F4604F0DBFA00226E
:100D1000824600233046394604F096FA48B15046E0
:100D200003F0B6FF32463B4604F084FA08B90AF1F4
:100D3000FF3ABAF1160F59D8704901EBCA01DDE943
:100D40000023D1E9000104F09DFA002850D00AF1F7
:100D5000FF3A00230F93149B5D1BB5F1010849BFB7
:100D6000C5F10103002305934FF0000858BF059318
:100D7000BAF1000F3EDB0023D044CDF838A0079332
:100D8000069B092B00F29080052BC4BF043B069301
:100D9000069BA3F10203CCBF00250125032B00F223
:100DA0008F80DFE803F07D7F3171DDE914531D444E
:100DB00005F23240202813DDC0F14000009B08FA04
:100DC00000F805F2124023FA00F048EA000003F0B0
:100DD0004FFF01238246A1F1F87B013D139372E797
:100DE000009BC0F1200003FA00F0F0E70123B1E717
:100DF0000F90B0E7059BA3EB0A030593CAF100032C
:100E0000079300230E93BBE701230A930B9B002B50
:100E100059DD02939946666A00227260042202F14B
:100E200014009842716853D9204600F0FCFC636AB4
:100E30003060B9F10E0FD3F800B000F2E680002D5B
:100E400000F0E3809DED007BBAF1000F8DED107B8B
:100E500074DD2A4A0AF00F0302EBC30393ED007B13
:100E60004FEA2A16F0068DED087B65D5244BDDE9A7
:100E70001001D3E9082304F09FF8CDE9000106F042
:100E80000F0603251E4F4CE001230A930B9B53448E
:100E900003F1010902934B46012BB8BF0123BAE7C6
:100EA0000023B2E70023F0E70125002306930A950B
:100EB0004FF0FF3302939946002212230B92AAE7C8
:100EC00001230A93F4E70123029399461A46F5E7B2
:100ED000013171605200A2E761436F63A787D23F7F
:100EE000B3C8608B288AC63FFB799F501344D33F19
:100EF0000000F07F015F00000000F83F605F00002D
:100F0000385F00002D5F0000F10708D5DDE908011A
:100F1000D7E9002303F026FFCDE90801013576105B
:100F20000837002EF0D1DDE90823DDE9000104F0E7
:100F300043F8CDE900011AE00225A3E700F0A08004
:100F4000CAF100069F4BA04F06F00F0203EBC2034D
:100F5000D3E90023DDE9100103F004FFCDE900012E
:100F6000361100230225002E7FD1002BE1D10F9BEB
:100F7000002B00F08780DDE900670022934B3046AC
:100F8000394604F061F900287CD0B9F1000F79D01E
:100F9000029B002B35DD0AF1FF330893394600220E
:100FA0008B4B304603F0DEFECDE90001029F013598
:100FB000284603F06DFEDDE9002303F0D3FE002296
:100FC000844B03F019FD0546A1F15076002F5DD149
:100FD0000022814BDDE9000103F00CFD2A46334677
:100FE000CDE9000104F04EF9002840F088822A463D
:100FF00006F10043DDE9000104F026F9002840F085
:101000007C82DDE91023CDE90023159B002BC0F283
:101010005081BAF10E0F00F34C816A4B03EBCA0307
:1010200093ED007B0B9B002B8DED027B80F2D88033
:10103000B9F1000F00F3D48040F05E820022664BCD
:1010400051EC170B03F08EFEDDE9002304F010F9DC
:101050004F464E46002840F0348231230BF1010503
:101060008BF800300AF1010A2FE2F20705D5D7E923
:10107000002303F077FE013501237610083772E76D
:10108000022574E7CDF820A04F4691E74D4B03EBC6
:10109000C70353E902010A9B002B47D002460B46C7
:1010A00000204E4903F088FF2A46334603F0A2FC95
:1010B000CDE90C015D46DDE9000104F003F90646C7
:1010C00003F0E6FD02460B46DDE9000103F092FC69
:1010D000303605F8016BDDE90C23CDE9000104F0A1
:1010E000B3F8002863D1DDE900230020374903F07D
:1010F00081FCDDE90C2304F0A7F8002840F0B7805C
:10110000A5EB0B039F427FF77CAF0022304BDDE95C
:101110000C0103F027FE0022CDE90C012C4BDDE988
:10112000000103F01FFECDE90001C4E72A46334663
:1011300003F018FECDE90C010BEB07055E46DDE977
:10114000000104F0BFF8074603F0A2FD3037024665
:101150000B46DDE9000103F04DFC06F8017BAE42D1
:10116000CDE900014FF0000226D11C4BDDE90C0156
:1011700003F042FC02460B46DDE9000104F082F870
:10118000002874D1DDE90C230020144903F032FC5F
:1011900002460B46DDE9000104F056F800283FF452
:1011A00030AF15F8013C302B05F1FF3202D0DDF8ED
:1011B00020A04AE01546F4E7054B03F0D3FDCDE946
:1011C0000001BCE7605F0000385F00000000F03FF6
:1011D0000000244000001C40000014400000E03FDC
:1011E000DDE900675D46DDE902233046394603F05C
:1011F000E3FE04F067F8804603F04AFDDDE90223D0
:1012000003F0B0FD02460B463046394608F1300681
:1012100003F0F0FB05F8016BA5EB0B06B1450246A8
:101220000B4639D103F0E8FBDDE9022306460F4601
:1012300004F028F8C8B9DDE902233046394603F046
:10124000F9FF10B118F0010F0FD10499204600F0FA
:101250001EFB0023129A2B700AF101031360219BDD
:10126000002B00F041821D603EE2CDF820A015F871
:10127000012C392A05F1FF3308D19B450AD1089B7F
:101280000133089330238BF800305B461A78013223
:101290001A708CE71D46EAE700229B4B03F062FDC3
:1012A0000022002306460F4603F0C4FF00289AD010
:1012B000CBE70A9A002A00F08B80069A012A6EDC9E
:1012C000139A002A67D003F23343079F059D059ABE
:1012D00001211A4420460592984400F078FB064606
:1012E000002D0CDDB8F1000F09DD4545059A2B46B0
:1012F000A8BF4346D21A0592ED1AA8EB0308079B34
:10130000EBB10A9B002B67D08FB131463A4620469D
:1013100000F0FCFB049A01460646204600F060FB04
:1013200004990890204600F0B2FA089B0493079BAA
:10133000DA1B04D00499204600F0E8FB0490012158
:10134000204600F044FB0E9B0746002B00F0D081A6
:101350001A460146204600F0D9FB069B012B0746A2
:1013600040DC009B002B39D1019BC3F31303002BFE
:1013700036D1019B23F000431B0D1B052BB1059BB0
:101380000133059308F10108012307930E9B002BFD
:101390002AD1012030E0149BC3F1360395E7079B67
:1013A00009F1FF37BB42BFBF079B0797FA1A0E9B95
:1013B000BBBF9B180E93DF1B0027B9F1000FB5BF11
:1013C000059B059DA3EB09054B46B8BF00237EE7AF
:1013D000079F059D0A9E83E7079AABE70023D4E7A2
:1013E000009BD2E7002307933B6907EB830318694F
:1013F00000F09FFAC0F12000404410F01F0047D0D9
:10140000C0F12003042B3BDD059BC0F11C0003440D
:10141000059305448044059B002B05DD1A4604997D
:10142000204600F0C1FB0490B8F1000F05DD3946FD
:101430004246204600F0B8FB07460F9B53B339469F
:10144000049800F005FC002824DA00230A220499FD
:10145000204600F033FA0A9B04900AF1FF3A002B71
:1014600000F04D81002331460A22204600F026FA82
:10147000029B002B06464FDC069B022B4CDD11E045
:10148000C9D0059A1C331A4405921D449844C2E7FA
:101490000346F6E7B9F1000F38DC069B022B35DD79
:1014A000CDF80890029B63B939460522204600F02A
:1014B00005FA01460746049800F0CAFB00283FF7EA
:1014C000CCAD0B9B5D466FEA030A4FF0000939462D
:1014D000204600F0DCF9002E3FF4B7AEB9F1000F62
:1014E00005D0B14503D04946204600F0D0F9314639
:1014F000204600F0CCF9A8E600273E46E1E7DDF8FB
:1015000020A03E46A9E500BF000024400A9BCDF87C
:101510000890002B00F0FA80002D05DD31462A46A8
:10152000204600F041FB0646079B002B4CD071681B
:10153000204600F078F9326902320546920006F141
:101540000C010C3000F064F901222946204600F01D
:101550002BFB009BCDF814B003F00103B1460793B9
:10156000064639460498FFF7A5FA4946054600F1B4
:101570003008049800F06CFB324600903946204653
:1015800000F080FBC368024603BB01460890049844
:1015900000F05EFB089A034611462046089300F0CF
:1015A00076F9089BA3B9069A92B9079A82B9B8F15D
:1015B000390F29D0009B002B01DD05F13108059B77
:1015C0005D1C83F8008082E73046C2E70123E3E731
:1015D000009A002A04DB25D1069A1ABB079A0ABB97
:1015E000002BECDD01220499204600F0DDFA39469B
:1015F000049000F02DFB002803DCE0D118F0010F6F
:10160000DDD0B8F1390FD8D1059B059A5D1C39237F
:10161000137015F8013C392B05F1FF324FD001331F
:10162000137054E7059A002B02F1010506DDB8F1AD
:10163000390FE9D008F10108059BC2E7029A05F8C5
:10164000018CA5EB0B03934221D000230A220499BD
:10165000204600F033F9B14504904FF000034FF0FD
:101660000A024946204605D100F028F9814606467F
:10167000059576E700F022F93146814600230A22DB
:10168000204600F01BF90646F2E74FF00009012260
:101690000499204600F088FA3946049000F0D8FA00
:1016A0000028B6DC02D118F0010FB2D115F8013CC8
:1016B000302B05F1FF327FF40AAF1546F6E793456C
:1016C00005D131230AF1010A8BF80030FFE61546F7
:1016D0009FE7DFF864B007E0219BDFF860B01BB143
:1016E0000BF10803219A1360584617B0BDE8F08F3C
:1016F000069B012B7FF735AE0E9B079349E6029BB5
:10170000002B03DC069B022B3FF7CCAE5D4639462F
:101710000498FFF7CFF900F1300805F8018B029A21
:10172000A5EB0B039A42B0DD00230A220499204660
:1017300000F0C4F80490EAE7005F0000245F0000B6
:10174000044B1B68186A044B002808BF1846F03089
:10175000704700BFF80000205C010020024B0146EA
:10176000186800F097BB00BFF800002000000000E0
:1017700001F0FF01102A2BDB10F0070F08D010F842
:10178000013B013A8B422DD010F0070F42B3F6D146
:10179000F0B441EA012141EA014122F007047FF05F
:1017A00000070023F0E80256083C85EA010586EAB6
:1017B000010685FA47F5A3FA87F586FA47F6A5FAF2
:1017C00087F68EB9EED1F0BC01F0FF0102F00702FE
:1017D00032B110F8013B013A83EA010313B1F8D1A9
:1017E0000020704701387047002D06BF354603388A
:1017F000073815F0010F07D1013015F4807F02BFC3
:10180000013015F4C03F0130F0BC0138704700BF13
:1018100010B5431E0A44914200D110BD11F8014B8E
:1018200003F8014FF7E770B5456A04460E463DB927
:101830001020FFF793FF6062C0E901550560C560A5
:10184000656AEB6883B1636ADB6853F82600B8B950
:10185000012101FA06F56A1D9200204600F0BEFA49
:1018600060B1C0E901650EE021220421204600F0AC
:10187000B5FA636AE860DB68002BE4D1002070BD34
:10188000026843F826200023C0E90333F7E770B568
:10189000446A06460D463CB91020FFF75FFF7062B0
:1018A000C0E901440460C4603DB1736A6A68DB68E2
:1018B00053F82210296043F8225070BD2DE9F04101
:1018C0000D691F4606460C4601F1140C0023DCF896
:1018D000000081B202FB01710F0C000C02FB0070D2
:1018E00089B2013301EB00419D424FEA10474CF8A9
:1018F000041BECDCD7B1A368AB4212DC6168304654
:101900000131FFF790FF2269023204F10C01804699
:1019100092000C30FFF77CFF21463046FFF7B7FFFF
:10192000444604EB850301355F6125612046BDE82F
:10193000F081020C12040346B2B90304102013F024
:101940007F4F04BF1B02083013F0704F04BF1B0110
:10195000043013F0404F04BF9B000230002B06DB25
:101960005B0003D5013070470020E8E72020704776
:10197000036813F0070201460BD0DA0723D4980757
:1019800049BF5B089B0801200B605CBF0B60022015
:10199000704798B2A8B91B0C102013F0FF0F04BFBA
:1019A0001B0A08301A0704BF1B0904309A0704BF3A
:1019B0009B080230DA0702D45B0806D001300B60C6
:1019C00070471046E9E7002070472020704710B5A7
:1019D0000C460121FFF727FF01224461026110BD7F
:1019E0002DE9F74F14460A6923699A42B8BF0B469E
:1019F0008846BCBFA0461C46D8F81070D4F810909A
:101A0000D8F80830D8F8041007EB0906B342B8BF7D
:101A10000131FFF708FF00F1140505EB860E2B4698
:101A20000022734516D304F1140208F1140102EBED
:101A3000890301EB87070093009B019293420CD826
:101A4000002E03DD5EF8043D002B5DD0066103B07F
:101A5000BDE8F08F43F8042BE3E7B2F800B0BBF128
:101A6000000F23D08946AC464FF0000859F8044BCC
:101A7000DCF800A0A3B21FFA8AFA0BFB03A34FEA1B
:101A8000144ADCF8004043444FEA14480BFB0A8434
:101A900004EB1344E2469BB243EA04434F454FEA4A
:101AA00014484AF8043B2BD8CCF80480019BB3F8C7
:101AB00002A00432BAF1000F20D02B688946A84654
:101AC0004FF0000BB9F800C0B8F802400AFB0C4414
:101AD0005C44C4469BB243EA04434CF8043B59F8C7
:101AE000043BB8F804B01B0C0AFB03B303EB14432C
:101AF0004F454FEA134B05D8C8F8043004359BE72F
:101B0000D446B3E7E046DDE7013E99E72DE9F84327
:101B1000154612F0030206460F4607D0013A214C43
:101B2000002354F82220FFF7C9FE0746AD1035D038
:101B3000746A3CB91020FFF711FE7062C0E90144DD
:101B40000460C460D6F82480D8F808404CB940F24C
:101B500071213046FFF73BFF0023C8F80800044618
:101B600003604FF00008EB070AD53946224630469D
:101B7000FFF736FF394681463046FFF788FE4F466D
:101B80006D100BD0206838B9224621463046FFF749
:101B900027FF2060C0F800800446E4E73846BDE82F
:101BA000F88300BF286000002DE9F0470C464FEA9B
:101BB000621A236949680AEB0309A36807461646B7
:101BC00009F10105AB4232DB3846FFF72CFE00235A
:101BD000804600F114011A4653452BDB20692AEA9E
:101BE000EA7A04F1140316F01F0201EB8A0103EBF9
:101BF000800C25D0C2F1200E00201E688A46964037
:101C000030434AF8040B53F8040B9C4520FA0EF0BD
:101C100014D8486008B109F10205013D3846C8F8FA
:101C200010502146FFF733FE4046BDE8F0870131F2
:101C30005B00C7E741F823200133CDE75146DCE7DD
:101C4000043953F8042B41F8042F9C45F9D8E4E7F4
:101C500003690A699B1A30B50CD192001430143113
:101C60008418114454F8045D51F8042D954203D0B2
:101C700005D30123184630BDA042F3D3FAE74FF055
:101C8000FF33F7E72DE9F0470D4607461146284692
:101C90001446FFF7DDFF061E08D131463846FFF730
:101CA000C2FD0123C0E90436BDE8F087A4BF234686
:101CB0002C4638466168A6BF1D4600260126FFF760
:101CC000B2FD2B69C660266905F1140904F11402FE
:101CD00002EB860709EB830800F114054FF0000EB4
:101CE00052F804AB59F8044B1EFA8AF1A3B2C91A90
:101CF000230CC3EB1A4303EB214389B24FEA234E73
:101D0000C84541EA0343944645F8043BE8D8BC453E
:101D100004D355F8043D83B10661C5E75CF8041BA4
:101D20001EFA81F31A1402EB11429BB243EA0243FA
:101D30004FEA224E45F8043BE9E7013EE9E72DE989
:101D4000F7430E46012159EC108B1546FFF76BFD4A
:101D5000C9F30A540746C9F3130334BB0193B8F11E
:101D6000000327D002A840F8083DFFF701FE0099C4
:101D7000F0B1019AC0F1200302FA03F30B43C24011
:101D80007B610192019BBB61002B14BF02210121E9
:101D90003961C4B1A4F2334404443460C0F1350065
:101DA0002860384603B0BDE8F08343F48013D5E7DC
:101DB0007961E7E701A8FFF7DBFD019B7B6101216A
:101DC00039612030E5E707EB8103A0F23240306053
:101DD0001869FFF7AEFDC0EB4110E1E738B502FB33
:101DE00001F4214600F056F8054618B122460021BC
:101DF000FEF7F4F9284638BD38B50546002945D028
:101E000051F8043C0C1F002BB8BFE41800F0BEF8DA
:101E10001F4A1368104633B9636014602846BDE852
:101E2000384000F0B4B8A3420CD92168621893423C
:101E300004BF1A685B68636004BF521822600460C4
:101E4000ECE713465A680AB1A242FAD91968581841
:101E5000A0420BD120680144581882421960DDD19C
:101E6000106852685A6001441960D7E702D90C2300
:101E70002B60D3E7206821188A4204BF116852689A
:101E8000626004BF091821605C60C7E738BD00BF0D
:101E90003803002070B5CD1C25F0030508350C2D46
:101EA00038BF0C25002D064601DBA94203D90C23BF
:101EB0003360002070BD00F069F8214A14682146A3
:101EC00091B9204C23681BB9304600F03DF82060E2
:101ED0002946304600F038F8431C24D10C233360E7
:101EE000304600F054F8E4E70B685B1B18D40B2B6A
:101EF0000FD90B60CD50CC18304600F048F804F1F3
:101F00000B00231D20F00700C31AD3D05A42E25021
:101F1000D0E78C424B6816BF636013600C46EBE75A
:101F20000C464968CCE7C41C24F00304A04205D049
:101F3000211A304600F008F80130CFD02560DBE7E9
:101F4000380300203C03002038B5064C002305462A
:101F50000846236001F08CF9431C02D1236803B1C9
:101F60002B6038BDDC09002082B001B901A942B163
:101F70004BB113780B601278101C18BF012002B00F
:101F800070471046FBE76FF00100F8E770477047B5
:101F900049B1FF2A85BF8A2303600A704FF0FF30E2
:101FA00098BF012070470846704700000C4B1F2265
:101FB000012110B4C3F808259960C3F84405094805
:101FC0004FF400326024C3F84423C3F8042380F89C
:101FD00011435DF8044B0260196001F011BD00BFB0
:101FE0000010014000E100E02DE9F04F05888FB0BE
:101FF000002D40F08785D24C01F0C6F801F0E3F8DF
:10200000214604F5807000F0B7FDD4F80021CD49D9
:102010002B4651F82300824204D00133132BF8D110
:102020004FF0FF33C84EB4F804513370242384F8C2
:102030000931422384F80831002384F80A316FF013
:10204000450384F80B3184F80C3184F80D316FF0BE
:102050004F0384F80E3184F80F31BC4BB4F80601FD
:10206000BB4903F1100253F8047B41F8047B93420F
:10207000F9D1FE2384F82C31062384F812311A2377
:10208000022284F81331FF234C21A4F8295184F84B
:102090001021012584F8143184F81721002315221A
:1020A00084F82B0184F8151184F8163184F818216E
:1020B00084F82D3184F8115101F0A2FCA54BD4F81D
:1020C00000219A420CBF4FF4FA604FF47A709A469E
:1020D00001F03AFAA04BDD64D3F84C3503F67643B1
:1020E000C4F83031002384F834314FF6FF73738025
:1020F0009A4A994D002100200023C2E900013A22AA
:102100004FF0A04184F8502184F860314FF6FF72FF
:10211000B280D1F80425A4F8363182F48042A4F8C4
:102120003831A4F83A31A4F83C31A4F83E31A4F88F
:102130004031A4F8423184F85F314FF4007BC1F89C
:102140000425A4F80631D4F80011514500F050835D
:1021500094F85F31002B00F04B83B388B4F806216C
:102160000333934280F249837B4B0122DA64D3F834
:102170004C35C4F8EC3200F023FE4FF0A043D3F806
:10218000042582F48042C3F8042594F85F212AB123
:10219000D3F8042582F40042C3F80425D4F8F022D1
:1021A000B4F83631B4F804116D48DFF8C0816D4FD2
:1021B0001344C4F8F032D4F8F422B4F83E31134496
:1021C000C4F8F432B4F83A21B4F838311344D4F8EE
:1021D000F8221344C4F8F83203F0ACF8002558F89C
:1021E00025103846013503F0A5F80E2DF7D10A2049
:1021F00003F0B8F8D4F8EC125B48DFF87C81594F53
:1022000003F098F80A2003F0ADF83822002157486F
:10221000FDF7E4FFB0880890D4F8F4020790B4F812
:102220003E010690B4F840010590B4F84201D4F89C
:10223000F0520490D4F8F802B4F83831B4F83621EA
:10224000B4F804112844CDE90250B4F83C010190DF
:10225000B4F83A010090464803F06CF8B4F8041161
:10226000444803F067F8002518F905103846013591
:1022700003F060F80E2DF7D10A2003F073F82A4618
:102280006F213D48DFF8FC803C4FFDF7A7FFB4F815
:1022900004113B4803F04EF8002558F82510384645
:1022A000013503F047F80E2DF7D10A2003F05AF854
:1022B000382200213348FDF791FF334AB4F8041166
:1022C000324803F037F80F222E212F48FDF786FF02
:1022D000B4F804110023C1F3090284F85E31E2B9B5
:1022E0002B4896F90030CDF800A0CDE90720294A07
:1022F000069226220592284A0492284A92F825201E
:1023000002F51662252003926FF00F02CDE901203D
:10231000D4F80021224803F00DF8B4F83621002A41
:1023200040F0918394F8FC320A2B03F1010384BF3F
:1023300084F85F2184F8342184F8FC3232E000BF55
:102340004003002040610000C802002090610000AE
:102350005904002034441A92008000408804002070
:1023600098620000A7620000AC620000A804002090
:10237000BE620000F562000018050020096300003D
:1023800000630000E0040020900400200F630000C0
:1023900092630000A7630000B1630000D8630000EF
:1023A0001B630000242384F809314223B4F804514C
:1023B00084F80831002384F80A316FF045030135B1
:1023C00084F80B3184F80C3184F80D316FF04F0331
:1023D000ADB284F80E3184F80F31B4F80611974B82
:1023E000974AA4F8045153F8040B42F8040B95489B
:1023F0008342F8D1062284F812211A22FE2384F89F
:102400001321FF22002784F82C3184F814210223A1
:102410004C224FF0010884F82B1184F81031394612
:1024200084F8152184F8173124221523864884F86E
:10243000167184F8183184F82D71A4F8295184F8A4
:102440001181FDF7CBFE814BC3F84C80D3F84C25AE
:10245000D4F830117E4BCB1828BF4746914294BF29
:10246000002101218F4203D19A4234BF0021012172
:10247000D4F83031774F3B44C4F8303169B1D4F8E7
:1024800030317548D21A294602F054FFD4F8303161
:10249000D4F830311F44C4F830716C4D0127EF641B
:1024A000D5F84C35D4F83001D4F83021C01A43F6B1
:1024B0000953B0FBF3F00138FFF778FD40BF20BFB0
:1024C00020BFD4F83031A3F67643C4F8643100233A
:1024D000C5F84031D4F86431C5F84035D5F84031FD
:1024E000002B7FF405AEEF64D5F84C35D4F86421A9
:1024F0009B1A002BF2DBFBE5002800F09581002BF6
:1025000000F0928194F86011002900F08D81B4F8F8
:102510000411A4F829110127FF2184F82B3184F834
:102520002C1104EB820284F83471EF64D5F84C1559
:10253000C2F86811103303F07F034849D4F86421CE
:10254000C85C2821B0FBF1F301FB1303DBB2444963
:102550004448CB5C4449A2F2F642C95C00F0F8FC66
:10256000D5F840314BB9EF64D5F84C35D4F8642137
:1025700003F2F6439B1A002BF2DBD5F84031B4F896
:102580006221DBB9A318542183F85011D5F84435E2
:10259000D4F8640104EB82011B1AC1F8A031334B5B
:1025A000D3F8483522445B4282F8D8314FF0000B13
:1025B000B4F806310133A4F80631C4E5B4F80631A5
:1025C0003BB94FF0A041D1F8043583F40043C1F882
:1025D000043526480121D0F80C3153B9E964D5F807
:1025E0004C35D4F86471A3F5CD53103BDB1B002BA5
:1025F000F1DB1E4BD3F80C3113B9A3185221C3E7FA
:10260000B4F83C310133A4F83C3194F82C31FE2B62
:102610000DD0FF2B0DD0132B0DD803F00F03092B7A
:1026200094BF30335733A11881F85031AEE75823A7
:10263000F9E74223F7E75523F5E700BF9061000073
:1026400059040020A06100002C05002000800040FB
:1026500020F32E0030F32E00B5630000006400006C
:102660008064000048040020D8630000001000408F
:10267000C4F8E8310123D4F86471EB64D5F84CC593
:10268000D4F83021B4F80631A2F6764142F258204F
:10269000A2F2F64200FB03226145A2EB0B0294BFBB
:1026A00000200120914294BF00210121814203D1E9
:1026B000944534BF0020012000284FD1B4F8622196
:1026C00046484FF00108C5F84C8004EB8202D5F86B
:1026D0004C15C2F86811103303F07F03404AD15CF7
:1026E0002822B1FBF2F302FB1313DBB23D4A3E4951
:1026F000D35CA7F2F647A7EB0B07C95C3A4600F09C
:10270000B3FCC5F84C80D5F84C350BFA08F24146BD
:10271000D5F8403143B9E964D5F84C35A3F5A06349
:102720009B1ADB1B002BF3DBD5F8403113F0FF08BD
:1027300014D02E480121D0F8043143B9E964D5F80A
:102740004C35A3F6F6139B1ADB1B002BF3DB274B50
:10275000D3F80471FFB2B7E08B464DE14FF00008AB
:10276000C1464746434601220B93EA64D5F84C25FF
:10277000C4F8EC2200F024FB0B9B194653E1B94648
:102780003B46F0E79946EEE700214CE101214AE1A2
:102790006BB92244502382F85031002940F06D81FA
:1027A00094F8E631002B40F07381012371E1B9F117
:1027B000000F02D122444523EDE794F8E63122448C
:1027C0000BB94323E7E721B9572382F850310B4671
:1027D00056E13F2334E1002368E100BF2C050020CF
:1027E0000064000080640000D86300000010004016
:1027F000B4F80631092B3FF6B7ACB4F80631D4F87B
:1028000030715A1C42F2582000FB037092B25145BD
:10281000C4F86401A4F8622194F85F017FF46CAEFF
:1028200010B9D9077FF573AE94F83411002384F8FA
:10283000E63100297FF41CAFD4F8E8211420531CA2
:10284000C4F8E83192FBF0F300FB132383B901F0E5
:10285000F9FD0001AE4B00F070002822195CB1FBBD
:10286000F2F302FB1313DBB2AA4AD35CAA4AD15C8F
:10287000B4F86231A948012704EB8303EF64D5F86B
:102880004C25C3F8682100F047FC01F0DBFDEF6444
:10289000C0F17F4000F52200D5F84C35A04A0D93D9
:1028A00000F5CD50D2F8043133B9EF64D5F84C358A
:1028B0000D995B1AC342F5D4994BD3F8047101F01A
:1028C0009FF8FFB24FF00108002F3FF458AF944932
:1028D0000122D1F8083153B9EA64D5F84C35D5F85E
:1028E0004405A3F5AD53103B1B1A002BF1DB8C49BB
:1028F000D1F8083113F0FF033FF444AF4FF0010C5F
:10290000D1F80C214AB9C5F84CC0D5F84C25D5F8FA
:102910004405121AB2F5B35FF2D4814AD2F80C1111
:1029200011F0FF0916BFD2F800244A4602F0010256
:1029300084F8E62194F8E621002A3FF414AF94F8D5
:10294000E62102F0FF01002A6DD0D4F8EE11754A9D
:1029500091427FF419AFB4F8F2114BF2B0029142F8
:102960007FF412AF6D4994F8ED210B93A1F1E400CF
:102970000132FEF74DFF94F85F110B9BE1BBD4F8D9
:1029800000010122504584F85F213FF4E5AE4FF08D
:10299000A040D0F8041581F40041C0F8041594F863
:1029A0000F1294F80EE21FFA81FC0CEB0200A4F85F
:1029B000620194F80D02A4F806C140EA0E20A4F8C2
:1029C0000401D5F84405A6F804C0DFF860C1A838B2
:1029D0000CFB0101C4F8301196F9000094F81012B4
:1029E000814205D0A1F1FF0CDCF1000242EB0C02A8
:1029F00084F860214FF0000BB1884FF6FF729142CE
:102A000004BF94F80F22B28094F834212AB171885F
:102A10004FF6FF7291427FF4B9AEB4F80421728090
:102A2000012184F8341194F83421002A3FF4FCAEDB
:102A3000B4F8622169B194F8E60198B122442D23DB
:102A400082F8503119E0002384F8FC32A4F83631C2
:102A5000A8E4B8F1000F08D122444D23B5E6224482
:102A60004D23EDE7B8F1000FF9D0002F7FF490AEC1
:102A70002244412382F85031A9B194F8E631DBB207
:102A8000B4F836211344A4F83631002F7FF488AE11
:102A90000023B4F838211344A4F838311FB1B9F138
:102AA000000F7FF498AEB1FA81F35B09B4F83A21D4
:102AB0001344A4F83A31B4F86221D5F84435D4F877
:102AC000647104EB8200A83BDB1BC0F8A031144BFF
:102AD000D3F84835A0185B4280F8D83100293FF47C
:102AE00067AD94F8E631002B7FF462AD012303FA61
:102AF00002F20D4BD3E9000140EA02078846C3E920
:102B0000007855E50023038003200FB0BDE8F08F67
:102B10000064000080640000D86300002C050020E1
:102B20000010004000BABABA88040020A8DDFFFFF8
:102B3000094BD3F8441101290CD10022C3F84421D8
:102B40004FF40032C3F84823C3F808235960034BFD
:102B5000C3F88020704700BF0010014000E100E092
:102B6000014B1870704700BFE002002018B14FF011
:102B700080531B6E036070472DE9F041804C0026A6
:102B800001250746C4F8FC6F3046C4F8FC5F884650
:102B900000F058FE7B4AF0231370C4F80C3505236F
:102BA000C4F808352523C4F8543540F20123C4F88D
:102BB00050360323C4F81035734BC4F81835734AE4
:102BC000734BC4F81435136823F00043136040F2CC
:102BD0000333C4F80485C4F834356E4BC4F8383573
:102BE0006D4BC4F83C350223C4F80032D4F80032EF
:102BF0006A4A43F48073C4F80032D4F8003243F0D8
:102C00001003C4F800324FF04333C4F82035A3F169
:102C1000FC53433BC4F82435614BC4F82835614B61
:102C2000C4F81C35D4F8243543F08E03C4F8243599
:102C3000C4F82C65C4F83055D2F8003543F08063F1
:102C4000C2F800353846FFF791FF4FF08043D3F8C4
:102C50000C34DB0301D400F065FB534A534C15617F
:102C600000200323C2F80405C2F81005C2F8083595
:102C70004FF40C63C2F840014FF0FF31C2F8403509
:102C800040F20113C2F80813C2F80032434B484D1A
:102C9000C3F84855C3F84C2502F5A072C3F8502577
:102CA000A2F50142383AC3F85425D3F8002542F47E
:102CB000C072C3F800253F4AC2F808133E49C2F863
:102CC0001015C4F81015C4F81415C4F81815C4F874
:102CD0001C15C4F82015C4F82415C4F8281500BF25
:102CE00000BF00BF01F60331C2F8101501F50071F5
:102CF000C2F8181501F58071C2F81C15A1F56061C4
:102D0000C2F8241500BF00BF00BF2C49C2F8000163
:102D1000C2F80801C2F80C01C2F81401C3F810157A
:102D2000C3F814250832C3F82855C3F82C250432FB
:102D3000C3F83055C3F8342502F531423832C3F8B0
:102D40005825A2F53142303AC3F85C25A2F59D42E0
:102D50005C3AC3F8382502F5DE420C32C3F83C2554
:102D6000A2F5E042303AC3F82429D3F8002542F412
:102D7000007242F00102C3F80025BDE8F08100BFF7
:102D800000100040E0020020FB0003023C1700405E
:102D9000080110005B0600015555550000F0014088
:102DA000A363E31300D6BE89009000400460004096
:102DB0004081004000600040001F030004110040FB
:102DC00037B5234C2349D4F80035C4F80035224BDD
:102DD0000022012040F27F25C1F840211861C3F88C
:102DE0004021C3F84055A3F50043C3F810211861F2
:102DF000C3F80C21C3F80421C3F80821C3F800214B
:102E0000C3F83821C3F86C21D4F8002522F0080259
:102E1000C4F80025D4F8002522F01002C4F80025DB
:102E20000E4A1278C3F80C25C864D1F84C250192DB
:102E3000D3F8102132B9C864D1F84C25019C121B7B
:102E4000202AF5D4064B0022C3F8102103B030BD70
:102E500000F001400080004000900040E0020020AF
:102E600000100040274BD3F8002542F4801213B520
:102E7000C3F80025D3F8002522F40012C3F800257A
:102E8000D3F8002542F00802C3F80025D3F8002546
:102E900022F01002C3F80025A3F5B0330022012070
:102EA00040F27F211861C3F84021C3F84015A3F513
:102EB00000431549C1F84021C3F810211861C3F837
:102EC0000C21C3F80421C3F80021C3F83821C3F84A
:102ED0006C210E4A1278C3F80C25C864D1F84C2531
:102EE0000192D3F8102132B9C864D1F84C25019C65
:102EF000121B202AF5D4064B0022C3F8102102B081
:102F000010BD00BF00F0014000800040E002002042
:102F1000001000400B4B70B50D460121D964D3F869
:102F20004C452244C3F840250646FFF79BFF064B5D
:102F30005A5D064BC3F80825C3F85455C3F8046519
:102F400070BD00BF00800040D8630000001000404A
:102F500070B50C4616460546FFF784FF074B002266
:102F6000C3F84021C3F84065054B1A5D054BC3F813
:102F70000825C3F85445C3F8045570BD00800040CF
:102F8000D86300000010004038B50C460949D1F85C
:102F900044351A44C1F840250546FFF763FF064B48
:102FA0001A5D064BC3F80825C3F85445C3F8045509
:102FB00038BD00BF00800040D86300000010004012
:102FC00013B52549D1F8003543F40013C1F8003595
:102FD000D1F8003523F48013C1F800351F4B0022CF
:102FE000012440F27F201C61C3F84021C3F8400552
:102FF000A3F500431A48C0F84021C3F810211C6112
:10300000C3F80C21C3F80421C3F80821C3F8002138
:10301000C3F83821C3F86C21D1F8002542F0100222
:10302000C1F80025D1F8002522F00802C1F80025DA
:10303000C464D0F84C250192D3F8102132B9C4648D
:10304000D0F84C250199521A202AF5D4054B0022BC
:10305000C3F8102102B010BD00F001400090004004
:10306000008000400010004070B50C461646054632
:10307000FFF7A6FF074B0022C3F84021C3F84065C5
:10308000054B1A5D054BC3F80825C3F85445C3F832
:10309000045570BD00800040D8630000001000405F
:1030A000184BD3F8002542F0080270B5C3F800258C
:1030B000D3F80025144C154E22F01002C3F8002559
:1030C0000125002240F27F232561C4F84021C4F885
:1030D00040350F4B765CC3F81021C3F80C21C3F8C0
:1030E0000421C3F80821C3F80865C3F85415094939
:1030F000C3F804050978C3F80C15C3F800211D6056
:10310000256070BD00F0014000900040D8630000D1
:1031100000100040E0020020174BD3F8002542F0D9
:10312000100270B5C3F80025D3F80025134C144ED7
:1031300022F00802C3F800250125002240F27F2377
:103140002561C4F84021C4F840350E4B765CC3F8C5
:103150001021C3F80C21C3F80421C3F80821C3F8D7
:103160000865C3F85415C3F80405C3F800211046D8
:103170005D60256070BD00BF00F001400090004020
:10318000D8630000001000404FF0A0430022C3F8B5
:103190002C27C3F83027C3F86027C3F8642701221F
:1031A000C3F83427C3F83827C3F83C27C3F84027AF
:1031B000C3F87C27C3F8A827C3F83827C3F8B0277B
:1031C000C3F8B42770474FF0A0434FF40052C3F840
:1031D00008254FF480414FF40042C3F80815C3F8A6
:1031E00008254FF48032C3F808250022C3F80C25C7
:1031F000C3F80C15C3F80C25C3F80C254FF000429A
:10320000C3F80C25704700BF08B500F047F800F080
:1032100067FF01F043F800F0C5FE00F081F94FF0C0
:1032200080530C48196E02F085F800210A4800F01E
:103230002DFF00F095FC00F0C1FB00F043FB00F017
:10324000C1FB064800F03CFC00F0B8FE0028FBD1B2
:1032500020BFF9E7A864000014030020906200007A
:10326000024BC3E900019860704700BFE8020020EC
:10327000094A0028936806DA11681844884208D37E
:103280009060184670475168C91A814201DB1844A2
:10329000F6E74FF0FF33F4E7E802002008B500F04E
:1032A00041F8BDE8084000F027B800F04CB800F045
:1032B00051B800F061B810B5044630B100F043F8E1
:1032C000044400F040F8A042FBD310BD00F03CB92C
:1032D00000BF00BF00BF00BF00BF00BF00BF00BFF6
:1032E00000BF00BF00BF00BF00BF00BF0138EFD16B
:1032F000704700F051B800004FF0804301220021D8
:10330000C3F81825C3F804119A60D3F80421002AE1
:10331000FBD00022C3F8042170474FF08043012204
:10332000DA6070474FF080430022C3F80021012289
:103330001A60D3F80021002AFBD070474FF0804379
:1033400001225A607047024BD3F80405704700BF52
:1033500000100140064B074A1868D2F804155A6855
:1033600001EB006102EB91129A609868704700BF10
:103370004006002000100140054A064B1168D3F8B2
:10338000043503EB0163A0EB93105060704700BF5E
:103390004006002000100140064B4FF40032C3F8F5
:1033A0004423C3F804230022C3F84405C3F844218E
:1033B000704700BF00100140044B0022C3F80821F1
:1033C000D3F81805C0B200F033BF00BF00200040A2
:1033D000054BD3F80821012AFBD10022C3F80821AC
:1033E000D3F81805C0B270470020004002461548C7
:1033F00010B50446D0F80831012B09D11846002A2F
:10340000A1BF0023C4F80831D4F818350B7010BDE3
:10341000013A12F1010F12D44FF47A7300BF00BFCA
:1034200000BF00BF00BF00BF00BF00BF00BF00BFA4
:1034300000BF00BF00BF00BF013BEFD1DAE70020B3
:10344000DDE700BF00200040054BC3F81C05D3F8A2
:103450001C21012AFBD10022C3F81C21704700BFA8
:103460000020004038B515460C46631A9D4201DC29
:10347000284638BD14F8010BFFF7E6FFF5E708B55D
:103480000146007800B908BDFFF7DEFF11F8010F13
:10349000F8E7F0B54FF0A04501F5E07401269DF87E
:1034A0001CC045F8246003F5E074002745F824703B
:1034B000194CC4F80C15C4F814352346BCF1000FA0
:1034C0000DD000F5E07145F8216002F5E07145F896
:1034D0002170C4F81025C4F80805C4F86C65059A75
:1034E000C3F8242501210422C3F80025996019603E
:1034F0000021C3F808114FF0FF31C3F80813074942
:10350000C3F80423C1F880219DF818305B01DBB2B9
:1035100081F802330A60F0BD0020004000E100E0C5
:103520001FB503230022CDE90132064B0093072289
:10353000082306210520FFF7ACFF05B05DF804EB7A
:1035400000F09ABE00E0D70182B00190019B0BB958
:1035500002B07047019B013B019340F2E73300BF8B
:1035600000BF00BF00BF00BF00BF00BF00BF00BF63
:1035700000BF00BF00BF00BF00BF013BEFD1E5E7C8
:10358000074B1A78012A07D1597809B100215970DF
:10359000997809B100219970013A1A70704700BFFB
:1035A00050060020014B01201860704700100040B9
:1035B000034BD3F80401003018BF0120704700BF4F
:1035C00000100040034BD3F80C01003018BF01205D
:1035D000704700BF0010004010B50B4A0B4C137829
:1035E000013313700A4BC4F804350A4601461846E5
:1035F000FEF70EF90023C4F80C31C4F80431FFF7CC
:10360000BFFF012010BD00BF500600200010004089
:10361000DA0A002008B5114B1A78EAB901211970AD
:10362000DA700F4BC3F810211961D3F81021002A6A
:10363000FBD00C4AC3F804250022C3F80C21C3F8C0
:10364000042101221A60064AD2F80431002BFBD073
:10365000FFF796FF012008BD0020FCE75006002080
:1036600000100040DA0A002010B50C46FFF7B4FF46
:103670002046BDE81040FFF7CDBF08B50E4BD97806
:103680001A4619B91878012110B15970012008BDE6
:1036900019700A4B0A49C3F80415107900F0FF01AC
:1036A00018B9C3F80411C3F80C1101215960D17085
:1036B000FFF766FFEAE700BF500600200010004059
:1036C000E009002008B50B4BDA781AB1197801220D
:1036D00011B19A70012008BD1A70D970064BC3F859
:1036E00010111A61D3F81021002AFBD0FFF748FF10
:1036F000F0E700BF500600200010004038B50E4D26
:103700002C78BCB901232B700C4BD3F80024012A70
:103710000DD10B4B1C78A14203D322461946FEF76C
:1037200077F80023EB70FFF72BFF204638BDD3F866
:103730000034F6E70024F8E75006002000100040AF
:10374000E0090020038810B5044653B1B3F5287F83
:103750000CD1822908D100F04DFF80210548FFF7E8
:10376000CDFF4FF428732380012002E00023038063
:10377000032010BDE0090020014B00221A707047A1
:10378000E0090020012808B502D0032800D018B9AC
:10379000044BC3F8100508BD034801F053FE002098
:1037A000F9E700BF00100040BF640000034A9060CA
:1037B000034AC3B2C2F80835704700BF5006002064
:1037C00000100040014B9868704700BF5006002071
:1037D000024BC3F80C050120704700BF00100040E9
:1037E000014BD3F80C05704700100040014BD3F893
:1037F000480570470010004018B9044BD3F8440541
:1038000070470128F9D00020704700BF00800040B9
:1038100098B10B4BD3F8002529B142F04062C3F8B0
:1038200000250120704742F08062F8E7044B08460B
:10383000D3F80025C3F8001570470029F6D070476B
:1038400000F001401C4B1A78187101321A701B4BA2
:10385000D0B1D3F8042342F00202C3F80423D3F812
:10386000042342F00802C3F80423D3F8042342F4EB
:103870008062C3F80423124B402283F80123022202
:10388000C3F880211A607BE6D3F8082342F00202D5
:10389000C3F80823D3F8082342F00802C3F808232A
:1038A000D3F8082342F48062C3F80823044B0222B1
:1038B000C3F88020E7E700BF50060020001000405A
:1038C00000E100E0F8B5344C344F00250126C4F87F
:1038D000FC5F2846C4F8FC6FFFF7B4FF0423C4F86C
:1038E0000C351A23BB60C4F80835FFF74BFFBB68E3
:1038F000C4F854358E23C4F82435294BC4F81C353C
:103900005523C4F81C55C4F82055C4F82435C4F810
:1039100028350823C4F82C55C4F83065C4F814358C
:10392000204BC4F81835204BC4F804350323C4F8E1
:103930003435D4F8343503F00303022B13D14FF69A
:10394000FF73C4F83C35194BC4F83835124A18488F
:10395000D2F8003243F00303C2F80032002100F035
:1039600095FB0120F8BDD4F8343503F00303012B97
:1039700005D1FF23C4F83C3540F20713E4E7D4F83F
:10398000343503F00303032BE0D10A4BC4F83C3574
:1039900040F25B63D8E700BF0010004050060020F3
:1039A00000D5BE89FA000400DA0A002021100100C7
:1039B000F402002055555500704700BF704770470E
:1039C00070470000054A06490123C2F80C35C2F8C9
:1039D0000415C2F80835034A13707047000001400F
:1039E000FF7F070060060020034B1B7813B1034BD9
:1039F00001221A60704700BF6006002000000140ED
:103A0000054B1B783BB1054BD3F80424D20744BFC8
:103A1000034AC3F8002670476006002000000140FA
:103A20003546526E024B0122C3F80823704700BF8F
:103A300000000140BFF34F8F0549064BCA6802F4EE
:103A4000E0621343CB60BFF34F8F00BFFDE700BFC1
:103A500000ED00E00400FA054FF000000B4A0C4BAB
:103A60009A42BCBF42F8040BFAE70A490A4A0B4BD8
:103A70009B1A03DD043BC858D050FBDC08480949B9
:103A8000FFF7EEFB00F0C2FE0748004738030020B6
:103A9000140C00208C650000F80000203803002082
:103AA000180C002050FE0320F9000000FEE7FEE79E
:103AB000FEE7FEE7FEE7FEE7FEE7FEE7FEE7FEE7DE
:103AC00010B5041F54F8040F00B910BD002100F018
:103AD000DDFAF7E710B5041F54F8040F00B910BD64
:103AE00000F05AFAF8E70000F8B5038806461546D4
:103AF000CBB14A2B2BD188291FD1174800F044FCA9
:103B00000446C4B1231D9D421FD1144D12482146C5
:103B100000F05CFC62692F682A60A2690AB1E06962
:103B200090472F6007E00C4800F02EFC044634B9A3
:103B3000094B01221A714A23338001200AE0A1684F
:103B4000201D00F053F92468F1E72468D9E7002329
:103B500003800320F8BD00BF640600207406002027
:103B600010B505480024047100F00BFC2146034801
:103B7000BDE8104000F08ABA64060020040300206B
:103B800070B50446049DE3610A4B1B79C4E90552F4
:103B90006BB1094D094B2E682B60201D00F026F9F2
:103BA0002E6021460348BDE8704000F022BCA160B1
:103BB000F7E700BF6406002074060020040300201D
:103BC00013B5034C24680094FFF7DAFF02B010BD70
:103BD0007406002037B50D4611461A46064B1B6881
:103BE0000093069B0446FFF7CBFF2946201D03B038
:103BF000BDE8304000F020B97406002070B5094BD4
:103C00001B7905463BB1084C084B266823600430FD
:103C100000F0FEF8266029460248BDE8704000F03A
:103C2000E8BB00BF640600207406002004030020E7
:103C300070B5094B1B7905463BB1084C084B26680B
:103C40002360043000F0ECF8266029460248BDE805
:103C5000704000F0CEBB00BF640600207406002058
:103C60000403002010B5084B1B79044643B104300F
:103C700000F000F921460448BDE8104000F0A6BB62
:103C8000C0E90333F6E700BF6406002010B5044620
:103C90000948037923B1201DBDE8104000F0CEB8DB
:103CA00000F072FB08B9012010BDA04201D00068ED
:103CB000F8E70020F8E700BF6406002038B50D4B98
:103CC0001A681C460AB95A6038BDFFF7EEFA216837
:103CD000D1E9002313448A681B1A12B918446060A2
:103CE000F2E7D2E900152944091A8B4228BF0B4696
:103CF0009268F2E76C060020014800F0DFB900BFCF
:103D0000140300202DE9F8430388054653B1592BCD
:103D100047D1872920D125490B68002063B918B104
:103D20000B6001E0214A136059232B800120BDE87C
:103D3000F88301203346F1E7D3E902649442F8D0D6
:103D400000B10B6099680029EED0C868904206BFA8
:103D5000896899600B46F5E78229E5D1134F4FF04A
:103D60000009B8463C680026002CDDD0204600F053
:103D7000FFF998B122468821E06800F065F958B94A
:103D8000E060A3682EB1B360C4F80890FFF796FF17
:103D9000E8E7C8F80030F7E7FFF7AEFF2646A4686B
:103DA000E2E7002303800320C1E700BF6C06002088
:103DB00010B50446FFF7A0FFE3680A4A0BB1136889
:103DC00033B9094B1B68E3601368A360146004E017
:103DD000A34205D1044A1268DA60BDE810406DE7DD
:103DE0009B68EDE76C0600207406002010B50446C1
:103DF00000F0ACF92046BDE81040D9E738B50446DC
:103E00000D4600F0AAF965602046BDE83840CFE7CE
:103E100010B5044600F0A1F92046BDE81040C7E700
:103E200010B5044600F09EF92046BDE81040BFE7FB
:103E300003681944016041E701603FE7C068B0FAD8
:103E400080F040097047D0E90020104470470068B6
:103E50007047034B1868003018BF0120704700BF3F
:103E60006C060020024B186800B15868704700BF0C
:103E70006C0600200B4A1368834210B5044608D133
:103E800083681360FFF71AFF0023C4E9023310BDF3
:103E90001346002BF8D09A68A242F9D1A2689A6022
:103EA000F0E700BF6C06002038B5836804460D4675
:103EB00093B10A4804600220A07304F10C009847F3
:103EC0000238012801D9832D04D121462046BDE8BE
:103ED00038400AE00123A37338BD00BF74060020F8
:103EE000837BDB0700D5DFE770472DE9F0411B4DF1
:103EF0006E6888463446844204D00CB9BDE8F0812F
:103F00002468F8E7002CF9D0A37B2F6863B1002365
:103F1000A37386B9A3683BB1444505D02C603246F3
:103F2000832104F10C0098476B68A3420DD12368EC
:103F30006B602F60E2E7B44204D02246872130460E
:103F4000FFF7CEFF3668E4E71346002BF1D01A687E
:103F5000A242F9D122681A60EBE700BF7406002084
:103F600038B5084B00225C681A72012504B938BDC7
:103F7000E37B2BB1E581002282212046FFF794FFED
:103F80002468F3E774060020024B587A421C5A72E8
:103F9000704700BF74060020014B1968A5E700BFF9
:103FA00074060020044B8A225A7200229A72DA7236
:103FB000C3E90022704700BF7406002038B51D4CCD
:103FC000237A0BB1FFF7CCFFE57ABDB1A37A0C20C1
:103FD00000FB03400133017B0269406984F88C11C6
:103FE00003F01F03013DC4F89021A372E572C8B924
:103FF0006368C4F89431D4F894311BB9237AE07A19
:10400000184438BD237A0BB1FFF7AAFFD4F89021EA
:1040100094F88C11D4F89401FFF762FFD4F894312E
:104020001B68E6E7812904BF01238373FFF758FF6C
:10403000E4E700BF74060020024B1A7AD87A1044D5
:10404000704700BF7406002070B50A4DEC7A202C32
:104050000DD0AB7A234403F01F030C2606FB035359
:104060000134C3E904201973EC72002070BD0120F3
:10407000FCE700BF7406002038B5034C2568FFF745
:104080002FFF256038BD00BF7406002030B40A4CF5
:1040900065680A462B4683420CD04BB950B10121CA
:1040A0000560817360608381812130BCFFF7E4BFCC
:1040B0001B68F0E730BC70477406002038B1837B82
:1040C000013B012B9FBF024A0123C3731372704748
:1040D00074060020807B003018BF0120704700BFAD
:1040E00000F02EBC02460748536010B50468029BDE
:1040F00093601160026014B9084600F045FC00208E
:1041000010BD00BF0C08002008B54360029B83600F
:10411000034B01601860084600F036FC002008BD23
:104120000C08002010B5084C206858B1002323600B
:10413000D0E901319847236823B11868BDE81040E1
:1041400000F022BC10BD00BF0C08002010B541607B
:104150000446FFF7AAF8206010BDD0E900321344EE
:104160000360704710B50446FFF79FF8206010BD4C
:1041700010B50446FFF799F82368C3F1010303441F
:10418000606898422CBF0020012010BD10B5D0E916
:1041900000431C44FFF789F8201A10BD70B504884D
:1041A000672C054609D0792C30D0002C34D1FFF78C
:1041B000EBFE1B4B18701B4B1C601A4C261D08E0B5
:1041C0000A2823680ED07E2B03DC5A1C234422606D
:1041D0001873304600F0BCF8431CF1D167232B80E4
:1041E00001201CE05A1C22601C440D4B0E4A197819
:1041F000002630462673FFF727FF0C4B32468521F9
:104200001868FFF721FF18B97923E8E78529E7D176
:10421000044B00221A60D0E700230380032070BD06
:10422000D40B0020100800201C0800207406002079
:104230000D2810B5014618D00D4C94F88C305BB9A0
:10424000201D00F072F810B9012384F88C30094861
:10425000FFF734FF012010BD0A28F8D1201D00F01F
:1042600064F80028F3D00023EFE70020F3E700BF55
:10427000100800202403002008B50648802200F121
:104280008D01043000F04AF800210348BDE80840E1
:10429000FFF7FCBE100800202403002008B500F042
:1042A0002FFA024B00221A7008BD00BF1D09002022
:1042B00000F046BA014B187000F057BA1D090020F3
:1042C000024A13781843107000F04FBA1D090020FD
:1042D000034A137823EA0000107000F046BA00BFCA
:1042E0001D090020024A13785840107000F03DBAB2
:1042F0001D09002010B5084B1C78E443E4B22046A9
:10430000FFF7F0FF4FF4C870FEF7E0FF2046BDE86E
:104310001040FFF7E7BF00BF1D0900200023013A4E
:104320000160027143718371704710B542798379DE
:104330000479D31A34EA030308D003689954437903
:104340000279013313404371012010BD0020FCE7C6
:10435000837942790179D21A0A421FBF0268D25C7E
:1043600001330B401ABF837110464FF0FF30704786
:104370000079013070474379827900799B1A18409F
:104380007047002303607047006870470B68036044
:104390007047006808B9704718460368002BFBD1C6
:1043A0007047036813B11A681AB90260184670475B
:1043B00013461A6811680029FAD119601346F5E707
:1043C00003680BB11A68026018467047036810B59D
:1043D0003BB1002499421A6806D11CB9026000233F
:1043E0000B6010BD2260FAE71C46002AF9D0134684
:1043F000F0E738B50546FFF7E9FF00230B60FFF74C
:10440000C8FF08B9296038BD0160FCE738B504462B
:10441000FFF7DCFF03680B60216038BD03680020F4
:1044200003B9704701301B68FAE711B91146FFF76D
:10443000EDBF0B6813600A60704700B100687047F9
:1044400001F008B808B501F029F880B208BD0000F5
:10445000014B30221A70704720090020094B5988FF
:1044600030B549B1988803F1080430303022214436
:10447000824202DB00225A8030BD8D5C155501322C
:10448000F6E700BF2009002010B5054B13F8081B04
:10449000C1F1300422461944FDF7BAF9204610BD97
:1044A000200900202DE9F0410E4C2378A788C3F1A4
:1044B0003006BD19802D804611DC04F10801194435
:1044C0003246FDF7A5F96388D4F8B8103A46194486
:1044D00008EB0600FDF79CF92846BDE8F0810025B1
:1044E000FAE700BF20090020024A13781844107030
:1044F000704700BF20090020064B9A888242A1BF66
:10450000598880B20918101AA3BF988059800120D9
:104510000020704720090020014B9880704700BFA1
:10452000200900200248438818443830704700BFF3
:1045300020090020024B03F108001B781844704743
:1045400020090020014B9888704700BF20090020F7
:10455000044B1878C0F1300010F0FF0008BF9878C5
:10456000704700BF2009002008B5FFF7F1FF024B9C
:104570009B88184480B208BD2009002010B5084C63
:1045800022788242014608DBFFF7EEFF08448028CC
:1045900003DC521A2270012010BD0020FCE700BF8E
:1045A0002009002008B50D4A0023194622F81310EF
:1045B00001331A2BFAD10A490A4800F08FF808494A
:1045C000094800F08BF80649084800F087F80449CC
:1045D0000748BDE8084000F081B800BFDE0B0020AE
:1045E0000E650000D60B0020D80B0020DA0B00204F
:1045F000DC0B0020054B00225A809A801A4630219D
:1046000002F8381BC3F8B820FFF7CCBF2009002000
:1046100070B50C460646074DFFF7ECFF802C28BF0F
:10462000802422463146D5F8B800FDF7F1F8AC8079
:10463000204670BD2009002010B5074B03F134025D
:1046400053F8044B40F8044B9342F9D1034A1368E2
:104650000B6053684B6010BDDE0B0020D60B0020B2
:1046600010B5074B00F1340250F8044B43F8044BEB
:104670009042F9D1034A0B6813604B68536010BD38
:10468000DE0B0020D60B0020024B23F81010012077
:10469000704700BFDE0B0020014B33F8100070475D
:1046A000DE0B002008B5044B1A3803EB400000F085
:1046B00015F8012008BD00BFD60B0020024B1A38A8
:1046C00003EB4000704700BFD60B002001490248B1
:1046D00000F007B80E650000D80B00200B8803809F
:1046E000704708B5022200F015FEB0FA80F04009CC
:1046F00008BD024B02881A80704700BF120C0020D0
:104700004FF0A04301224FF40041C3F83C274FF47F
:104710008040C3F808154FF40051C3F83427C3F89C
:104720000815C3F83827C3F808054FF48030C3F8DC
:104730004027C3F80805C3F83427C3F808157047A5
:104740004FF0A043D3F81025D3F81005D3F8103557
:10475000C0F38030C2F3C032400040EA8200C3F3AD
:104760004033184380F007007047C043C0B24FF099
:10477000A04310F0010F4FF400520CBFC3F80C25FA
:10478000C3F808254FF0A04310F002014FF4804217
:104790000CBFC3F80C25C3F808254FF0A0434FF415
:1047A000004210F004000CBFC3F80C25C3F8082524
:1047B0004FF0A0434FF4803249B9C3F80C254FF0B5
:1047C000A0434FF4005228B9C3F80C257047C3F832
:1047D0000825F4E7C3F8082570470000054B1B685F
:1047E000082B01BF044B1868B0FA80F0400918BFCD
:1047F000002070473001001034010010014B024AC4
:104800001A607047340300200090D00308B5FFF70A
:10481000E5FF40B14FF080430022C3F80C21C3F8FC
:104820001021C3F83825FFF7D9FF10B1374B384AAC
:104830001A60FFF7D3FF18B1364BFB22C3F81825D7
:10484000FFF7CCFF48B13449344B0A681B6822F0AB
:104850000F0203F00F0313430B60FFF7BFFF18B104
:104860002F4B4FF400721A60FFF7B8FF10B12D4BB9
:104870002D4A1A602D4AD2F8883043F47003C2F8EA
:104880008830BFF34F8FBFF36F8F4FF01023D3F8F3
:104890000022002A03DBD3F80432002B2FDA244B4A
:1048A0000122C3F80425D3F80024002AFBD04FF0DE
:1048B00010221221C2F80012D3F80024002AFBD0E3
:1048C0004FF010231222C3F80422194B1A46D3F8D2
:1048D00000140029FBD00021C3F80415D2F80034DD
:1048E000002BFBD0BFF34F8F1049124BCA6802F464
:1048F000E0621343CB60BFF34F8F00BFFDE70E4B69
:104900000E4A1A60BDE8084000F04AB88C560040D4
:104910004881030000F00040E40E004058020010FF
:1049200040960240009602400004040000ED00E0C2
:1049300000E001400400FA05340300200090D00399
:1049400008B54FF08043D3F80C34DB0301D4FEF7F5
:10495000E9FC0B4B002201210320D960C3F8042598
:10496000C3F81025C3F80805C3F848214FF4002206
:10497000C3F80423034A602082F80803196008BDC5
:104980000080004000E100E0034BC3F84805034B02
:104990004FF480721A6070470080004000E100E030
:1049A000064B07498B4205D00022885898500432A4
:1049B000D82AFAD1034A9360704700BF0000002054
:1049C0000000000000ED00E0034B10309B6843F84E
:1049D0002010BFF35F8F704700ED00E0024B1030F6
:1049E0009B6853F82000704700ED00E081F0004123
:1049F00002E000BF83F0004330B54FEA41044FEAC4
:104A0000430594EA050F08BF90EA020F1FBF54EA5E
:104A1000000C55EA020C7FEA645C7FEA655C00F0FA
:104A2000E2804FEA5454D4EB5555B8BF6D420CDDCB
:104A30002C4480EA020281EA030382EA000083EA4E
:104A4000010180EA020281EA0303362D88BF30BDEE
:104A500011F0004F4FEA01314FF4801C4CEA113144
:104A600002D0404261EB410113F0004F4FEA0333A3
:104A70004CEA133302D0524263EB430394EA050F2E
:104A800000F0A780A4F10104D5F1200E0DDB02FA9D
:104A90000EFC22FA05F2801841F1000103FA0EF231
:104AA000801843FA05F359410EE0A5F120050EF1F7
:104AB000200E012A03FA0EFC28BF4CF0020C43FA28
:104AC00005F3C01851EBE37101F0004507D54FF035
:104AD000000EDCF1000C7EEB00006EEB0101B1F585
:104AE000801F1BD3B1F5001F0CD349085FEA3000CB
:104AF0004FEA3C0C04F101044FEA445212F5800FD6
:104B000080F09A80BCF1004F08BF5FEA500C50F172
:104B1000000041EB045141EA050130BD5FEA4C0C55
:104B2000404141EB010111F4801FA4F10104E9D1DE
:104B300091F0000F04BF01460020B1FA81F308BFD5
:104B40002033A3F10B03B3F120020CDA0C3208DDA1
:104B500002F1140CC2F10C0201FA0CF021FA02F17C
:104B60000CE002F11402D8BFC2F1200C01FA02F1EC
:104B700020FA0CFCDCBF41EA0C019040E41AA2BF11
:104B800001EB0451294330BD6FEA04041F3C1CDAD9
:104B90000C340EDC04F11404C4F1200220FA04F0F9
:104BA00001FA02F340EA030021FA04F345EA0301A3
:104BB00030BDC4F10C04C4F1200220FA02F001FA65
:104BC00004F340EA0300294630BD21FA04F02946E7
:104BD00030BD94F0000F83F4801306BF81F4801180
:104BE0000134013D4EE77FEA645C18BF7FEA655CF3
:104BF00029D094EA050F08BF90EA020F05D054EAC5
:104C0000000C04BF1946104630BD91EA030F1EBFC9
:104C10000021002030BD5FEA545C05D140004941CD
:104C200028BF41F0004130BD14F580043CBF01F5C0
:104C3000801130BD01F0004545F0FE4141F47001A6
:104C40004FF0000030BD7FEA645C1ABF1946104681
:104C50007FEA655C1CBF0B46024650EA013406BF82
:104C600052EA033591EA030F41F4002130BD00BF41
:104C700090F0000F04BF0021704730B54FF48064FE
:104C800004F132044FF000054FF0000150E700BF7F
:104C900090F0000F04BF0021704730B54FF48064DE
:104CA00004F1320410F0004548BF40424FF00001CB
:104CB0003EE700BF42004FEAE2014FEA31014FEA0E
:104CC00002701FBF12F07F4393F07F4F81F060515D
:104CD000704732F07F4208BF704793F07F4F04BFA8
:104CE00041F40021704730B54FF4607401F0004585
:104CF00021F000411CE700BF50EA010208BF7047E5
:104D000030B54FF000050AE050EA010208BF7047D5
:104D100030B511F0004502D5404261EB41014FF43E
:104D2000806404F132045FEA915C3FF4D8AE4FF046
:104D300003025FEADC0C18BF03325FEADC0C18BF29
:104D4000033202EBDC02C2F1200300FA03FC20FA7A
:104D500002F001FA03FE40EA0E0021FA02F11444C7
:104D6000BDE600BF70B54FF0FF0C4CF4E06C1CEAE0
:104D700011541DBF1CEA135594EA0C0F95EA0C0F51
:104D800000F0DEF82C4481EA030621EA4C5123EAC4
:104D90004C5350EA013518BF52EA033541F48011F3
:104DA00043F4801338D0A0FB02CE4FF00005E1FBA6
:104DB00002E506F00042E0FB03E54FF00006E1FBF0
:104DC00003569CF0000F18BF4EF0010EA4F1FF0433
:104DD000B6F5007F64F5407404D25FEA4E0E6D4173
:104DE00046EB060642EAC62141EA55514FEAC52084
:104DF00040EA5E504FEACE2EB4F1FD0C88BFBCF500
:104E0000E06F1ED8BEF1004F08BF5FEA500E50F1B0
:104E1000000041EB045170BD06F0004646EA010176
:104E200040EA020081EA0301B4EB5C04C2BFD4EBA8
:104E30000C0541EA045170BD41F480114FF0000EA1
:104E4000013C00F3AB8014F1360FDEBF002001F00F
:104E5000004170BDC4F10004203C35DA0C341BDC89
:104E600004F11404C4F1200500FA05F320FA04F05B
:104E700001FA05F240EA020001F0004221F000418F
:104E800010EBD37021FA04F642EB06015EEA430E02
:104E900008BF20EAD37070BDC4F10C04C4F1200532
:104EA00000FA04F320FA05F001FA04F240EA0200E5
:104EB00001F0004110EBD37041F100015EEA430EB6
:104EC00008BF20EAD37070BDC4F1200500FA05F2D6
:104ED0004EEA020E20FA04F301FA05F243EA020355
:104EE00021FA04F001F0004121FA04F220EA020064
:104EF00000EBD3705EEA430E08BF20EAD37070BDAA
:104F000094F0000F0FD101F00046400041EB010189
:104F100011F4801F08BF013CF7D041EA060195F06B
:104F2000000F18BF704703F00046520043EB030325
:104F300013F4801F08BF013DF7D043EA0603704712
:104F400094EA0C0F0CEA135518BF95EA0C0F0CD01D
:104F500050EA410618BF52EA4306D1D181EA030163
:104F600001F000414FF0000070BD50EA410606BF5D
:104F70001046194652EA430619D094EA0C0F02D1A2
:104F800050EA013613D195EA0C0F05D152EA0336E7
:104F90001CBF104619460AD181EA030101F0004105
:104FA00041F0FE4141F470014FF0000070BD41F04E
:104FB000FE4141F4780170BD70B54FF0FF0C4CF428
:104FC000E06C1CEA11541DBF1CEA135594EA0C0F47
:104FD00095EA0C0F00F0A7F8A4EB050481EA030E94
:104FE00052EA03354FEA013100F088804FEA03337B
:104FF0004FF0805545EA131343EA12634FEA022249
:1050000045EA111545EA10654FEA00260EF0004109
:105010009D4208BF964244F1FD0404F5407402D25B
:105020005B084FEA3202B61A65EB03055B084FEAEC
:1050300032024FF480104FF4002CB6EB020E75EBE9
:10504000030E22BFB61A754640EA0C005B084FEA11
:105050003202B6EB020E75EB030E22BFB61A75468E
:1050600040EA5C005B084FEA3202B6EB020E75EBD9
:10507000030E22BFB61A754640EA9C005B084FEA51
:105080003202B6EB020E75EB030E22BFB61A75465E
:1050900040EADC0055EA060E18D04FEA051545EA4D
:1050A00016754FEA06164FEAC30343EA52734FEAF6
:1050B000C2025FEA1C1CC0D111F4801F0BD141EA6F
:1050C00000014FF000004FF0004CB6E711F4801FD4
:1050D00004BF01430020B4F1FD0C88BFBCF5E06FB4
:1050E0003FF6AFAEB5EB030C04BFB6EB020C5FEAC4
:1050F000500C50F1000041EB045170BD0EF0004E19
:105100004EEA113114EB5C04C2BFD4EB0C0541EA4A
:10511000045170BD41F480114FF0000E013C90E647
:1051200045EA060E8DE60CEA135594EA0C0F08BF0B
:1051300095EA0C0F3FF43BAF94EA0C0F0AD150EA0A
:1051400001347FF434AF95EA0C0F7FF425AF10469D
:1051500019462CE795EA0C0F06D152EA03353FF4C5
:10516000FDAE1046194622E750EA410618BF52EA42
:1051700043067FF4C5AE50EA41047FF40DAF52EA16
:1051800043057FF4EBAE12E74FF0FF3C06E000BFB3
:105190004FF0010C02E000BF4FF0010C4DF804CDC0
:1051A0004FEA410C7FEA6C5C4FEA430C18BF7FEA80
:1051B0006C5C1BD001B050EA410C0CBF52EA430CAE
:1051C00091EA030F02BF90EA020F0020704710F12E
:1051D000000F91EA030F58BF994208BF90422CBFBD
:1051E000D8176FEAE37040F0010070474FEA410CB6
:1051F0007FEA6C5C02D150EA013C07D14FEA430CD4
:105200007FEA6C5CD6D152EA033CD3D05DF8040B44
:10521000704700BF8446104662468C461946634676
:1052200000E000BF01B5FFF7B7FF002848BF10F14D
:10523000000F01BD4DF808EDFFF7F4FF0CBF012092
:1052400000205DF808FB00BF4DF808EDFFF7EAFF0E
:1052500034BF012000205DF808FB00BF4DF808EDC9
:10526000FFF7E0FF94BF012000205DF808FB00BFBE
:105270004DF808EDFFF7CEFF94BF012000205DF848
:1052800008FB00BF4DF808EDFFF7C4FF34BF012055
:1052900000205DF808FB00BF4FEA410C7FEA6C5C20
:1052A00002D150EA013C0AD14FEA430C7FEA6C5C20
:1052B00002D152EA033C02D14FF0000070474FF098
:1052C000010070474FEA410212F5001215D211D5C4
:1052D0006FF47873B3EB625212D94FEAC12343F0F3
:1052E000004343EA505311F0004F23FA02F018BF75
:1052F000404270474FF00000704750EA013005D13E
:1053000011F0004008BF6FF0004070474FF0000000
:10531000704700BF30B50024A24201D1002007E051
:10532000035D01340D1915F8015CAB42F4D0581B34
:1053300030BD00000FB40A4B13B51C6824B1A3693B
:1053400013B9204600F08EFA05AB049AA1680193C8
:10535000204600F09FFB02B0BDE8104004B070474B
:10536000F800002038B5084B1C68054624B1A36935
:1053700013B9204600F076FAA26829462046BDE817
:10538000384000F09BBC00BFF800002070B50E460E
:10539000054618B183690BB900F064FAAB69AC68D3
:1053A00013B9284600F05EFA234B9C4217D16C6873
:1053B000A3891B071DD52369DBB1013EA36816F83D
:1053C000011F013BA360E9B9002B2EDA22460A2116
:1053D000284600F097F8013011D00A2011E0174B51
:1053E0009C4201D1AC68E3E7154B9C4208BFEC68D6
:1053F000DEE72146284600F0D7F80028DDD04FF040
:10540000FF3070BD002B04DAA2699A4206DC0A293B
:1054100004D023685A1C22601970CFE72246284620
:1054200000F070F80130C9D1E9E723680A205A1C5E
:1054300022601870E5E700BF30650000506500008D
:1054400010650000024B01461868FFF79FBF00BFC0
:10545000F800002038B50D4B1C68A36B05467BB9DE
:105460001820FCF77BF90A4A0A4BA063C0E9002325
:10547000094B83600B23838101220023C0E90423AD
:10548000A36B00221D615A6138BD00BFF8000020E7
:105490000E33CDAB34126DE6ECDE050038B5134BA0
:1054A0001C68A36B7BB91820FCF758F9104A114B04
:1054B000A063C0E90023104B83600B23838101228A
:1054C0000023C0E90423A16B0C480A694B690C4C0A
:1054D000504304FB0300A2FB04230344541C43F188
:1054E0000005C1E9044525F0004038BDF800002062
:1054F0000E33CDAB34126DE6ECDE05002DF45158C1
:105500002D7F954CF8B50E461446054618B18369B3
:105510000BB900F0A7F9214B9C422AD16C68A36912
:10552000A360A3891A072ED5236963B32369206872
:10553000C01A6369F6B28342374604DC2146284626
:1055400000F026F928BBA368013BA36023685A1C1E
:1055500022601E7063690130834204D0A389DB0797
:1055600019D50A2E17D12146284600F011F990B11D
:105570000FE00B4B9C4201D1AC68D0E7094B9C4239
:1055800008BFEC68CBE72146284600F00DF800285C
:10559000CCD04FF0FF373846F8BD00BF3065000073
:1055A0005065000010650000324B70B51D6806465E
:1055B0000C4625B1AB6913B9284600F053F92E4BC0
:1055C0009C420FD16C68B4F90C309AB215072CD4F8
:1055D000D00611D40922326043F04003A3814FF07A
:1055E000FF303EE0254B9C4201D1AC68EBE7244BF9
:1055F0009C4208BFEC68E6E7510712D5616B41B1E8
:1056000004F14403994202D03046FCF7F5FB002335
:105610006363A38923F02403A381002363602369C8
:105620002360A38943F00803A38123694BB9A389AD
:1056300003F42073B3F5007F03D02146304600F019
:10564000BFF9A28912F001030CD00023A3606369A3
:105650005B42A361236953B9B4F90C3013F08000A5
:10566000BAD170BD920758BF6369A360F2E700200A
:10567000F7E700BFF800002030650000506500002B
:10568000106500008A892DE9F041054610070C4697
:1056900058D44B68002B05DC0B6C002B02DC00207F
:1056A000BDE8F081E66A002EF9D0002312F48052A2
:1056B0002F68216A2B6032D0606DA3895A0705D507
:1056C0006368C01A636B0BB1236CC01A00230246D7
:1056D000E66A216A2846B047431CA38906D1296897
:1056E0001D2948D8294ACA40D60744D500226260FD
:1056F000D9042269226004D5421C01D12B6803B968
:105700006065616B2F600029C9D004F144039942A0
:1057100002D02846FCF770FB00206063C0E701233D
:105720002846B047411CC8D12B68002BC5D01D2B83
:1057300001D0162B01D12F60B1E7A38943F04003BC
:10574000A381ADE70F69002FA9D093070E6808BFAA
:105750004B690F6018BF0023A6EB07088B60B8F1F8
:10576000000F9CDD43463A46216AA66A2846B047A8
:10577000002806DCA38943F04003A3814FF0FF30EB
:105780008EE70744A8EB0008E9E700BF01004020CE
:1057900038B50B6905460C46DBB118B183690BB906
:1057A00000F060F80C4B9C4209D16C68B4F90C30E5
:1057B0007BB121462846BDE83840FFF763BF074B61
:1057C0009C4201D1AC68F1E7054B9C4208BFEC68F4
:1057D000ECE7002038BD00BF3065000050650000D8
:1057E00010650000002310B50446C0E90033836053
:1057F00081814366C281C0E904338361194608226E
:105800005C30FAF7EBFC054B6362054BA362054B7A
:10581000E362054B2462236310BD00BF295D0000D5
:105820004B5D0000835D0000A75D0000014900F0B2
:1058300085B800BF9157000070B54A1E68255543D2
:105840000E4605F17401FCF725FB044640B100212A
:10585000C0E900160C30A06005F16802FAF7BEFC42
:10586000204670BD836910B5044633BBC0E91233CE
:105870000365124B124A1B688262984204BF0123DF
:10588000836100F01FF86060204600F01BF8A06004
:10589000204600F017F80022E06004216068FFF75E
:1058A000A1FF01220921A068FFF79CFF022212211B
:1058B000E068FFF797FF0123A36110BDEC5E0000D5
:1058C0002D580000F8B51B4B1E68B369074613B985
:1058D0003046FFF7C7FF4836D6E90134013B03D510
:1058E000336833B13668F7E7B4F90C506DB16834FA
:1058F000F4E704213846FFF79FFF30600028F1D11C
:105900000C233B6004462046F8BD0B4B6566C4E99A
:105910000055A560C4E90335C4E9055508222946A8
:1059200004F15C00FAF75AFCC4E90D55C4E91255BC
:10593000E9E700BFEC5E00000100FFFF2DE9F8433E
:105940008046894600F14804002614B93046BDE877
:10595000F883D4E90175013F01D52468F5E7AB89E7
:10596000012B07D9B5F90E30013303D02946404643
:10597000C84706436835EEE770B50E46B1F90E101C
:10598000002996B014461D4607DA00232B60B38920
:105990001A0610D44FF480630EE06A4600F02AFA2B
:1059A0000028F2DB019A02F47042A2F500535A4239
:1059B0005A412A60EEE740230020236016B070BDF4
:1059C0008B8973B59D0706460C4607D504F147033E
:1059D000236023610123636102B070BD01AB6A469D
:1059E000FFF7CAFF009905463046FCF753FA48B95D
:1059F000B4F90C309A05EFD423F0030343F002030B
:105A0000A381E3E70D4BB362A389206043F08003D9
:105A1000A381009B6361019B20615BB1B4F90E100F
:105A2000304600F0F9F928B1A38923F0030343F0CD
:105A30000103A381A3891D43A581CDE72D58000053
:105A40009368013B002B10B4936008DA9469A34279
:105A500001DB0A2903D15DF8044BFFF753BD13683E
:105A6000581C1060197008465DF8044B7047F8B573
:105A700006460F461446D518AC4201D1002007E077
:105A80003A4614F8011B3046FFF7DAFF431CF3D106
:105A9000F8BD00002DE9F04F9DB00C46174603936A
:105AA000064618B183690BB9FFF7DCFE7B4B9C42BD
:105AB00057D17468A38918075DD52369002B5AD084
:105AC0000023099320238DF8293030238DF82A30C4
:105AD0004FF0010BB846454615F8013B0BB1252B9D
