:020000040000FA
:2000000000000420651B00008D1B00008F1B0000911B0000931B0000951B000000000000E0
:20002000000000000000000000000000971B0000991B0000000000009B1B00009D1B0000EC
:200040007FA600009F1B0000D10700009F1B00009F1B00009F1B0000491500009F1B0000A3
:200060009F1B0000D50500009F1B0000111200009F1B0000ED1600009F1B00009F1B0000DE
:2000800019170000C10600009F1B00009F1B00009F1B00009F1B00009F1B00009F1B00000D
:2000A0009F1B00009F1B00009F1B00009F1B00009F1B00009F1B00000000000000000000E4
:2000C0009F1B00009F1B00009F1B00009F1B0000859000009F1B00009F1B00009F1B0000F5
:2000E0009F1B00009F1B00009F1B000000000000000000009F1B0000000000009F1B00005E
:200100000000000000000000000000000000000000000000000000000000000000000000DF
:200120000000000000000000000000000000000000000000000000000000000000000000BF
:2001400000000000000000000000000000000000000000000000000000000000000000009F
:2001600000000000000000000000000000000000000000000000000000000000000000007F
:2001800000000000000000000000000000000000000000000000000000000000000000005F
:2001A00000000000000000000000000000000000000000000000000000000000000000003F
:2001C00000000000000000000000000000000000000000000000000000000000000000001F
:2001E0000000000000000000000000000000000000000000000000000000000000000000FF
:200200000348044B834202D0034B03B11847704784030020840300200000000005480649AB
:20022000091A891001EBD171491002D0034B03B11847704784030020840300200000000043
:2002400010B5064C237843B9FFF7DAFF044B13B10448AFF300800123237010BDD416002012
:2002600000000000C8BB000008B5054B1BB105490548AFF30080BDE80840FFF7CFBF00BF35
:2002800000000000A0030020C8BB0000154B002B08BF134B9D46A3F5803A00218B460F46EC
:2002A0001348144A121A0AF0F9F80F4B002B00D098470E4B002B00D09847002000210400C2
:2002C0000D000D48002802D00C48AFF3008000F02BF82000290001F063FC00F011F800BFE8
:2002E0000000080000000420000000000000000088030020DC2B0020000000000000000000
:2003000008B5074B044613B10021AFF30080054B1868836A03B19847204600F029F800BFF7
:2003200000000000C8B3000070B50D4E0D4CA41BA4100025A54209D10B4E0C4C0BF032F83A
:20034000A41BA4100025A54205D170BD56F8253098470135EEE756F8253098470135F2E7FD
:200360007C0300207C0300207C03002080030020FEE700BF1FB502F0C9F9002002F0FAF8CD
:2003800000F0FAF902F07CFA4CF6F463ADF8083036238DF80A304FF0805304A9D3F8A82032
:2003A0008DF80B20D3F8A43041F80C3D042203A80AF0D1FF08220DEB020103480AF0CBFF9D
:2003C00005B05DF804FB00BFBA2B00200021014801F0BABF08020020802802BF024B00227A
:2003E0001A600120704700BF04C50040F7B5134C0123236000F094F8254606466FF0030795
:20040000D4F8003123B900F08BF8BB1BC342F7D40023C5F80031D5F8083513F4007FD5F87C
:2004200008351CBF6FEA83536FEA93530193034B01225A60019803B0F0BD00BF00C00040BF
:20044000134B07B500221A6001F03CFB08B10AF0B7F8002001F04EFB0E4B0F4A18689B88AD
:20046000ADF804300090002369460C488DF8043000F07CFE08B10AF0A3F8012107480AF011
:20048000B8F8064800F0B8FE03B05DF804FB00BFB80300200CB5000001A50000DCB3000021
:2004A000014B1868704700BFB803002008B5064A13680133136001F001FE18B1BDE808404A
:2004C00001F080BD08BD00BFB8030020014B1868C0097047B803002008B54FF08043D3F8DE
:2004E0000C34DB0301D40AF010F80B4B002201210320D960C3F80425C3F81025C3F8080575
:20050000C3F840214FF40022C3F80423034A602082F80803196008BD0080004000E100E067
:20052000024B0122DA64D3F84C05704700800040044B4FF40032C3F80823034B00221A75D1
:20054000704700BF0090004020220020044B4FF48032C3F80823034B002283F82C207047DB
:2005600000900040202200202DE9F348154B164E16494FF48032C3F808230127144A3760DD
:20058000D3F8480514687CB100201060D1E9004514F1010B45F1000C12680192C1E900BC45
:2005A000019A3760D3F848050B68064900224FF48034C1F8044342EA00042046194602B06F
:2005C000BDE8F0880090004048900040880300204091004037B51D4B4FF40072C3F88021F5
:2005E0001B4B1A6872B100221A601B6819490093009BD1E90023541C43F10005C1E90045CC
:2006000003B030BD144B19680029F9D01A601B68124C0193019BFFF7A7FFD4E90023994286
:2006200008BF9042ECD3204609F07BFFD4E90223134306D00A4B2268C3F8442501232375BC
:20064000DEE703B0BDE83040FFF772BF00E100E040910040880300204491004020220020F2
:200660000090004073B5134C134B0222C4F80823124AD4F80405116869B100211160D3E9A8
:200680000001451C41F1000612680192C3E90056019AD4F80405D3E900152B0643EA1123DE
:2006A0000A060221C4F8041342EA00042046194602B070BD00100140900300200411014006
:2006C00037B51E4B4FF40032C3F880211C4B1A6872B100221A601B681A490093009BD1E97E
:2006E0000023541C43F10005C1E9004503B030BD154B19680029F9D01A601B68134C0193DC
:20070000019BFFF7AFFFD4E90623994208BF9042ECD304F1180009F004FFD4E90823134339
:2007200007D00B4BA269C3F84025012384F82C30DCE703B0BDE83040FFF708BF00E100E05C
:200740000411014090030020401101402022002000100140074B82B0C3F81C0503F58E73F2
:200760001A68002AFCD000221A601B680193019B02B0704700200040124B4FF0A04100224A
:200780000320C3F80025C1F818074020C1F80805C1F820270C49C3F824150821C3F86C259A
:2007A000C3F814150621C3F80C15084982B00A600A680192019A0422C3F8002501229A60A2
:2007C00002B070470020004000E0D7011C210040074B00221A6082B01B680193019B054BF8
:2007E000D3F81805044B1B68C0B202B0184700BF0821004000200040BC0300201FB50C4A2B
:2008000007CA01AB83E807000A49184600F096FF08B109F0D5FE084800F0CAFF08B109F073
:20082000CFFE064B01221A7005B05DF804FB00BFE4B300004FA50000D5160020D616002083
:20084000024B1B780BB100F0A5BF7047D6160020034B1B781BB1034B187800F0C9BF70472B
:20086000D6160020D516002037B50023ADF8043002238DF8063001F01F0112F00C0315461C
:2008800041EA401404D0042B16D101238DF8043015F0030304D0022B16D101238DF8053041
:2008A0000E4A01A9204600F05DFD2B0610D4204600F028FE03B030BD082B01D10223E5E75F
:2008C0000C2BE5D10323E1E7012BE9D10323E5E70121204600F0CCFDECE700BF71A500007C
:2008E00001F01F0141EA40101F28CABF054B4FF0A04300F01F00D3F8101521FA00F000F030
:200900000100704700030050074A1179D079937952791B0643EA00230B4343EA0243034A53
:20092000C2F86C36704700BF7203002000100040024B0022C3F8FC2F012070470010004083
:2009400008B5002962D018280ED8DFE800F01E0F0D0D19232B2E3143470D0D0D4A4C4E50B0
:200960000D525456585A5D00012008BD284B0522D3F80835B3FBF2F30A33DBB20B6004E02B
:20098000244B1B78002008600BB90020EDE704230B60EAE71F4BDB7800200860002BF4D07E
:2009A0000123F5E71B4B5B78E8E71A4B5B79E5E7194B01221A60194A1368002BFCD04FF411
:2009C0008E7009F0E6FD124BD3F8483503F07F035B42D3E7124B93F90030CFE7114B1B780E
:2009E000CCE70B23CAE71A23C8E7D823C6E70823C4E70323C2E72023C0E70A23BEE710233D
:200A0000BCE700200860B0E77D23B7E70220ACE70010004072030020141000401C1100406B
:200A2000D8160020D716002081220021014809F035BD00BFD9160020124BD3F8FC0F00B3EF
:200A4000D3F85035DBB2032B1AD10F4B0F4A19781378053BDBB201F0FF0051B17A2B0FD886
:200A60000B4B1B6863B90B4B1868B0FA80F0400970477A2B05D892F8800080F001007047DD
:200A8000002070470010004072030020D91600203011004034110040074A1378053B7A2BC4
:200AA00005D8064B1B6823B992F880007047002070470120704700BFD916002030110040EA
:200AC0000C2807D1042A07D131B1044B1B680B60002070470120704702207047C00300207A
:200AE0007D2910B503460C460BD90B4A0B490C4803F05EF87D2221460A4803F059F8012009
:200B000010BD09488A1C00F8012B0A4619460AF022FC0020F4E700BF56B5000064B5000048
:200B200068B5000077B500005A17002010B509F018FD0446BFF35F8F144B1B78EBB94FF445
:200B4000987009F026FD4FF49A7009F022FD4FF440510F484FF0FF33C0F808330D4B022201
:200B6000C3F8802159B1C0F804131A60BFF35F8F2046BDE8104009F0F8BC0021E9E7C3F872
:200B80008020BFF34F8FBFF36F8FEFE7720300200010004000E100E070B5194CD4F85055FE
:200BA000EDB2032D28D0174BC4F80435164A174BC3F8102502F5DE421432C3F814250126ED
:200BC0004FF00062C3F80465C3F80425FFF7AEFFD4F8003243F01003C4F80032D4F8003299
:200BE000022D43F40023C4F8003206D04FF4AC7009F0CFFC064B1E6070BD064BFBE700BF97
:200C000000100040D91600203811004000F00140041000400810004070B506464FF49C704F
:200C200009F0B7FC4FF4867009F0B3FC234D4FF49A7009F0AEFC4FF4987009F0AAFC2C7839
:200C4000631F7A2B06D9FFF7EFFEFFF7A5FF0024204670BD023C2246691C30460AF07BFB49
:200C60002B19174E5B783F2B9ABF9B00DBB2FF233370144BD3F84815134B01F07F01494267
:200C800049B21970042089B202F094F93178032002F090F90D4B2A780D491A74D1F84C05B3
:200CA0005860D1F8481599605200DA605A68023A1A60FFF7B9FEFFF76FFFC9E7D916002089
:200CC000D716002000100040D8160020C00300200080004010B503880446CBB140F2C932C3
:200CE00093421AD1822916D1FFF7D6FE80B1FFF7AFFD02F015F902F0A7F88021FFF78CFF52
:200D0000002805DD80B202F083F8064BDB68984740F2C9332380012002E00023038003201A
:200D200010BD00BF34B400001FB5204C0F23C4F810351F4B9B780A3B03EB8303C4F808359D
:200D4000FFF7E2FD40F20223C4F834350021194BC4F838350D22C4F83C15684609F09EFB18
:200D60009DF802309DF801201B0443EA022343F0C0639DF8042043F0080343EA82539DF8A1
:200D8000072043EA4273C4F814359DF80A309DF809201B0443EA022343F07F03C4F8183589
:200DA00040F20123C4F8503604B010BD001000407203002021100100194A002313B5137032
:200DC000184A1370184A136053609360D3601374164A136013680093009B4FF08043012159
:200DE000196013461A68002AFCD000241C601B680F4801932146019B01F0A6FAFFF714FEFF
:200E00000C4B0122C3F8FC2FFFF78EFF0A4A1378DBB21370FFF78AFE204602B010BD00BFDE
:200E2000D8160020D7160020C003002000010040C0010020001000407203002008B5064B9F
:200E4000D3F8FC2F22B90122C3F8FC2FFFF76CFFFFF7A2FE012008BD0010004008B5FFF7D8
:200E6000EDFF4FF4A47009F094FB4FF4A27009F090FB4FF4A67009F08CFB094B01221A6004
:200E8000084A03F58C731146106810B918680028FAD008681B68B0FA80F0400908BD00BF25
:200EA0002C1000404811004010B507284ED8DFE800F004104D4D26303742012903D1FFF7DB
:200EC000BDFF002010BD002942D1224BC3F8FC1FF7E7A1F10B030F2B3AD81F4ACBB2937037
:200EE0001C4AD2F8FC3F002BEBD0A1F10A03002403EB8303C2F8FC4FC2F80835DFE731F087
:200F0000070425D1144AC1F380031370FFF70EFED7E731F001001BD10F4ACBB2D370D1E719
:200F20000D4BC9B259700B4BD3F8FC2F002AC8D0C3F80C15C5E7084BC9B25971054BD3F8CC
:200F4000FC3F002BBDD0FFF7DFFCBAE70120B9E70220B7E700100040720300207D2810B55C
:200F600004460AD9264A2749274802F021FE2146264802F01DFE012010BD254CFFF75EFF50
:200F8000E278002A36D16378224ADBB2C2F80C35214B01211960D2F85035DBB2022BFAD11C
:200FA0001E4BC2F804354FF4867009F0F2FA4FF4B67009F0EEFA4FF4AA7009F0EAFAD2F869
:200FC000003243F48023C2F8003201231360FFF7A7FA6FF00204241AFFF7A2FAC442FBD4E1
:200FE0000C4AD2F85035DBB20B2BFAD0FFF7D4FD0020C1E7FFF732FF0028C4D10220BBE788
:2010000056B5000064B5000068B50000ABB5000072030020001000400C1000405A1700205D
:2010200072B6094B1B68DB0700D500BEBFF34F8F0649074BCA6802F4E0621343CB60BFF36E
:201040004F8F00BFFDE700BFF0ED00E000ED00E00400FA0572B6024A136801331360704776
:20106000D4030020034A1368013B136003B962B6704700BFD4030020054A13792BB90121E0
:20108000106011715371184670478520704700BFD8030020084B1A68D20704D4C02283F88C
:2010A000002301221A604FF080420123C2F81835024A1370704700BF00E100E0D42B00201F
:2010C000074B00221A6082B01B680193019B4FF080430222C3F8042301229A6002B07047AF
:2010E00004010040074B00221A6082B01B680193019B4FF080430122C3F804231A6002B0A5
:20110000704700BF0001004007B5154B1A687AB100221A601B680093009B4FF080430122DD
:20112000C3F808230F4B587910B95A711B6898470D4B1A6882B100221A601B680193019B4C
:201140004FF080430222C3F80823064B1B68012003B05DF804EB184703B05DF804FB00BF72
:2011600000010040D80300200401004030B51E4C437944F823201D4C03EB4303E35C83BB4A
:2011800090F904308A78002BAEBF03F1604303F00F03174D4FEA4212A8BF03F56143D2B2E4
:2011A000B4BFEA5483F8002390F90430002B08DB01225D0903F01F0302FA03F30D4A42F8F4
:2011C000253003680A88C3F8082543790879C97803EB4303E218507091700122E2540020EF
:2011E00030BD0820FCE700BFE0030020D817002014ED00E000E100E0036801221A604379C0
:20120000024A03EB43030221D1547047D81700202DE9F041234EDFF89480234F00244FF4C4
:201220008035D6F8043304F1500189002B4289B20ED004EB08039B001B684BB1C6F8485332
:201240003046C6F8085309F0CCF93B68E0B298470134032C4FEA4505E3D1124CD4F8043331
:20126000DA070BD5D4F8003143B120464FF4807109F0B7F90C4B04201B689847D4F8043399
:201280009B070DD5D4F8043153B106484FF4827109F0A7F9044B05201B68BDE8F04118477C
:2012A000BDE8F08100B00040E0030020502C001003681F2B83BF03F01F03036001484FF0A2
:2012C000A040704700030050054B4FF0FF32072843F8202084BF1B1883F85820704700BFDB
:2012E000E403002010B5164C94F86A3033BBFF21E2180133302B82F83010F9D10021C8B2E4
:20130000FFF7E2FF01310C29F9D1062200210D4809F0C4F80C4BC02283F8062340221A60B9
:201320004FF4BE7009F076F9084B4FF00042C3F80423012384F86A30002010BD0820FCE7EC
:20134000E40300204804002000E100E000600040034B93F86A00003018BF0120704700BFD8
:20136000E4030020F7B5404F3B18044693F93030002B944675DA8B78C3F34003002B15BF53
:201380000025082508200C20854202D1042003B0F0BD57F8252001324FEA850649D1381993
:2013A00047F825C080F8305013B97B1983F858408B785A071BD4D8073DD502A840F8084D23
:2013C000FFF776FF009B00EB8300D0F8003723F00203C0F800372548E20804F0070C012311
:2013E00003FA0CF310F802C043EA0C038354887891F800C010F002002AD006F1804303F51D
:20140000C0432402D3F8102522F44F3222F44072C3F810254FEA0C4CD3F8102504F47C54FB
:201420000CF4403C44EA0C041443C3F810450020ADE70135A8E702A84A7840F8044DFFF727
:2014400037FF019B03F5E073920040F82320C2E7083D3D4495F8604044EA8C1C85F860C053
:2014600095E7082093E700BFE40300204804002073B5224C2518064695F93020072A1ADDF7
:20148000224492F858309B09032B10D102A840F8046DFFF70DFF019AD0F81035D340DB072F
:2014A00007D40221304609F0C1F802B070BD012BF7D00321F6E7D3B2072BF6D8930003F127
:2014C000804303F5C043D3F8100540F00100C3F8100502F14000800080B209F09BF80029D3
:2014E000E3D095F9303054F82330002BDDD0012303FA02F2024BC3F80423D6E7E4030020CC
:20150000006000400E4B034493F93020072A02DD002109F08BB8D3B2072B10D8930003F11C
:20152000804303F5C043D3F8101521F00101C3F81015012303FA02F2024BC3F8082370470B
:20154000E4030020006000402DE9F04F002489B0CDE902445F4A604E604D01211368A2F5FE
:20156000C040012B80B206D1D6F804330B4202D009F050F80C430432AA424FEA4101EDD127
:20158000574B1B68012B0ED14FF4BE7009F042F84FF0A04344F00044D3F810350293514B9C
:2015A000D3F81035039314F0FF0F1AD04E4F01260025264210D0AB0003F1804303F5C043FB
:2015C000D3F81005D3F8101557F82530C0F30520C1F3014103B198470135082D4FEA460646
:2015E000E7D1002C72DA04AE0023049373604FF0FF33CDE906333C4F4FF0010800242546BA
:201600007B1993F96020531C47D0D2B222F0C00908A84FEAD90300EB030B02F007011BF87A
:20162000080C08FA01F1084237D007EB0900920990F9300057F820A0BAF1000F05D1032A36
:201640002BD1F05C0843F05401E0032AF9D001A8CDF80490FFF72CFE019B03F5E07350F88B
:2016600023301BF8180C0842C3F3014305D0022B13D1032A0BD1114604E0032B0DD1032A39
:2016800005D10221484608F0D1FF0134E4B2BAF1000F02D011464846D0470135042DAFD1C1
:2016A000A4B14FF0A0430299D3F8102503F540739142D3F8103502D10399994206D00292D6
:2016C0000393049A059B0692079397E709B0BDE8F08F00BF006100400060004020610040E8
:2016E0007C61004000030050E4030020074B00221A6082B01B680193019B054BD3F8080578
:20170000044B1B68C0B202B0184700BF00D1004000D000405004002013B5064C23683BB18F
:20172000054B1B6898470023236023680193019B02B010BD000101405404002070B5114BDC
:201740001960114B1C780546D4B9104E01221A700378C6F80C3541684FF47A720023C803FD
:20176000490C08F051FCC6F804052B7A084A5B01DBB282F810334FF480331360204670BD6F
:201780000820FCE754040020DC1700200000014000E100E0044B0122C3F804231A60034B95
:2017A00002221A70704700BF00000140DC17002010B50446002008F010FF0B4B1A78072A62
:2017C00010D8511C197009492270D1F80805012393400343C1F808350024002008F0FFFE05
:2017E000204610BD0424F8E7DB1700200000014000F5C070024B034A43F82020704700BFAC
:20180000000001403546526E10B54FF08043D3F80443620707D54FF4847008F020FF10B11F
:201820001E4B1B689847A30608D54FF48A7008F016FF18B11A4B00201B689847600608D51A
:201840004FF48C7008F00BFF18B1154B01201B689847210608D54FF48E7008F000FF18B196
:20186000104B00201B689847E20508D54FF4907008F0F5FE18B10B4B01201B689847A3054F
:201880000AD54FF4927008F0EAFE28B1054B02201B68BDE81040184710BD00BF580400201A
:2018A0005C04002060040020054B1B68082B01BF044B1868B0FA80F0400918BF002070477E
:2018C000300100103401001008B54FF080430022C3F80C21C3F81021C3F838254FF08052A4
:2018E00003F54043D2F80414C3F82015D2F80814C3F82415D2F80C14C3F82815D2F81014F1
:20190000C3F82C15D2F81414C3F83015D2F81814C3F83415D2F81C14C3F84015D2F82014D7
:20192000C3F84415D2F82414C3F84815D2F82814C3F84C15D2F82C14C3F85015D2F830141F
:20194000C3F85415D2F83414C3F86015D2F83814C3F86415D2F83C14C3F86815D2F8401467
:20196000C3F86C15D2F84424C3F87025FFF79CFF10B1384B384A1A60FFF796FF18B1374B02
:20198000FB22C3F81825FFF78FFF48B13449354B0A681B6822F00F0203F00F0313430B60DA
:2019A000FFF782FF18B1304B4FF400721A604FF08043D3F80024D20744BF6FF00102C3F853
:2019C00000242A4AD2F8883043F47003C2F88830BFF34F8FBFF36F8F4FF01023D3F8002232
:2019E000002A03DBD3F80432002B2FDA204B0122C3F80425D3F80024002AFBD04FF01022E3
:201A00001221C2F80012D3F80024002AFBD04FF010231222C3F80422154B1A46D3F80014BD
:201A20000029FBD00021C3F80415D2F80034002BFBD0BFF34F8F0D490E4BCA6802F4E06220
:201A40001343CB60BFF34F8F00BFFDE70A4B0B4A1A6008BD8C5600404881030000F00040CB
:201A6000E40E0040580200104096024000ED00E000E001400400FA05D00100200090D0036D
:201A800038B5084C04F108030546002818BF1C4623682BB11A6822605B6828469847F7E700
:201AA00038BD00BF6C04002020B9054B01225A70FFF7E6BF012802D1014A9070F8E7704754
:201AC0006404002038B5094C23786BB908486360A3602361E360FFF7CFFA0546FFF7DAFACC
:201AE00001232370284638BD8525FBE764040020A91A000038B5134CA378054603F0FF0051
:201B000073B115B16B6801209847002008F065FDE3680133E3600020BDE8384008F05FBD7B
:201B200008F05BFD25B1226913463BB92A602561E368002BECD1FFF7C3FAE9E79D42F7D03B
:201B40001B68F2E76404002038B5044638B1044D45F001054FF47A40A847013CFAD138BD0C
:201B6000C0B300000649074A074B9B1A03DD043BC858D050FBDCFFF7A7FEFEF787FB000003
:201B8000D4BB00000000002088030020FEE7FEE7FEE7FEE7FEE7FEE7FEE7FEE7FEE7FEE7F9
:201BA00038B5634C08F082FCFEF74AFC08F09DFD00F03EFB00215F4800F0C6FB00F024F997
:201BC000FEF71CFE08F06CFD00F0E2FBFEF7D2FB00F0F0FE01F038FA00F092FA2368022BD1
:201BE00007DD554A5549564801F0E2FF554801F0DFFF2368022B09DD50494F4A504801F08F
:201C0000D7FF514B5148196801F0D2FF2368022B09DD4A49484A4A4801F0CAFF4C4B4D483B
:201C2000196801F0C5FF2368022B09DD4349424A434801F0BDFF484B4848196801F0B8FF34
:201C40002368022B09DD3D493B4A3D4801F0B0FF4AF6CD31424801F0ABFF2368022B08DDB6
:201C60003649354A364801F0A3FF1A213D4801F09FFF2368022B09DD30492F4A304801F00D
:201C800097FF394B3948198801F092FF2368022B07DD294A29492A4801F08AFF344801F0AC
:201CA00087FF2368022B02DD324800F049F92368022B02DD304801F07BFF08222D492F48CA
:201CC00009F049FB00212E4800F03EFB4FF0FF3002F06CFD2368022B054607DD164A174997
:201CE000174801F065FF274801F062FF2368022B03DDD5B1A81C00F013F92368022B02DDFA
:201D00001D4801F055FFFEF761FB1F4808F0BEFCFEF796FD00F0A4FA0446FEF799FD14F0C0
:201D2000FF0FF7D108F0C9FBF4E72846E3E700BFE4010020E8010020C4B50000C9B500003A
:201D400068B50000CEB5000060B40000F1B5000050B4000000B6000034B400000BB60000C6
:201D600016B6000030B60000C80F002050B600005DB60000BA2B0020C2B5000010240020D1
:201D8000C002002072B60000B4B40000F8B5038806461546CBB14A2B2BD188291FD1174805
:201DA00008F0DEFC0446C4B1231D9D421FD1144D1248214608F0DEFC62692F682A60A26998
:201DC0000AB1E06990472F6007E00C4808F0C8FC044634B90B4B01221A704A233380012027
:201DE0000AE0A168201D08F05CFC2468F1E72468D9E7002303800320F8BD00BF78040020DA
:201E000004060020DD17002010B5064B064800241C7008F0A2FC21460448BDE8104000F042
:201E200093BA00BFDD17002078040020D401002070B50446049DE3610A4B1B78C4E90552B1
:201E40006BB1094D094B2E682B60201D08F029FC2E6021460648BDE8704008F09EBCA16056
:201E6000F7E700BFDD17002004060020D40100207804002013B5034C24680094FFF7D8FFF2
:201E800002B010BD0406002070B5094B1B7805463BB1084C084B26682360043008F00AFC6C
:201EA000266029460548BDE8704008F076BC00BFDD17002004060020D401002078040020D3
:201EC00010B5084B1B78044643B1043000F0FEF821460548BDE8104008F04CBCC0E9033377
:201EE000F6E700BFDD1700207804002010B50A4B1B78044623B10430BDE8104008F0E3BB0C
:201F0000064808F02DFC08B9012010BDA04201D00068F8E70020F8E7DD17002078040020FA
:201F200000B58BB002462821684602F019FE6946024801F03DFE0BB05DF804FBA5B60000DA
:201F4000F8B5054688B90B48BDE8F84001F030BEE30702D4384601F02BFE295D30460134B0
:201F600001F026FE082CF3D1F8BD0024024E034FF3E700BFA8B60000B9B60000B7B6000006
:201F800010B50E4C236813B90D4A136010BDFEF787FA2168D1E9002313448A681B1A1AB907
:201FA0001844074B1860F1E7D2E900142144091A8B4228BF0B469268F1E700BF8004002092
:201FC0007C040020014800F0D7B900BFE80100202DE9F8430388054653B1592B47D1872959
:201FE00020D125490B68002063B918B10B6001E0214A136059232B800120BDE8F883012057
:202000003346F1E7D3E902649442F8D000B10B6099680029EED0C868904206BF89689960FA
:202020000B46F5E78229E5D1134F4FF00009B8463C680026002CDDD0204608F05FFB98B1C6
:2020400022468821E06800F057F958B9E060A3682EB1B360C4F80890FFF792FFE8E7C8F82F
:202060000030F7E7FFF7AEFF2646A468E2E7002303800320C1E700BF8004002010B504468B
:20208000FFF7A0FFE3680B4A0BB1136833B90A4B1B68E3601368A360146004E0A34206D13B
:2020A000054A1268DA60BDE81040FFF769BF9B68ECE700BF8004002004060020024B1868DA
:2020C000003018BF012070478004002010B50B4A13688342044608D183681360FFF750FF5D
:2020E0000023C4E9023310BD1346002BF8D09A68A242F9D1A2689A60F0E700BF80040020D4
:20210000034A9179D379034A03EB012313807047BA2B0020C80F002010B50446FEF7D6F9A4
:20212000D4E900321344C01A024B98428CBF0020012010BDFEFFFF7F38B5836804460D460F
:202140009BB10A4804600220A07304F10C0098470238012801D9832D05D121462046BDE833
:20216000384000F005B80123A37338BD040600202DE9F8431C4F3D6889462C46844204D0A5
:202180000CB9BDE8F8832468F8E7002CF9D0174EA37BD6F8008063B10023A3738DB9A3688B
:2021A0003BB14C4505D034602A46832104F10C0098473B68A3420ED123683B60C6F800807A
:2021C000DFE7AC4204D022468721284608F087FA2D68E3E71346002BF0D01A68A242F9D1AD
:2021E00022681A60EAE700BF080600200406002038B5094B00221A70084B1C68012504B94C
:2022000038BDE37B2BB1E581002282212046FFF793FF2468F3E700BFE1170020080600200B
:20222000024B1878421C1A70704700BFDF170020064B8A221A70064A00231370054A1370FE
:20224000054A1360054A1360704700BFDF170020DE170020E01700200806002004060020EA
:202260002DE9F0411A4D2B780BB1FFF7C1FF194C22789AB1184E194F33780C21594378187F
:2022800017F80180D0E90170013303F01F03013A3370227090B9124B1E6826B92B78207885
:2022A0001844BDE8F0812B780BB1FFF7A1FF30463A46414608F013FA3668EEE7B8F1810F89
:2022C00004BF012383733A46414608F008FAE5E7E1170020E0170020DE1700208404002068
:2022E00008060020024A034B10781B7818447047E0170020E1170020F0B50B4E3378202BC5
:202300000FD00A4C0A4F24781C440C2504F01F046C433D1901333955C5E901203370002092
:20232000F0BD0120FCE700BFE0170020DE1700208404002038B5034C256808F0D0F925604A
:2023400038BD00BF0406002030B40A4C25680A462B4683420CD04BB950B1012105608173F6
:2023600020608381812130BCFFF7E4BF1B68F0E730BC70470806002038B1837B013B012B38
:202380009FBF024A0123C37313707047E117002082B002AA064B42F8043DCD21934204D3A3
:2023A0000448002102B0FFF7CFBF03F8011BF5E7E02B0020F801002038B5FEF749FA0C4CC6
:2023C0000C4D2378CD2B0CD0AC4207D3FEF740FAAC4234BF281B4FF0FF3038BD0134F0E7AB
:2023E00001342378CD2BF1D1AC42F9D3EEE700BFE02B00200000042070B5038805460BB3FD
:20240000912B37D11D4808F05EF910B3FFF7D4FF1B4C1C4B061EA4EB030401DB002C1ADA34
:20242000194B1B68002B09DD184A1949194801F0BFFB19482246314601F0BAFB0F4808F09F
:2024400039F904E04FF4A0610C4808F02AF991232B80012011E0A642F0DD0B4B1B68002B89
:20246000ECDD0A4A0A490B4801F0A2FB224631460A48E1E700230380032070BD0C060020EA
:2024800000000420E02B0020E4010020CAB6000064B5000068B50000D0B60000FAB60000FC
:2024A0002DE9F0410488772C064620D07E2C3DD0002C4ED1FFF7B4FE284D294B294FDFF888
:2024C000B08018702C602B6857F823202AB9264A13707723338001203EE008F803400021CD
:2024E0009368802098472B6801332B60EBE71F4A00231360194A1360184B1B4A1B68127894
:202500009A4204DC194B1B68002BF0D1E1E7184AD256002A19DA134A52F82320104B002058
:202520001978FFF7E9FE28B97E23D3E70C4B1B788B42D0D1094B0E491A688B5C03F07F0310
:202540008B540A4A136801331360044A13680133D1E7002303800320BDE8F081200600204C
:20256000D52B0020B8010020E21700201C060020D22B00200E4B01221A600022C3F80021F6
:20258000D3F80021002AFBD0D3F808050022C3F80021074BC0B2D3F80021002AFBD0D3F814
:2025A0000825012140EA0220596080B207F0ACBE00D0004010B590F84C30094A013380F85C
:2025C0004C300446034680212030FFF753FC054B224619780020BDE81040FFF78DBE00BF58
:2025E000B5250000D72B00202DE9F04103880446D3B1B3F5867F33D1822918D107F0B1FF53
:20260000BFF35F8F194B00221F681A60184B1E781A70F6B2BFF35F8F07F0A7FF154DDFF8F2
:20262000588055F8040F20B94FF486732380012019E090F8463027FA03F3DA07F1D590F84C
:20264000453046FA03F3DB07EBD5FFF74FFC0028E7D02B68424602211846FFF70BFCE0E7AD
:20266000002303800320BDE8F08100BF34060020E3170020A0010020A9260000074A1368EC
:2026800019431160064A0123117803FA00F00843C0B210700348FFF76FBE00BF34060020BF
:2026A000E31700201802002070B50446FFF71EFC20B304F120063046FFF718FC0546204628
:2026C00008F0E5F8012811D1C5B1002523460C4A84F84C507E213046FFF7CCFB094B22461A
:2026E00028461978BDE87040FFF706BE30B92DB93046FFF7E5FB2246034BF1E770BD00BF37
:20270000B5250000D82B0020D62B0020F8B5FFF787FD2C4B2C4C1870FFF782FD2B4B2C4D99
:202720001870FFF77DFD2B4B2B4F1870FF23237200262A4BE660636055F8041F39B92848FC
:20274000FFF702FE2048BDE8F84000F00BB991F8463091F845008A6C03F01F0343EA401332
:202760001F2BC6BF03F01F0339464FF0A04103F5E07342F08C0241F823602B6893F846109B
:2027800093F84500FEF770F82B6893F8450093F8463003F01F03012143EA4010FEF768FE99
:2027A0002B68217A93F845208A4201D0FF29C3D1227293F8462001239340E2681343E36043
:2027C000BAE700BFD82B002024060020D62B0020A0010020D72B0020000300507D26000032
:2027E0001802002070B50588672D044609D0792D31D0002D35D1FFF713FD1C4B18701C4B00
:202800001D601C4E1A4D0AE00A282B6810D00D280ED07E2B03DC5A1C2A60174AD054304645
:2028200007F08BFF431CEFD16723238001201BE05A1C2A60104A0025D5540C4B28461978B1
:20284000FFF75AFD0D4B2A4685211868FFF754FD18B97923E9E78529E8D1054B00221A6066
:20286000CFE700230380032070BD00BFD92B0020380600203C060020E417002004060020C4
:2028800008B505490548802207F050FF00210448BDE80840FFF758BD641800203C06002095
:2028A000280200201F2886BF00F01F00044A4FF0A042012303FA00F0C2F80C05704700BF72
:2028C000000300501F2886BF00F01F00044A4FF0A042012303FA00F0C2F80805704700BF4D
:2028E0000003005070B50D4C0546002145FA01F3DB070CD501EB41021319105D5E789B78F4
:2029000000F01F0040EA46102BB1FFF7DBFF01310429EBD170BDFFF7C5FFF8E71AB50000CC
:2029200030B40E480E4D0022032413185978135C03F01F0343EA41131F2BC6BF03F01F03D4
:2029400029464FF0A04103F5E07303320C2A41F82340EAD10F2030BCFFF7C4BF1AB5000078
:20296000000300500146014807F017BF4406002070B5054609480E4607F0F2FE044604B93A
:2029800070BD237AAB4206D1E168314003D063680BB1284698472468F1E700BF44060020BB
:2029A00008B5034807F0D9FEBDE8084007F0E8BD4406002008B5044807F00EFF0348BDE851
:2029C000084007F009BF00BF4402002038020020014807F049BF00BF3802002038B50E48CD
:2029E00007F00AFF054650B10C4807F005FF0446286030B92946084807F012FF25462846E1
:202A000038BD00F029FA04F19C01A4F8800004F1820000F0ABFAF2E738020020440200205B
:202A200010B501460446074807F010FF48B12168054807F0F5FE21460248BDE8104007F095
:202A4000EFBE10BD380200204402002010B501460446094807F0FAFE68B12468B4F88010C5
:202A6000204600F06DFA04F19C0104F18200BDE8104000F08DBA10BD3802002030B1054B0C
:202A80009B68C01A044B8010584370474FF0FF30704700BF50020020ABAAAAAA38B50D4DE2
:202AA000002818BF05460C4807F05AFE044610B94FF0FF3038BD211D284607F04AFF20B1F6
:202AC0002046BDE83840FFF7D9BF204607F081FEECE700BF12B500008806002008B50246FD
:202AE00007F0F9FE42B1431C06D0044B1268185C104100F0010008BD0020FCE7141900202C
:202B00002DE9F843DFF87C90044688460025204659F82520FFF7B2FF01466AB196685EB132
:202B2000104607F0CEFE014607461046FFF7D6FF012801D13846B0470135082DE7D12046CE
:202B4000FFF79CFF0B4B00221A542046FFF796FF094B21461A54094807F00CFEB8F1000FDA
:202B600005D021460648BDE8F84307F059BEBDE8F88300BF14190020F418002088060020D7
:202B8000500200206806002050B10368072B06D8044A52F823301B1A58425841704700208F
:202BA000704700BF6806002010B50446FFF7ECFF10B1A160012010BD054A1368072BFAD8A3
:202BC000581C1060034A2360A16042F82340F1E74C07002068060020F8B5104E05460C4622
:202BE0000C272146284607F076FE431C16BFB368002007FB003007F0ECFDFFF73FFF014666
:202C0000284607F05EFE044628B101462846FFF765FF0028E5D02046F8BD00BF5002002098
:202C200038B505460B4807F09BFDFFF727FF0146284607F046FE044601462846FFF74EFF2C
:202C400028B921462846BDE83840FFF7C5BF204638BD00BF88060020F8B50D46164607F00C
:202C600062FE044620B10024012006B13460F8BD2846FFF713FF0130F5D1104807F0F4FDE7
:202C80000028F0DC0E480F4F07F06AFD05461DB9201C18BF0120E8E72846FFF7EFFE3B5C22
:202CA0002BB9291D44B1204608F00FFA0446284607F08FFD0546EAE70C46F8E75002002094
:202CC00088060020F41800202DE9F3410D46064620B90024204602B0BDE8F081224B002970
:202CE00008BF1D4601AA2946FFF7B6FF0028F0D02846FFF7D3FE421C074625D11B4FDDF8E8
:202D00000480384607F078FD044688B9B8F1000FDFD04046FFF7C2FE431C1EBFBB680C2488
:202D200004FB003400212046FFF7EAFE002CD0D021460F4807F031FD2046FFF79FFE2946E4
:202D40000746201D07F002FE3946304607F0B9FD72680446002107F0A1FB01232246314675
:202D6000044807F0C3FDB5E712B5000050020020880600201419002070B50A4604460D466E
:202D800000230146054807F0B1FD002306462A462146034807F0AAFD304670BD14190020B8
:202DA000F41800200A4601230146014807F09EBDF41800200A4600230146014807F096BD18
:202DC000F418002008B507F086FD431C07D0054B9B680C2202FB003000B1043008BD0020E2
:202DE000FCE700BF5002002010B507490B88834208DB064C228880B20244181A088022809F
:202E0000012010BD0020FCE72A1500202C150020014B1880704700BF2A1500200048704749
:202E200050070020014B1888704700BF2A150020034A044B10781B781844C0B2704700BF5F
:202E4000241900202C15002008B5FFF7F1FF014B184408BD5007002070B50D4D0D4C2A78B3
:202E600023881344802B06460FDC0B4908F073FA2B781E44FFF7E8FF22880146304608F074
:202E80006AFA28782388184470BD0020FCE700BF241900202A1500205007002008B5FFF752
:202EA000C7FF024B1B88184480B208BD2A15002010B50146FFF7F2FF4318802B0FDC094B72
:202EC000013800B25A18040405D5074B187808441870012010BDC45C14540138F3E7002054
:202EE000F8E700BF500700202419002038B5094D094C0A481A22002107F0D0FA2946204683
:202F000007F024FD294604F10800BDE8384007F01DBD00BF12B50000902B0020A02B0020F3
:202F2000044A00231380044A1380044A1370FFF7DDBF00BF2C1500202A150020241900206D
:202F400038B50C460546FFF7EBFF802C28BF802422462946034808F0FEF9034B1C8020466F
:202F600038BD00BF500700202A15002010B51A220C46054908F0EFF9204610220349BDE8BD
:202F8000104008F0E8B900BFA02B0020902B002010B51A220C460146044808F0DCF92146A9
:202FA00010220348BDE8104008F0D5B9A02B0020902B0020024B23F810100120704700BF34
:202FC000A02B0020014B33F810007047A02B002008B5044B0D3803EBC00007F0B7FC012013
:202FE00008BD00BF902B0020024B0D3803EBC000704700BF902B00200149024807F0A9BCF1
:2030000012B50000982B002070B505460D480E4607F0A6FB044600B970BD012D0AD1A36811
:203020001BB9204607F0D5FBF4E7304698470028F7D0F1E7002DF4D16368002BF1D0984710
:20304000F5E700BFD0070020054B10B51B689847044B5B689847044BBDE810405B68184710
:20306000F0B3000034B4000050B4000010B50848084CFEF709FF0748FFF7D2FD00B910BDC1
:20308000037A5B08037201462046FFF7A5FDF5E7502200205C0200200146014807F043BC24
:2030A0005C020020F8B531F0020307460E46154601D0062933D13946194807F034FC04466E
:2030C00058BB66BB3346082239461548FFF7FCFD044620B307F057FCA080FDF7E1F9237A5C
:2030E00020602B44102BA8BF10232372022E204608BF0C3507F035FCED010028A38814BF9D
:203100000A221922ADB2C2F16401554301FB03556423B5FBF3F5A58001E0062EDDD1F8BD29
:203120005C02002038B505460420FFF74BFF294604B20E4807F0F7FB034658B9082229461E
:203140000A48FFF7C1FD024618B1C48007F01BFC908038BDC28804EB840464005A2112FB54
:203160000144642294FBF2F4C480F2E75C02002038B50848074DFFF753FD044604B938BDA1
:2031800021462846FFF7F8FD21462846FFF724FD0446F3E75C02002010B500210548FFF7B8
:2031A00003FD0023044A05484FF4E131BDE81040FEF760BE5C0200206D3000005022002047
:2031C000F8B5FDF76DF90F4F044600250D2007EB0516FFF709FF314607F0BBFB68B107207F
:2031E000FFF7F0FE337B83420AD1B068201AB0F5206F8CBF00200120F8BD0135102DE5D1AD
:203200000020F9E79408002070B5144D00242E460D20FFF7E9FE05EB041107F09AFB013404
:2032200008B9102CF4D12401103C0FD10720FFF7C9FE3073FDF734F9B0600D20FFF7D4FECE
:20324000BDE870400146054807F080BB60191022A0F1100108F07FF8E6E700BF940800204F
:2032600030B591B0054600F063F84FF6FF73984204D14FF0FF34204611B030BD4022002123
:20328000684607F00BF9274B1A782AB901221A7007F0F8FA244B18707DB10720FFF792FE36
:2032A00058B9214C23780BB90123237021780720FFF780FE237801332370FFF79DFE6A46A3
:2032C000C1B21A4807F0D6FBFFF796FE08B34FF6FF73ADF800300D20FFF786FE014602A8E8
:2032E00007F034FBFFF7B0FD0E90FFF79BFD0F90684607F0B2FC0446002DBCD0FFF7D8FD19
:203300000028B6D0FFF78AFD0146684607F0EDFCB1E70E20FFF768FE0146684607F016FB8E
:20332000D9E700BF2519002026190020C52F0000014B1888704700BF700300202DE9F04121
:20334000012986B006460F46144603DC002006B0BDE8F08103A907F00FFD0A2203A904F1CB
:20336000100007F0F8FF9DF81130002B44D0B51C02AA01A903A807F0C1FB9DF81380B8F1E4
:20338000000F4CD0029B23B16A7815F8023B03EB0223B8F1020FA38332D13249204607F097
:2033A000D5FA6B78237015F8023B63709DF81580B8F1000F4DD0019B002B37D06A7815F8EF
:2033C000023B03EB0223029A9BB2E38302B9A383B8F1020F2DD1234904F1080007F0B6FAA5
:2033E0006B78237215F8023B6372A81B3B1A8742C4E90E53AADBAAE7B378A376F51CB7E73E
:20340000B8F1030FD2D105F108021346611E13F8010D01F8010F9D42F9D11546C6E7114949
:20342000204607F093FAA4F81C80BFE7A38BE383CEE7B8F1030FD8D105F10802134604F1C9
:20344000080113F8010D01F8010B9D42F9D11546CBE7044904F1080007F078FAA4F81E80A2
:20346000C3E700BF12B50000074A084913681844884289BF064B10600C221A6088BF4FF0A2
:20348000FF331846704700BF6C020020000004208C2B002070B50B4E05460C46102C07D867
:2034A00074B12B68686807492246BDE8704018472B68686810223146984710B9103CEDE744
:2034C000204670BD4AB700002DE9F04F8FB00746079114460025079B1B78B3B1DDF81C8056
:2034E00000E0B046464616F8013B0BB1252BF8D1079B98450ED0A8EB03094A463B6807997C
:203500007868984728B14FF0FF3528460FB0BDE8F08F4D4498F80030002BF6D098F801304C
:20352000002BF2D04FF0000A3146334611F8012B2B2A16D00AD8202A16D0232A17D0A2F11C
:203540003100082840D84FF0000918E02D2A04D0302AF4D14AF0100A01E04AF0010A0E469A
:20356000E2E74AF0060AFAE74AF0020AF7E74AF0080AF4E70A2303FB0929A9F13009334663
:2035800016F8012BA2F130010929F3D91A782E2A36D15978A1F13000092803F1010228D883
:2035A00000261178A1F130000928134602F101021AD91A786C2A40F091805A786C2A22D163
:2035C0004AF0800A023321E02A2A0AD1D4F80090B9F1000F04F10404B8BF4AF0010A0B46A3
:2035E000D4E74FF00009D1E70A2303FB0616303ED7E72A2903D1266802330434D9E7134662
:203600004FF0FF36D5E701334AF0600A1A78642A00F0978000F28A80462A00F0B48076D89D
:20362000252A00F0C5806BD8002A3FF46EAF013307930AF4E063B3F5806F00F05B8200F2E4
:20364000BA80B3F5807F00F0EF80B3F5407F7FF442AFB24BB24A20681AF4804F18BF1A46CA
:203660000DF13303043400211E4650EA010C40F07982F61A01BF302203F8012C012603F182
:20368000FF3378220336B14503F8012C4FF0300203F8022C88BFA9EB06094FF0230298BFC8
:2036A0004FF000091AF0010AA3F1030803F8032C06D149463846FFF7EDFE00287FF423AFB2
:2036C0003B68786832464146984700287FF41BAF3544BAF1000F00F03C82B2E1682A09D144
:2036E0005A78682A02D14AF0200A6BE701334AF0400A8BE77A2A04BF4AF0600A013385E708
:20370000412A4CD0452A92D14AF4424A8FE7582A33D004D8472A8AD14AF4A13A87E7612AD1
:203720003AD0632A83D14AF4A06A80E76E2A3CD00AD8662A24D029D3672A2AD0692A7FF458
:2037400076AF4AF4245A72E7732A2BD007D86F2A10D0702A7FF46BAF4AF4407A67E7752A33
:2037600005D0782A7FF463AF4AF4C85A5FE74AF4106A5CE74AF4885A59E74AF4B24A56E7D5
:203780004AF4007A53E74AF4844A50E74AF4024A4DE74AF4813A4AE74AF4C13A47E74AF467
:2037A000E13A44E74AF4806A41E74AF4E06A3EE74AF4C06A3BE7B3F5C06F2BD0B3F5E06F73
:2037C00000F0DF81B3F5A06F7FF485AEB9F1010F23688DF8203038BF4FF001091AF00106D1
:2037E00004F1040409F1FF3807D141463846FFF751FE00287FF487AE45443B68786801227A
:2038000008A9984700287FF47EAE002E00F0A181414617E13B684349786801229847002859
:203820007FF471AE013556E6002EACBF2AF0100A01261AF400520AF0E003069243D0402B3D
:203840003AD009D8002B3AD0202B11D000220023CDE90023002319E0602B30D0802BF5D1E6
:20386000073424F0070303F10804D3E9002303E094F90020D3170434002A73F10001E7DA0E
:20388000524263EB4303CDE90023012305930AF4C053B3F5805F00F0EB80B3F5C05F00F0C1
:2038A000EC80B3F5006F40F00381DDE900230DF1360BCDE9022348E0B4F90020DAE722688E
:2038C0000434D317D8E7402B1FD009D8FBB1202B14D00023059300220023CDE90023D6E75B
:2038E000602B14D0802BF4D1073424F0070303F10804D3E90023CDE9002304E02278002337
:20390000CDE900230434069BC0E72288F7E72368002219460434CDE90012F4E76AB70000BE
:203920007BB700009DB70000DDE902010A22002306F06AFB30320BF8012DDDE902010A2206
:20394000002306F061FBCDE90201DDE902231343EAD10DF13603A3EB0B030293029B41F601
:2039600008029E4288BFF61A0AEA020241F2080398BF00269A4202D1002E08BF0126029BEB
:2039800041F608018A42334440F09680DDE900120A4300F091807D497D4A1AF4804F08BF07
:2039A0000A464FF002080092069A82B1059A002A40F087800AF00602022A00F08780062AB4
:2039C000744A009904BF11464FF001080091434499458CBFA9EB03094FF000091AF00103F7
:2039E000059304D11AF0100F74D04E449946D7E90030B8F1000F05D04246009998470028D7
:203A00007FF481AD029BB2461D44BAF1100FD7E9003066D8BAF1000F05D052465E4998476A
:203A200000287FF470AD3B68029A786859464544984700287FF467AD059B3544002B00F0C5
:203A4000888049463846FFF725FD002800F0818059E502F0070130310BF8011DD10841EA62
:203A60004371D8080A46034652EA0301F1D170E7DDE900230DF1360BF6E7484B48491AF489
:203A8000804F18BF1946DDE900230DF1360B52EA03003FF45EAF02F00F004FEA131C085CAD
:203AA0000BF8010D100940EA037002466346EEE70DF1360B002350E74FF00008CDF8008054
:203AC00072E7384A4FF00108009280E74FF00108354AF9E749463846FFF7DCFC002886D0CA
:203AE00011E510222C49984700287FF40CADAAF1100A8AE7D4F800B00434BBF1000F2CD065
:203B0000D84698F8003008F1010223BBA8EB0B08002E02DBB04528BFB046C1458CBFA9EB85
:203B200008094FF000091AF0010606D149463846FFF7B0FC00287FF4E6AC3B68786842465D
:203B40005946984700287FF4DEAC4544002E7FF478AF4D44BFE49046D3E7DFF850B04FF097
:203B60000608D5E700F00F0C4FEA111E12F80CC003F801CD4FEA101C4CEA017C60467146F4
:203B800073E5236804341D60A5E400BF8CB700008FB7000094B700005AB700006AB700003F
:203BA0007BB7000092B70000C7B8000096B700000FB407B504AA054852F8041B0192FFF752
:203BC00083FC03B05DF804EB04B07047700200201FB51446074A0292CDE900011A462146E1
:203BE00002A8CDF80CD0FFF76FFC009B00221A7004B010BDEFAD000010B501210C20FFF7AC
:203C0000D9F9024BBDE810405B68184728B40000014B9B68184700BF28B40000014B1B6A78
:203C2000184700BFF0B30000014B5B6A184700BFF0B300000C4B13B51B6898470B4B0446D0
:203C400001A918209B6A984701280BD0002C0198B8BF15248028D4BFC4EB0000C4F1800006
:203C600002B010BD0020FBE728B40000F0B3000037B50B4C6946A56A1820A84770B901A949
:203C80000420A84730B90199E36A21F0020101910420984700F006FAFFF7C0FF03B030BD53
:203CA000F0B3000013B5FFF7BDF8032831D0FFF7AFFF00282DDB0E20FFF796F9164906F0E6
:203CC00048FE10B30D20FFF78FF9134906F041FEF8B9FFF775FA044608B9FFF795FA0820D1
:203CE000FFF770F960B10223ADF80430FFF796F883788DF80630094B032101A8DB689847D9
:203D00003CB9074B9B68984703E0FFF775F90028D8D102B010BD00BFBA2B0020F0B300007C
:203D200050B4000070B590F82D100129054694BFCC1C052406F0A6FD0121A14001392B4675
:203D4000B0FBF1F4044A04FB110105F10C00BDE87040FEF78FB800BFD93D00002DE9F047BF
:203D60000D468B6892F82C908046506B1446D3E9006706F0FFFC6868FEF752FEA968124848
:203D800006F04EFD2946114806F04AFD606B06F0E7FC60B10023A3852046FFF7C3FF4B462E
:203DA000424639463046BDE8F04706F00DBE04F10C00FEF785F82146054806F0DBFC21468E
:203DC000044806F02DFDEAE77802002090020020F4090020840200202DE9FF4704460028C9
:203DE00000F0BB80406B06F0BBFC0546002800F0B4804068FEF72AFE59490D20FFF7E8F83F
:203E000001210820FFF7D6F8FFF7F6FE002866DBFFF704F8534E90F802907768FEF7FEFFC3
:203E20008046FFF73BF801464046B847FFF7E4F8D6F818800746C04708B101200BE09FB126
:203E4000B3680193FFF72AF8019B984788B102280CBF01200420AA68002A7ED0032848D8D8
:203E6000DFE800F03F5C4A7BF36998470028E7D0E3E7002FEFD1FCF753FB6FF0180AF76936
:203E8000AAEB000AB84720B9FCF74AFB1AEB000FF8D4C047D0B1FCF743FB6FF02808A8EBB8
:203EA0000008B84720B9FCF73BFB18EB000FF8D4B84790B13369032103A898470328BCD1D9
:203EC0009DF80E304B45B8D10020C4E7B8470028E1D1736998470028DDD00220BBE70520D9
:203EE000B9E794F82C300020013384F82D0084F82C30224629460EE0002384F82D3094F818
:203F00002C300133DBB284F82C30127A9A421ED8224629460220FFF721FF1EE094F82D3058
:203F20000133DBB2052B84F82D3007D994F82C300021013384F82D1084F82C3094F82C1041
:203F4000137A994203D3224629460120E3E72046FFF7E8FE686806F0AEFC04B0BDE8F087DF
:203F6000BA2B0020F0B300002DE9F04107460E208846FFF739F8454B454C1A78054622B909
:203F800001221A7006F07EFC207023780BB901232370217807204B1C2370FFF70BF8012189
:203FA0000C20FFF707F83B4806F0DAFB0446002840D1394806F020FC044600285BD0294670
:203FC000201D06F0C3FC002304F13000C4E90C30A38506F0C2FB21462E4806F0DEFB606B6C
:203FE00006F0F0FB072846DC2C4806F005FC0546002834D02A4806F0FFFBA86058B3FEF743
:20400000EDFC686018B30620AE68FEF7DBFFC0B2D0B13072C6E900782946606B06F0BDFB75
:20402000606B06F09DFB85422DD12046BDE8F041FFF778BE2946201D06F08BFC0028CED10A
:20404000204606F0C6FBB1E708233372E2E7A968134806F0E5FB2946104806F0E1FB606B6C
:2040600006F0B0FB38B921460A4806F083FB2146094806F0D5FB4146384601230622BDE80D
:20408000F04106F0A1BCBDE8F08100BF271900203A190020F409002084020020900200207F
:2040A0007802002008B5054806F096FB044806F093FB0448BDE8084006F08EBB90020020DB
:2040C000780200208402002010B509490B881A18B2F5A06F0AD8074C2288C24206D480B21F
:2040E0000244184408802280012010BD0020FCE70824002080150020B0F5A06F9DBF024BA5
:2041000018800120002070470824002007289ABF024B33F810000020704700BF2E150020BA
:2041200007289DBF024B23F810100120002070472E15002010220249024807F00CB900BFCF
:204140003E1500202E150020044A00231380044A1380044A1370FFF7EDBF00BF0824002026
:20416000801500204E19002010B5064C10220021204606F093F9002323814FF6FF73238090
:2041800010BD00BF3E1500202DE9FF47154DDFF85C9095F80780DFF858A005F108030FCBE1
:2041A0006C4684E80F0000F0BDFF0F4806F0D8FA064626B9FFF7C8FF04B0BDE8F087776870
:2041C00057B1B9F80030BAF800202C3B2C329BB22A4441462046B847304606F0FAFA06460C
:2041E000E7E700BF18240020C80A00200824002080150020F8B5204B204E1B79F371337EB4
:20420000FF2B06F1180506F1080419D194E80F0085E80F002946204600F0B4FB184C00F0A4
:2042200081FF23882833F2188121F1520023538006F0F4FE2388134A1344C0435880F8BD3C
:20424000114A27463B4603CBAB42106051601F4602F10802F6D195E80F0084E80F000A4BB4
:204260000A4C03F1100518685968224603C20833AB421446F7D1D1E7782200201824002059
:2042800080150020402400204E1500203024002038B504460B480D4606F062FA08B90120DD
:2042A0000FE00379A34204D143799D4204D0FF2B02D006F08EFAF1E78368002BEFD0984764
:2042C000002038BDCC0A00200146014806F065BACC0A00202DE9F84F424B1B783A2B82468E
:2042E0008946934609D1404B1A88404BD356002B03DBBDE8F84FFFF727BF3D4C238973B929
:20430000638963B9A38953B9E38943B9238A33B9638A23B9A38A13B9E38A002BE9D0237AAC
:20432000FF2BE6D0334B344D1B6B984705F11006324A3746A8462B4603CBB34210605160F1
:204340001D4602F10802F6D12D4E29493288264D303292B2B2F5A06F28BF4FF4A062002371
:20436000328001F13000303A2B8006F0FFFF602323603A23A371234B1B79E371224B0FCB4C
:2043800088E80F001D4B1B78FF2B05D1BAF1040FAFD1B9F1020FACD118491B4800F0F2FA8D
:2043A000B5F8008008F12803E21804F803A0584682F8019001F0F6F83188144B283943F8D7
:2043C000080089B2A3F12C0006F034FD2B883B4400225A8006F022FE2B881F44C04378805E
:2043E000BDE8F88F4E19002080150020402400201824002060B40000302400204E1500206A
:20440000082400207822002020240020442400202DE9F0411A4C1746602222603A22A2712D
:20442000184A9DB288461279E271291D064689B2204606F0FFFC0EB31022314604F1180084
:20444000114E06F088FF04F1180104F1080000F099FA338828331A1903F804800023577040
:20446000538006F0DBFD33881C44084B2C35C04360851D80BDE8F04100F014BCBDE8F0819B
:204480001824002078220020801500200824002008B50448FFF718FF0348BDE80840FFF7C1
:2044A00013BF00BFA80200209C0200201FB5084B0C469B690146684698471022214668464B
:2044C00006F03AFFB0FA80F0400904B010BD00BF60B4000070B506460B480D4606F040F9B0
:2044E000044608B9204670BD1DB9204606F071F9F6E7A3689E42F8D129462046FFF7D6FF51
:204500000028F2D0EEE700BFD00A002030B50F4B85B05B6905460C466846984721462846EC
:20452000FFF7D8FF694604462846FFF7D3FF11234CB1844201D0013B03D1231A5842584137
:2045400002E06469F4E7204605B030BD60B400002DE9F843904606460F469946FFF7BAFF5F
:20456000414604463046FFF7B5FF0546B8F1000F0DD060B902464FF0FF3341463046FFF7A5
:20458000E7FF054618B900242046BDE8F8837CB9154806F031F904460028F4D000234361C0
:2045A0000146124806F0F9F8114A1368013313600822B918C4E9019604F10C0006F0CBFEF7
:2045C00039463046FFF7A2FF58B1D4F81480656139463046FFF79AFF0028D5D1C4F814807E
:2045E000D2E76561D0E700BFB4020020D00A0020540C002008B5054B054800221A6006F08A
:20460000EBF80448BDE8084006F0A7B8540C0020B4020020D00A00202DE9F84305461848DD
:20462000174EDFF86480174F06F09AF804460CB9BDE8F883204606F0CCF863688146B3B91F
:20464000304606F08DF860B92146304606F092F82146404606F0E4F83B68013B3B604C4628
:20466000E5E74369A342EFD006F0B3F8EBE75A1CF5D0AB428CBF5B1B00236360EFE700BF47
:20468000D00A0020540C0020B40200202DE9F0410D480D4E0D4F0E4D06F062F804460CB9BD
:2046A000BDE8F081204606F094F821468046304606F060F82146384606F0B2F82B68013BB7
:2046C0002B604446EBE700BFD00A0020B4020020540C0020004870475E1500202DE9F34108
:2046E000154D0446CDE900150E4690461F46202203460321114806F015FC01282B4618D122
:204700002A6810702A682046023204F1100150F8044B42F8044B8842F9D11868089B4361DA
:20472000099B867480F813800777836102B0BDE8F0810020FAE700BF600C0020982300207F
:2047400070B50D4D0D4C0646256060352068A84201D3002070BD03781BB9236820332360D8
:20476000F4E7827C3146D208023006F0E5FD0028F3D10120EEE700BF98230020600C0020FD
:2047800013B58023074C00930194034620220321054806F0C7FB10B9206802B010BD00208F
:2047A000FBE700BF580C0020902200200C490D4A30B5116048F2FE04603113688B4202D316
:2047C0000023184630BD1D783DB1451C02D09D7C854202D15D88A542F3D020331360ECE7DA
:2047E00090220020580C002037B580230F4D0093044603460195122207210D4806F092FB88
:2048000001282B460FD12A6810702A682046023204F1100150F8044B42F8044B8842F9D126
:20482000186803B030BD0020FBE700BF5C0C002014230020F7B58023214C009305460346D5
:204840000E4617460194202203211E4806F06AFB012832D12368187023682A46023305F186
:20486000100152F8040B43F8040B8A42F9D12068C774DEB9012303752368134801229A74E1
:2048800040F2FF230380002343808380C38003814FF480734381FF2303736B7B4373EB89EF
:2048A000C381FFF7A1FF206803B0F0BD002303753146183005F00CFFDEE70020F4E700BF5D
:2048C000580C0020902200206E15002013B58023074C00930194034612220721054806F011
:2048E00021FB10B9206802B010BD0020FBE700BF5C0C00201423002038B50546C8B10D4826
:2049000040F2FF2303804FF480734381FF230373EB7B437300242B8A44808480C4800481A8
:20492000C381FFF7D3FF044A106008B106F020FB2C7038BD6E1500205C0C002038B50E4DDF
:204940000E4C256060352068A84206D300F034FB0B48BDE8384005F0ADBE037843B1037DBA
:2049600033B91830FDF7D8FB10B12068FFF7C4FF236820332360E6E790220020580C0020B6
:20498000F82300202DE9F84F0A8848F2FE039A4205460F462ED00A78FF2A2BD01C491D4AC6
:2049A0000A600024A046894602F1600A9B46D9F8006056450AD314BB2C806C80AC80EC80CE
:2049C0002C816C81AC81EC81BDE8F88F33786BB1B37C012B0AD173885B4507D0B11C3846BD
:2049E00006F0E0FA80459CBF344680462036C9F80060DCE70120FFF7D9FE0446DBE7A31C94
:204A0000123453F8042B45F8042BA342F9D1DBE7580C00209022002070B5094EB0684508C2
:204A200005F030FF044605F02DFF2402B268A4B22044B0FBF2F302FB1300284470BD00BFF5
:204A40007822002073B53E4B1A88B2B95A88A2B99A8892B9DA8882B91A8972B95A8962B9CB
:204A60009A8952B9DA8942B9FD2119805A809A80DA801A815A819A81DA81324C00F0B2FD9C
:204A800000F00EFA602200212F4805F007FD00214FF48E72204605F001FD2C4B20221A700B
:204AA0002B4B18221A704FF4A063236040264EF660232671A360FFF7AFFF00254FF47A7333
:204AC000E06023612575234C48F2FE0323802A462B466580A580E5803146CDE900552046F3
:204AE000FFF7FCFD20461C4906F046FA294601222046FFF79FFE40F2FF264FF48073204648
:204B0000E38126806580A580E58025816581A581FFF76AFE4FF40073204626806580A58040
:204B2000E58025816581A581E381FFF75DFE0B484FF4F05102B0BDE8704005F0B2BD00BFA8
:204B40005E150020782200209823002095230020942300206E15002010240020F82300204C
:204B60002DE9F04F814687B015468846002965D02AB9334A07B0BDE8F04F06F04CB91488C9
:204B8000DCB95388D3B99488BCB9D388B3B914894CBB52894FF6FF739A420FD1EA7B0292D6
:204BA000AA7B01926A7B00922B7B264A06F033F90446204607B0BDE8F08F0024DFF88CA0DC
:204BC000DFF88CB027462646AB19AA5D5B7803EB02239BB2ABB9002F15DB06D00137023622
:204BE000102EF1D1E5E71C46E8E7A8EB040109EB04005A4606F00FF90444A045D9D9012783
:204C0000EDE7002F17DC09EB0400A8EB04013EB15246059306F0FFF80444A045059BC8D994
:204C2000A8EB040109EB0400074A06F0F4F80444A045D4D8BDE74FF0FF37F1E70C46B8E7F6
:204C4000A4B70000B3B70000C9B70000C7B70000C6B7000013B5044601460120FEF7D4F9D8
:204C600038B9064BDB680193204602B0BDE810401847FFF769FA002002B010BD50B40000B3
:204C8000002108B50846FEF7BFF9024618B902210348FDF74FFBBDE80840FFF755BA00BFC5
:204CA000C002002070B5364E338888B02BB3B3F5A06F14D8334C238B6BB9638B5BB9A38B74
:204CC0004BB9E38B3BB9238C2BB9638C1BB9A38C0BB9E38C1BB12C4D6B6B984710B9FFF7FD
:204CE00033FA0AE0237EFF2B45D02848FFF748FD28B133880BB100F04BF808B070BD2B6C13
:204D000004A89847002832D12048FFF719FD80BB1E4806F064F90646E8B900F035F9044620
:204D20000028DCD0204606F07FF9054678B9214602A806F02CF90923019500932A4601233A
:204D400002A9204600F05CFC05460028C7D0284600F076FC10E006F040F904460028E1D1DD
:204D60003046EB6C9847304606F03BF9B7E704ACD8E7064CD6E70020FFF76CFFAFE700BFF5
:204D8000082400201824002060B400003024002008B5012000F0FCF9034B1B881BB1BDE8BE
:204DA0000840FFF77FBF08BD0824002038B5044610462388002B3DD0B3F5507F48D102293B
:204DC00031D006D8012926D04FF450732380012038BD872907D08829F6D11F4B9A420ED1F1
:204DE00005F071FCF0E71D4B002103F580729D69A84208BF198220339342F8D3E4E7184B94
:204E00009A42E1D105F05FFC0028DDD0FFF796FDFFF748FFD8E7002AD6D0124B05201A608E
:204E200000F0B6F9F4E7104B1B88002BCCD0FFF7AFFFC9E7FDF7F4F90C4B40211870064870
:204E400005F02FFC00F04CF9094B5B689847BBE7002323800320BBE7640C00202C290020D5
:204E6000F82300201C29002008240020DA2B002060B40000074B1B683BB12833186840B180
:204E80005A68054B1978FDF755BA044B1B681833F4E7704724290020DA2B00201C290020C6
:204EA00008B5044805F098FC0348BDE8084005F054BC00BFD0020020740C002038B505469A
:204EC0000A4805F04DFC044600B938BDAC4209D12146064805F04EFC21460548BDE83840BD
:204EE00005F09EBC204605F074FCECE7740C0020D002002038B5054610B90024204638BDB3
:204F0000084805F02DFC04460028F6D010222946201D06F011FA0028F0D0204605F059FC74
:204F2000F1E700BF740C0020F8B50E46054610B900242046F8BDFFF7DDFF044648B9104871
:204F400005F05AFC04460028F2D001460D4805F031FC2B4603F11007251D186859682A46A5
:204F600003C20833BB421546F7D13EB1314604F1140005F0ADFB00232377DAE70123FBE781
:204F8000D0020020740C002038B50A4805F0E8FB002504460CB9284638BD251D284606F02B
:204FA00043F810B1437C002BF5D1204605F011FC0446EFE7740C002038B50D480C4D05F08D
:204FC000CFFB044604B938BD237F63B904F11400FDF7A2F838B12046FFF770FF284605F09F
:204FE000BFFB0446EEE7204605F0F3FBF9E700BF740C002073B5114D0646284605F01EFFFE
:205000000F4B1C88001B80B2ADF80600BDF806003044202205F1080180B205F0E3FF04F12C
:205020002801BDF80620294405F0DCFF18B140BA80B202B070BD4FF6FF70FAE7182400206A
:2050400080150020F8B545781A4FED00064608350221481CA84201DB00200CE072185478A3
:2050600002340C44AC4207DD134B0420D21A0221FFF730F90220F8BD735C012B0AD00BD39E
:20508000632B0BD003F0C003802BEDD0C02B0CD0402B08D0A1B2DCE781B2DAE7BB6B3046D9
:2050A00098470028F6D10120E5E7034B1B7EFF2BF9D0D9E760B400001824002008B5074A1D
:2050C000D379012B06D8002203201146FFF702F9002008BD013BD3710120FAE7182400202A
:2050E00008B5FFF741F8FFF7ADFCFFF7D1F900F0FFFB0A4B4FF480621A80094B00221A8255
:205100001A86A3F85020A3F87020A3F89020A3F8B020A3F8D020A3F8F02008BD7E15002055
:205120002C29002070B5164C238833B3154E328803F12701914204DBFFF706F80024204679
:2051400070BD1149114D0978A971283A03F12801D21A294405F1280006F008F920884042B8
:2051600000B2FEF7B1FF04460028E8D03188283989B2284605F05EFEE1E70124DFE700BF28
:2051800080150020082400204E1900201824002004282DE9F74F1DD08649874A874C0C60D7
:2051A000052814608946924654D1854B1B681B8A002B00F041810C3C1460824A82480C60EF
:2051C00000231380814A03601380814B08221A70FFF750FE7B4D2988002900F02D817D4C8B
:2051E0007A4B7D4F01F13002083189B220461A8005F020FE60232380714B3A881868037DCF
:20520000E3711123A3712B882832111908335BBA00268B80CE80038A1353438A4B800FC88A
:2052200004F1180585E80F00294604F10800FFF7A9FB604B04F13C021A6005F0F2FE3B88DA
:20524000C043283380B22344002800F06D81D880668083E05D4D2B88272B40F2ED8014F856
:205260003C3C03F0F003602BA4F13C0440F0E480204605F0E3FD2B888342C0F0DD802046B6
:2052800005F0DCFD00F1280189B2B1F5A06F298000F2D280514A00232046137005F0F8FDB8
:2052A000002800F0C980227A4B4B04F1280BA0EB0B00FF2A1880984600F0BE8001230DF1AE
:2052C00007022988204605F0BFFD48B19DF8073033B9FFF7B7FE012800F0AE8002283DD023
:2052E0003F48FFF74DFA00287CD13D48FFF7EEFA002877D1207E2389FF2848F2FE013AD0EE
:20530000228B8A4200F014818B4236D07BB963896BB9A3895BB9E3894BB9238A3BB9638A3A
:205320002BB9A38A1BB9E38A002B00F085807AB9638B6BB9A38B5BB9E38B4BB9238C3BB95F
:20534000638C2BB9A38C1BB9E38CB3F5807F73D02B88B3F5A06F07D8FFF7B0FE1C4B0022A8
:205360001A7003B0BDE8F08F4FF4A06200210220FEF7B0FFF2E78B425ED1238B7BB9638BFB
:205380006BB9A38B5BB9E38B4BB9238C3BB9638C2BB9A38C1BB9E38CB3F5807F4CD0FF2863
:2053A0004AD00F48FFF7CCF90246002844D102210120DDE7202900200C24002054240020E3
:2053C0001C2900202829002024290020082400201829002018240020801500204E19002045
:2053E00030240020654E29886548002333700DF10702012305F028FD074658B39DF80730F9
:20540000062B27D0112B00F096803A2B1CD105F005FE4FF6FF7398420ED1B8F8003028332D
:20542000E218E05C5178FEF733FF012801D1FEF78BFE2B88002B91D1FEF786FE4F4A002358
:205440001370504A13708CE72C2BF5D006D88BB12B2B29D03A1B0121042089E73B2BEBD088
:205460003C2BF7D1337898071BD55906F2D443F0400304E03378DA07ECD443F00103384643
:205480003370FFF7DFFD0128D6D002283FF466AF29883B1BC91A0DF10702002389B2384689
:2054A000A8E743F00203EAE733785A07D2D443F004033370FB78002BEAD0334BDB6B9847CA
:2054C0000028C7D044E70A8A1AB93368203333604EE0B8F800302833E01840889042F4D13A
:2054E0004A8A12B1E35A9342EFD10B682BB94B681BB98B680BB9CB682BB11022584605F0DA
:205500001BFF0028E1D12B882049214AC9F80020303B2B8000230B60CAF8002019491D4AE0
:2055200002200870138053E64FF6FF72DA808FE6934281D135E7FFF7F5FDB8F800305B44D6
:20554000DB8833B105F06DFD4FF6FF7398427FF473AFB8F800309B44BBF80230002B3FF47D
:205560006BAF0D4F0D4EDFF838B0376007F580773168B942A7D30022042119E74D19002036
:20558000182400201829002060B400002429002048240020282900202C2900201C290020F6
:2055A00020240020054BC0F3072203EA0023000C40BA134380B240EA0340704700FFFF009B
:2055C00010B5044640B1054B9B6C984721460448BDE81040FDF7D0BB10BD00BF60B40000CE
:2055E000DC02002008B5FDF7D7FD03490348BDE80840FDF7D9BA00BFC1550000DC0200204A
:2056000070B504461E469DF81020059B0A48FDF75BFB054670B120462B4604F1100250F824
:20562000041B43F8041B9042F9D1044B6E7428469B6C9847284670BDDC02002060B4000023
:2056400001460148FDF7BEBBDC0200200148FDF7E7BA00BFDC02002001460148FDF7BCBABA
:20566000DC0200200146014805F05DB9DC0200202DE9F04F944CE379FF2B85B040F02181D1
:20568000924E338804F12C055A191279FF2A00F0188104F128073B445B78002B40F0118136
:2056A0008B4ADFF844A213608A4B142119809146984604F1080B3288874BB8F800E0B3F8BE
:2056C00000C002F12C0000EB0E016145C0F28C8020440430FFF754F8804B18609A46002868
:2056E00000F0EF8023897BB963896BB9A3895BB9E3894BB9238A3BB9638A2BB9A38A1BB938
:20570000E38A002B00F0DD80DFF8E0814046FFF737F8C146002840F0D480228B40F2FF230D
:205720009A4208F1100B40F0B980638B002B40F0B580A38B002B40F0B180E38B002B40F00F
:20574000AD80238C002B40F0A980638CB3F5807F40F0A48094F82430FF2B40F09F8098E826
:205760000F008BE80F0033881D44043595E80F0088E80F00FEF7E8FC602328215248236076
:2057800005F058FB4FF63A73E3803388DAF800108822FA522C33E018E022E25402311022E5
:2057A000043005F0D8FD33884D494033E5180222E254A81C6A70082205F0CDFD0622002100
:2057C00005F10A0004F06AFE33883B4400225A8005F024FC33881F44C04378805020FEF7A4
:2057E0008BFC05B0BDE8F08F0EEB02032C33E2185278002A65D0E35C012B28D12389214454
:20580000C9F8001073B9638963B9A38953B9E38943B9238A33B9638A23B9A38A13B9E38A1B
:20582000002B4ED008220DEB0200023105F093FD584605F0F9FB0246CAF8000090B9052341
:205840000190009302A902235846FFF7D9FEB8F80020338813442B445B7802EBC302A8F873
:20586000002028E7FFF7ECFE014650B3D9F800000822023005F060FD50B102A9504605F019
:20588000E9FB00281DDBDAF8003002225A74DEE7DAF800305A7C002AD9D1F6E71148FEF774
:2058A0006FFFDAF8003083420BD199E80F008BE80F0033881D44043595E80F0089E80F0064
:2058C00058E7FEF741FC8CE71824002080150020C00C0020A216002008240020B80C0020DF
:2058E0001024002030240020BC0C0020202400200148FEF7E9BC00BFEC0200200C4B0D4937
:20590000B82202FB00320023F0B553821E461A4640F24C55CC18A77827B15F5C874204BF28
:20592000A67001327133AB42F4D11046F0BD00BFCC0C00205A190020044B01221A70FD2161
:2059400000225A709970DA70704700BF4F19002010B5134C0220A179FDF72CFBA379112B37
:2059600009D1218D638D994228BF19460120BDE81040FDF71FBB062B06D10A4B1B8828334F
:205980001A19195B5388EEE73A2B06D1054B28341B88195B49BA89B2E8E70021E6E700BFF7
:2059A000182400208015002070B513780546087A83F0020398421FD1487A537898421BD1C4
:2059C000887A9378984217D1C87AD378984213D1087B137998420FD1487B537998420BD19F
:2059E000887B9379984207D1C87BD379984203D10320A840C0B270BD0E4C0B89206826461D
:205A00007BB94B89B3F57F4F0BD18B89FE2B08D102220E3105F09FFC2368023323600220BE
:205A2000E7E70822114405F096FC3368083333600120DEE73C0E002010B5074C2378012BFA
:205A4000014604D10822A01C05F076FC08B1002010BD2046FCE700BF4F19002008B50146A3
:205A60000E20FDF7B5FA044B04489B6800219847BDE80840FAF7ECBE34B400002D620000B8
:205A8000F8B5154A154D164C2B78176822680E4614490144F81805F05EFC236828781844AE
:205AA00080B2FDF7B5F9FCF799FF044608B90020F8BD3046FFF7D2FF2046FCF7C7FF2046E5
:205AC000FCF7AEFF084B18680128F0D00328CCBF00200120ECE700BF500E0020A61E00207F
:205AE0004C0E002018240020440E00202DE9F04F184E194D002387B033702B700446FDF767
:205B00000FFAFDF7A1F9154A154B126818600096A84603930AB1FFF71BFFCCB9114904A8CD
:205B200004F014FF0420FEF7F1FA01460620FDF741FA04A90E20FDF74BFA0B4B9B69984771
:205B40000A4B0028186013DC002007B0BDE8F08F2146E4E7A71E0020A61E0020C40C00207B
:205B6000500E002012B5000034B40000480E0020039BBA4E196898F800300233CA183260F2
:205B8000084426328242DFD20022CA54B448FFF753FF002800F03181336801333360802498
:205BA000B04D697828780B0943EA0013DAB2930843EA82135BB200F00F020807DFB240F04C
:205BC00024816888002840F020811AB911F0F00F00F03A81336803F8017B4FF0700933605C
:205BE000AB79112B06D02BB13C2B03D0A3F12B02012A01D849F0040919F0040F04BF3268D5
:205C000002F8013BEB7908BF3260402B00F01F81FF2B00F01F81012B40F0388149F0010984
:205C20002B89002B40F037816B89002B40F03381AB89002B40F02F81EB89002B40F02B81E0
:205C40002B8A002B40F027816B8A002B40F02381AB8A002B40F01F81EB8A002B40F01B81FC
:205C600044F040042B7EFF2B40F07D816B7E6A8B3068022B44F0080740F04281002A40F078
:205C80006981AA8B002A40F03C81EA8B002A40F038812A8C002A40F034816A8C002A40F031
:205CA0003081AA8C002A40F02C8195F82620002A40F0278195F8273000F8013B44F00B04C6
:205CC0003060009A684D654F282313703368029300230193654A3B6812687DB12E78112E9D
:205CE00000F0E481002E00F0C2813C2E00F0C5812B2E00F0B5812C2E00F0658198F80010FF
:205D000002F8019011449B1A4C700E2004A988F80030574CFDF75CF9009B564821881B7846
:205D200098F800700568CA1AD019A84240F35F82EF1B043F27F00707053DD21B521B002AF3
:205D4000CCBF02F1FF34022425F00706C4BF94FBF6F40334FCF73CFEA0427FF7F5AE002FC0
:205D6000FFF6F2AE444B424C00221A60434BB3F8009009F101021A80039B98F800201B68A4
:205D800001931946181D05F0F1FA98F80030043388F80030039B1A68238882F803901B0A57
:205DA00063F03F031370238853704FEA19239370009BDFF8D4901878C9F8007004A9FFF7AB
:205DC0005FFE00283FF4C0AE052388F80030039B1A6823881B0A63F01F031370238853706F
:205DE000009B1878D9F80030184423881FFA80F8434500F2E5810120A7E62148FFF71CFED8
:205E000000287FF4C9AE0446CAE630688AB911F0F00F0ED123F03F030B4300F8013B0222C1
:205E2000184905F098FA3368033333604FF06809D6E604220B4905F08EFA336803F8047B9E
:205E40004FF060093360CBE64FF07809C8E649F00209E5E649F00309E2E600BF3C0E0020A3
:205E600030240020182400201E240020500E002008240020480E0020440E0020A416002064
:205E8000202400201A2400204C0E0020326802F8013B3260C4E67D48FFF7CEFD7C4B1860F5
:205EA00090B1039A98F80030116840780233CA5C42EA0012CA540420764A7449FFF774FD54
:205EC00060F03F00C4B2CDE62A8948F2FE039A420DD16B8B5BB9AB8B4BB9EB8B3BB96D4AFD
:205EE0006A490420FFF760FD0443E4B2BAE610226649306805F02FFA336810333360B1E65C
:205F000042BBAA8B32BBEA8B92B92A8C82B96A8C72B995F824205AB900F8013B03225E49AC
:205F200005F019FA336844F00A0404333360C8E6EA8B7AB92A8C6AB995F8222052B900F8B1
:205F4000013B0522554905F006FA336844F009040633EBE71022524905F0FDF933681033CE
:205F600033603C46ADE64E48FFF766FD484B0146186090B1039A98F800301068497802332C
:205F800044F00404C25C0A434549C25404AA0020FFF70AFD0443E4B293E62A8B48F2FE03A5
:205FA0009A4208D16B8B33B9AB8B23B9EB8B13B904AA3B49ECE710223949306805F0CBF9EC
:205FC00033681033B2E70199364D01F1280A554402263449344895F801B011F80A10006886
:205FE0004FEACB0B11290BF1080B02440AD049B13C2907D02B39012904D901339342BFF4CC
:20600000A3AD3B60386800EB0B039A427FF69CAD5A46294605F09FF93A685FFA8BF3991E96
:206020005170019959440191009909780B4400990B701C4B13F80A305A44112B3A6023D046
:2060400013B33C2B20D02B3B012B8CBF00230123760066F01F061E43029B02921E7039E6CF
:206060000199104D01F1280A55440126B1E701990C4D01F1280A5544ABE70199094D01F189
:20608000280A55440326A4E70123E1E720240020C80C0020102400203D2400203B240020E9
:2060A0003024002018240020480E00200199DFF878E101F1280A0AEB0E063AF80E50290AE0
:2060C00041EA052175884FEA052C4CEA152C544D2D6889B22A4421F00F05ADB24FF2B00B32
:2060E000581C5D4538601FFA8CFC2DD12CF00F0BAB4529D10298F3210170991C9142BFF4D9
:2061000023AD3AF80E203960100A7288120A02EB001202F5AA625A70424B414938681B6880
:206120000968821C0B449A42BFF40EAD0222B11D05F011F93B68009A02333B60009B1B788B
:20614000083313700025C5E50CF47F4CBCF5704F11D1029D0433F1219A4229707FF6F4AC23
:206160000222314605F0F7F872883B68120A9A7003333B60D0E701F47F41B1F5704F11D159
:206180000298F2210170191D8A427FF6DDAC3AF80E20120A5A7002229818B11805F0DBF836
:2061A0003B68E5E7029D0533F0219A4229707FF6CBAC0422314605F0CEF83B680433D8E736
:2061C000184A12684FEAD801A3EB080311719D42B8BF334604A94046C9F80030FFF750FC81
:2061E00000283FF4B1ACD9F800004044FDE59942FFF4AAAC0B4908680B493844194405F0A6
:20620000AAF8238898F800001844009B1B78C01A80B2FCF7FDFD04A8FFF720FCEBE500BFD1
:20622000480E0020500E00201824002070B5124B1B680C46154613B19B68084698470F4B0E
:206240000E201C60FCF7D0FE0D49064604F081FB80B92A4621463046FCF724FF094B21466A
:2062600030462A465B6C984729462046BDE8704004F02ABF70BD00BFC40C0020440E00203D
:2062800012B5000060B400002DE9F84380468946FCF7C8FD114B1E78841B631E6D2B1AD8E9
:2062A0000F4F0023712101FB03F2BD18A87878B90C4B85F801901968AC70D01C85F80080C9
:2062C00022463144384405F046F82046BDE8F88301330C2BE7D14FF0FF34F6E7A61E002056
:2062E0005A190020500E00202DE9F04115090F2D0646984602F00F0434D00F2C37D01DB1A9
:206300002A46304605F027F82A190F2A274605DCC2F110020021701904F0C0F8D4B1DFF842
:206320005880C7F110002246D8F80010304405F012F8022C05D10A2D9FBFFF23F372FE23C1
:206340003373D8F800202244C8F80020BDE8F0811024D5E7002DF9D041463046BDE8F04192
:2063600004F00ABE0F2C00D110241025C8E7002DEED110273C46D2E73C0E00202DE9F84324
:206380008046894617464B4D002A57D02B8A83420AD16B8A43B10D20FCF726FE01462846EB
:2063A00004F0D7FA002840D1B5F8C83043453ED1B5F8CA30002B3AD00D20FCF715FE01464D
:2063C0003D4804F0C6FA90B301245FFA84F839464046FFF759FF00281DDA6E8A4EB15CB3CF
:2063E000364804F08BF9064618B10020FFF786FA0646B5F8CA3043B13CB9314804F07EF93C
:2064000018B10120FFF77AFA0644002E0FDD39464046FFF739FF002809DDB82303FB045551
:2064200064B2AB8A1844A88203E00024CDE74FF0FF342046BDE8F8832646DAE76B8A33BBC8
:206440000024B5F8CA308BB31D4804F057F910B10120FFF753FA631C2AD1B5F8CA30002B19
:20646000E7D10124B8266643AF190D20A7F81290A7F81080FCF7B8FD0146384604F066FA92
:2064800006F118004021284404F031F9D1E705F1180004F033F928B96B8A002BD0D04FF03C
:2064A000FF34CEE73846FFF729FAF5E70134D8D00024D7E7CC0C0020840D0020E40C002009
:2064C0009C0D00202DE9F04F0D208BB0B24FB34EB34DFCF789FD0024FCF724FE3C70347032
:2064E000FCF7B2FC2860FCF79DFCBA46B146A846002800F0F481FDF727FE0420FCF762FDE6
:20650000A84B00B218600420FCF75CFD01460620FDF706FE0320FCF755FD01460720FDF7BF
:20652000FFFD2B681D886DBAADB22A1202F0F802C02A0AD0E02A00F0478127464FF4A06340
:2065400025460593984C019718E058883378C5F30A0540BA04332246294680B23370FFF79F
:206560000DFF431C074600F0BA81904BB82404FB0034942305930123223401938C4BD8F84A
:20658000001000221A7099F80020885C00F0F006F02E04BF00F00F0018701B7804BF0132D3
:2065A00089F80020012B00F29A8199F80030CA5C02F0E000602840F00E83FCF733FC064691
:2065C00099F80000431CB34280F28981D8F80020DFF8E091135C811C1044114490F8018064
:2065E000C9F800104FFA88FBBBF1000FBCBF0131C9F80010D90603F0080000F13981D9F86F
:2066000000108A1A002840F01A810332964240F3668103220131601C029304F09CFED9F8E5
:20662000002012F8040BC9F80020820802F00F0141F060012170617802F0300242EA8012D6
:2066400001F00F010A436270029B13F0040202920BD15848524902680968511A8E4240F380
:206660003E8112F8011BA171026013F0030300F01D81514AD35CE37118F0400FC8F30113E6
:2066800000F03481BBF1000FBFBF444A1178444A1268B7BF5218002292781209002B40F07B
:2066A000178104F10809002B40F01C811946434A0491D25C03920D20FCF796FCDDE9032164
:2066C00003464846FFF710FE08F0030208F0040318F0080800F01681DBB9394B1B88ADF8E4
:2066E0002430531E012B0CD832482D4903680968591A8E4240F3F38013F8011B8DF825102F
:206700000360304900238A5C09A904F11800FFF7EBFD9AF800302749214A28338AF800304D
:2067200010680B681B1A9E4240F3D9800020A31D04F1280B0490884606929146069AD8F884
:20674000001012680392029A32B191F800C00CF0F000E02800F00881039A8A1A964240F399
:20676000BE800298002800F0DF81087800F0F800F02840F0D981112018700B7803F0040A82
:2067800003F0F303F03B032B00F2A980DFE813F056018401E501FB01A71E0020A61E00204B
:2067A000500E0020400E002018240020CC0C0020591900203C0E0020E8B70000ECB700005B
:2067C000D9B70000F4B70000588893F804B0337840BAC5F30A0505335A46294680B23370D7
:2067E000FFF7CCFD0746013079D0A04AB82303FB0723A246B3F814900123A94534BF4FF0AB
:2068000000094FF001090193994EFCF70BFB3378834264D8FCF706FB3178964EDFF87482B8
:20682000421A3078C8F8002000EBCB031344B3F5A06F40F2E781F8B2FFF760F84FE00232B8
:206840006020964220704ADD11F8010B0293820802F0300200F00F00024362700222A018DF
:2068600004F079FDD9F800200332C9F80020EBE6B8B9D9F800108A1A964230DD0A78C2F3C4
:20688000830242F06002227011F801CBC9F800104FEA9C0202F0300242EA8C126270608030
:2068A000D3E66022228000226280CEE67249734A0B6812689A1A964211DD13F8012BE271DA
:2068C0000B60D9E690F801C0944506D10860E8E66B48017801296B49F4D000230B600BB048
:2068E000BDE8F08F674A11680231E0E6664A0D2012F80390FCF778FB4A460346634904F1F7
:206900000800DFE633B3BBF1000F08DA584B19785A4B1B680B4493F8028008F00F08DFF889
